:100000000A128A110E280334FE00030EF1000408C0
:10001000F2000A08F3000A128A15062E0A128A1143
:100020001128831603130A128A1103200A128A1157
:10003000B800831203130A128A11FB270A128A11CD
:10004000EA000A128A11FC270A128A11EB000A122E
:100050008A11FD270A128A11EC000A128A11FE2762
:100060000A128A11ED000A128A11FF270A128A1158
:10007000F900831790308400C2300A128A15E824F0
:100080000A128A118313A0308400B1300A128A1533
:10009000E8240A128A112030840046300A128A1598
:1000A000E8240A128A11F601F701F80183010A1205
:1000B0008A115A280A128A11E1250A128A110A1293
:1000C0008A114B230A128A1183160313210823066F
:1000D000031D6C282008220603196F287028CA28DF
:1000E000F40101300A128A1573250A128A11831647
:1000F0000313220883120313E20083160313230859
:1001000083120313E3000030E31BFF30E400E5003B
:100110001030E6000A128A1141220A128A111030A8
:1001200083120313C8000130C9000A128A15182768
:100130000A128A11303083120317BC002F30BD0021
:10014000BE016F3083120313D7008030D8002F30E8
:10015000D9003C300A128A1560270A128A11303001
:1001600083120317C2002F30C300C4011030831262
:100170000313D7000130D8002030D9003C300A12D8
:100180008A1560270A128A113C300A128A1527251F
:100190000A128A11831603132308A1002208A00063
:1001A00027080319D428D528332990300A128A1138
:1001B0004C240A128A113130831603132C06031DB6
:1001C000E228E3282F296F3083120313CB008030FD
:1001D000CC00AD300A128A15AA270A128A11003AF9
:1001E0000319F328F4282F293030831603132B0624
:1001F000031DFB28FC282F29A601A60A0330B800FE
:10020000F40101300A128A1573250A128A1114307A
:1002100083120313C8008030C9000A128A151827F8
:100220000A128A11F401C0300A128A1573250A12C3
:100230008A11563083120313C8008030C9000A1295
:100240008A1518270A128A11F401F40A8316031377
:100250003808303E0A128A1573250A128A1183164D
:100260000313A701AA0125080319372938297C2976
:10027000F40101300A128A1573250A128A116330BB
:1002800083120313C8008030C9000A128A15182788
:100290000A128A1183160313A801A901A501A60158
:1002A0000330B800303083120317A0002F30A100B4
:1002B000A2016F3083120313D7008030D8002F3093
:1002C000D90020300A128A1560270A128A11783064
:1002D00083120313D7008030D8002030D90020309B
:1002E0000A128A1560270A128A1120300A128A150A
:1002F00027250A128A111A2A380803198029812908
:10030000C12903303802031886298729C129240806
:1003100003198B298C29C129F40101300A128A158D
:1003200073250A128A11473083120313C8008030E4
:10033000C9000A128A1518270A128A11F401C0305E
:100340000A128A1573250A128A1156308312031372
:10035000C8008030C9000A128A1518270A128A11AB
:10036000F401F40A831603133808303E0A128A1582
:1003700073250A128A1183160313A801A901A40187
:100380001A2A3808031DC529C6291A2AF401013082
:100390000A128A1573250A128A1137308312031341
:1003A000C8008030C9000A128A1518270A128A115B
:1003B000F401C0300A128A1573250A128A112630F8
:1003C00083120313C8008030C9000A128A15182747
:1003D0000A128A11033083160313B800A801A90179
:1003E000A601303083120317AE002F30AF00B001EA
:1003F0006F3083120313D7008030D8002F30D9001C
:100400002E300A128A1560270A128A11743083125C
:100410000313D7008030D8002030D9002E300A12C4
:100420008A1560270A128A112E300A128A1527258A
:100430000A128A1183160313290828060319212A90
:10044000222A392A26080319262A272A392AF401BA
:1004500001300A128A1573250A128A112430831278
:100460000313C8000030C9000A128A1518270A129F
:100470008A11831603132908A8005F280A128A111B
:100480000E2883160313B501B601B301B40183121C
:100490000313E51F4C2A4D2A792A013083160313D2
:1004A000B5000030B60083120313660884002D30B7
:1004B00083178000FF30C900FF30C800FF30C7003D
:1004C000FF30C6006508CD006408CC006308CB008F
:1004D0006208CA000A128A15D0260A128A118312EB
:1004E00003134908E5004808E4004708E30046080C
:1004F000E20083160313B701B70A842A0130E7002C
:10050000670883160313B707370883120313CA005B
:100510000A300A128A15CA250A128A118312031395
:100520004A08D3004B08D4000030D41BFF30D5005C
:10053000D6006508DA006408D9006308D8006208AC
:10054000D7000A128A11EB240A128A1183120313AC
:100550005608550454045304031DAF2AB02A7E2ABA
:100560002C2B8316031333083702FF3E8312031329
:10057000CA000A300A128A15CA250A128A11831281
:1005800003134B0883160313B200831203134A08A4
:1005900083160313B1003508831203136607E700BF
:1005A0006708840083160313310883120313D300F2
:1005B00083160313320883120313D4000030D41BB4
:1005C000FF30D500D6006508DA006408D90063085A
:1005D000D8006208D7000A128A11EB240A128A1185
:1005E000831203135308303E8317800083160313CE
:1005F000310883120313C6008316031332088312D3
:100600000313C7000030C71BFF30C800C9006508CE
:10061000CD006408CC006308CB006208CA000A124F
:100620008A118B260A128A11831203134908E500E6
:100630004808E4004708E3004608E200013083165A
:100640000313B5070318B60A0030B6070130B30725
:100650000318B40A0030B407831603133408803A31
:1006600083120313E70080306702031D3B2B8316C0
:10067000031337083302031C3E2B3F2BB12A83168A
:1006800003133508831203136607E7006708840025
:100690008317800108000F3083120313DF005F0807
:1006A000831603138804F80107308312DF005F0804
:1006B00086047808113E84000A128A110A260A125A
:1006C0008A11DF005F088605F70177080D3E840078
:1006D0000A128A110A260A128A110805031D712BB3
:1006E000722B992B213083120313E0007530DF0049
:1006F000DF0B782BE00B782B7D2B77080D3E8400E9
:100700000A128A110A260A128A1183120313080593
:10071000031D8B2B8C2B992B7808DF0002300310E4
:10072000DF0DFF3E031D8F2B77085F07F900F601F1
:10073000F60A0130DF005F08F70704307702031C78
:10074000A22BA32B652B76080319A72BA82B412CD2
:10075000F60108307906031DAE2BAF2B082C83164B
:1007600003132608031DB52BB62BEB2B83120313A3
:100770000108DF00E0015F08F4006008F5000A12DC
:100780008A15F0240A128A11273083120313D90024
:100790002330DA000A128A1589260A128A11831276
:1007A00003135308DC005208DB000A128A11742775
:1007B0000A128A11831203135908E83E83160313A1
:1007C000A200831203135A080318013E033E831646
:1007D0000313A300332C243083120313CB00003007
:1007E000CC0035300A128A15AA270A128A11003A5B
:1007F0000319FB2BFC2B012C83160313A501A50A5F
:10080000332C013083160313B802A401A40A332C3D
:10081000790803190C2C0D2C332C8316031326088E
:100820000319132C142C332C7908013E84000A126E
:100830008A110A260A128A1183120313DF00831613
:1008400003132908243E8400831203135F088313D3
:1008500080000130DF005F0883160313A907290811
:10086000243E840080010F308312DF005F0888047B
:100870000F300805DF000F305F06031D402C412CB0
:10088000382C0130DF005F08F80703307802031CC2
:100890004A2C4B2C542B080083120313DA00D80186
:1008A000D901D601D7015A08F4000130F5000A1227
:1008B0008A159E250A128A11750883120313D00027
:1008C0007408CF00DB01DC01D42C831203135B0816
:1008D0005A07CC004C0884002F30831700060319F8
:1008E000722C732CB12C5B085A07CC004C08840086
:1008F000000803197C2C7D2CB12C5B085A07CC0016
:100900004C0884000008CD005808513E84004D0872
:10091000831380000130D8070318D90A0030D907A3
:100920005808513E84008001CE2C510883160313D1
:10093000AC00C42C5130F400AD300A128A11CF271C
:100940000A128A11C42C510883160313AB00C42C5D
:100950005130F40035300A128A11CF270A128A1159
:10096000C42C5708003A0319B62CC42C5608003A78
:100970000319952C013A03199A2C033A0319A32C55
:10098000013A0319A82CC42C013083120313D60793
:100990000318D70A0030D707D801D9010130DB0787
:1009A0000318DC0A0030DC074F08013ECC00500879
:1009B0000318013E003ECD005C08803ACE004D0891
:1009C000803A4E02031DE62C4C085B02031CE92C06
:1009D000EA2C652C080083120313DD01D61FF12CCD
:1009E000F22CFF2CD309D409D509D609D30A03194F
:1009F000D40A0319D50A0319D60ADD01DD0ADA1F64
:100A0000022D032D122DD709D809D909DA09D70AE1
:100A10000319D80A0319D90A0319DA0A0130DB00CD
:100A20005B08DD060030E1000030E0000030DF0050
:100A30000030DE0056085504540453040319212DD8
:100A4000222D6F2DDC01DC0A322D0130DB0003107A
:100A5000D30DD40DD50DD60DDB0B272D0130DB00CA
:100A60005B08DC07D61F352D362D252D0130DB0028
:100A70000310DE0DDF0DE00DE10DDB0B382D560808
:100A80005A02031D4D2D55085902031D4D2D5408C2
:100A90005802031D4D2D53085702031C502D512D94
:100AA000602D5308D7025408031C540FD802550870
:100AB000031C550FD9025608031C560FDA025E14A8
:100AC00001300310D60CD50CD40CD30CFF3E031D03
:100AD000612D0130DC02031D6E2D6F2D362D5D085A
:100AE0000319732D742D7F2DDE09DF09E009E1095B
:100AF000DE0A0319DF0A0319E00A0319E10A610893
:100B0000D6006008D5005F08D4005E08D300080056
:100B10008312031309118910823083120313C90051
:100B2000DD30C800C80B922DC90B922D8312031320
:100B30008914F40138300A128A1573250A128A11B1
:100B4000213083120313C9007530C800C80BA62DCD
:100B5000C90BA62DAB2DF40138300A128A15732566
:100B60000A128A11073083120313C9007C30C800AF
:100B7000C80BB82DC90BB82D0000F40138300A128B
:100B80008A1573250A128A11F40108300A128A158F
:100B900073250A128A11F4010F300A128A1573257F
:100BA0000A128A11F40101300A128A1573250A12F9
:100BB0008A11F4010C300A128A1573250A128A115F
:100BC0000800003083120313E5000130E400C23056
:100BD000E3000030E2000A128A1543260A128A1145
:100BE0000A128A1188250A128A110A128A15F92412
:100BF0000A128A110A128A1512250A128A1108008D
:100C0000FF1B0A2E83137F1883170008840A031919
:100C1000FF0A080006308A000408840A82070034AC
:100C20002A3437343434313430343834353432348F
:100C30002334393436343334013402340434083440
:100C4000FE34FD34FB3449346E347334653472340D
:100C50006934733463346934203463346F346434F6
:100C60006934633465340034003452346934673491
:100C700065346E34653472346134723465342034D2
:100C800063346F3464346534003400345434653470
:100C90006E3474342E3420346534733461347534D6
:100CA00072346934743469340034003443346F343A
:100CB0006434693463346534203465347234723496
:100CC000613474346F3400340034543465346E3419
:100CD0007434613474346934763469343A34203489
:100CE00000340034423465346E34763465346E3406
:100CF000753474346F34213400340034303430347B
:100D000031340034003431342F3430340034313451
:100D10002F343134003483120313CF01CD1F912EB1
:100D2000922E9F2ECA09CB09CC09CD09CA0A0319F4
:100D3000CB0A0319CC0A0319CD0ACF01CF0AC91F68
:100D4000A22EA32EAE2EC609C709C809C909C60A14
:100D50000319C70A0319C80A0319C90A490848042C
:100D6000470446040319B52EB62EF92ECE01CE0A3D
:100D7000C62E0130F4000310C60DC70DC80DC90DF5
:100D8000F40BBB2E0130F4007408CE07C91FC92E26
:100D9000CA2EB92E49084D02031DD82E48084C0210
:100DA000031DD82E47084B02031DD82E46084A02C1
:100DB000031CDB2EDC2EEA2E4608CA024708031C61
:100DC000470FCB024808031C480FCC024908031CFC
:100DD000490FCD0201300310C90CC80CC70CC60C5A
:100DE000FF3E031DEB2E0130CE02031DF82EF92E1F
:100DF000CA2E4F080319FD2EFE2E092FCA09CB0952
:100E0000CC09CD09CA0A0319CB0A0319CC0A031964
:100E1000CD0A4D08C9004C08C8004B08C7004A0855
:100E2000C600080083120313D200D301D401520874
:100E3000F4000130F5000A128A159E250A128A1163
:100E4000750883120313D6007408D500532F530876
:100E50004B07CE004C08CD000318CD0AD31F312F0D
:100E6000CD03831203134D08CF004F08FF004E0837
:100E700084000A128A1100260A128A11D00055082D
:100E80005207D100510884005008831780000130B8
:100E9000D3070318D40A0030D4070130D50703184C
:100EA000D60A0030D60753084B07CE004C08CD00B9
:100EB0000318CD0AD31F5D2FCD03831203134D08F2
:100EC000CF004F08FF004E0884000A128A11002646
:100ED0000A128A11003A031D6E2F6F2F272F560812
:100EE000CC005508CB00080083120313DE01DC1F81
:100EF0007A2F7B2F822FDB09DC09DB0A0319DC0A3E
:100F0000DE01DE0ADA1F852F862F8B2FD909DA0939
:100F1000D90A0319DA0A59085A040319902F912F94
:100F2000C02FDD01DD0A9F2F01300310D90DDA0D2E
:100F3000FF3E031D952F0130F5007508DD07DA1F10
:100F4000A22FA32F942F5A085C02031DA92F590822
:100F50005B02031CAC2FAD2FB32F5908DB025A08DC
:100F6000031CDC03DC0201300310DA0CD90CFF3E59
:100F7000031DB42F0130DD02031DBF2FC02FA32F8F
:100F80005E080319C42FC52FCA2FDB09DC09DB0A51
:100F90000319DC0A5C08DA005B08D9000800831238
:100FA0000313C900CA01CB01E92F4A087407C60020
:100FB000460884000008C7004A084907C8004808D6
:100FC0008400470880000130CA070318CB0A0030AC
:100FD000CB074A087407C60046088400831300083C
:100FE000031DF32FF42FD52F4A084907C6004608E2
:100FF000840080010800013400340034003463347C
:1019D00064008001840A0406031900340406E92C1B
:1019E000740883120313EA007508EB00EC01ED01A3
:1019F00008000F30F4007408831603138804F030D5
:101A0000F400740886050800F500831203130C1E09
:101A10000A2D0B2D052DEF30F40074088C05750888
:101A200099000800A030F40074088B040630831677
:101A30000313810083308312031381000030A3005D
:101A40000030A2000030A1000030A0000800831286
:101A50000313C900C701C801402D47084907C60044
:101A60004608840000080A128A1504250A128A15FD
:101A7000013083120313C7070318C80A0030C807D0
:101A800047084907C6004608840083170008031D5D
:101A90004A2D4B2D2D2D0800F401F501831203135F
:101AA000461C532D542D5A2D4808F4070318F50AE7
:101AB0004908F50701300310C80DC90DFF3E031D8D
:101AC0005B2D01300310C70CC60CFF3E031D622DB9
:101AD00046084704031D6D2D6E2D4E2D7508C70059
:101AE0007408C6000800F5008316031388018910E6
:101AF000091183120313891475088800740C031CE0
:101B0000091103180915143083120313C700793023
:101B1000C600C60B892DC70B892D831203138910AC
:101B2000143083120313C7007930C600C60B962DFC
:101B3000C70B962D83120313891408008312031315
:101B4000C901CA01A92D0130C9070318CA0A00300A
:101B5000CA0749087407C7007508C6000318C60AF3
:101B6000C91FB32DC603831203134608C8004808D3
:101B7000FF00470884000A128A1100260A128A15FB
:101B8000003A031DC42DC52DA32D4A08F5004908B0
:101B9000F400080083120313CE000130D10000309E
:101BA000D200CF01D001F22D831203134E08CC00D6
:101BB000CD014C08C6004D08C7005208C9005108A5
:101BC000C8000A128A154C250A128A1583120313BB
:101BD0004708D2004608D1000130CF070318D00AC9
:101BE0000030D0075008803ACC0080304C02031DF2
:101BF000FB2D4A084F02031CFE2DFF2DD42D83120E
:101C000003135208CB005108CA00080083120313C3
:101C10008C1E0B2E0C2E252E831603132A08903EA5
:101C20008400831203131A08831780000130F00028
:101C3000700883160313AA072A08903E84008001C7
:101C4000A701A70A831203138C120B1D282E292E1D
:101C50003A2E833081000130A00700300318013094
:101C6000A107003003180130A2070030031801302B
:101C7000A3070B1173088A0072088400710E830099
:101C8000FE0E7E0E0900BF3083120313E6006608C5
:101C90008316031387058717243083120313E60086
:101CA00066088316031398048312031398171816F3
:101CB0006208E6006308E7006408E8006508E900D8
:101CC00006300310E60DE70DE80DE90DFF3E031D9C
:101CD000612E6908D6006808D5006708D400660838
:101CE000D3000130DA003130D9002D30D800003077
:101CF000D7000A128A11EB240A128A1583120313E1
:101D00005308FF3E8316031399008B170B178C168D
:101D10000800831203136D08C9006C08C8006B0823
:101D2000C7006A08C6004130CD00C630CC004E3036
:101D3000CB006D30CA000A128A15D0260A128A1505
:101D4000831203134908ED004808EC004708EB0034
:101D50004608EA003930EA07303003183130EB0723
:101D6000003003180130EC07003003180130ED0794
:101D70006A08D4006B08D5006C08D6006D08D7003F
:101D80001030D800570DD70CD60CD50CD40CD80B6E
:101D9000C22EFF305405D2007F305505D300080015
:101DA000003083120313D1000030D0000030CF0088
:101DB0000030CE00461CDD2EDE2EF52E4A08CE0762
:101DC0004B0803110318013E0319E72ECF074C08F7
:101DD00003110318013E0319EE2ED0074D0803111D
:101DE0000318013E0319F52ED1070130F40003104A
:101DF000CA0DCB0DCC0DCD0DF40BF72E0130031019
:101E0000C90CC80CC70CC60CFF3E031DFF2E4908A9
:101E1000480447044604031D0E2F0F2FDA2E5108E5
:101E2000C9005008C8004F08C7004E08C600080087
:101E300083120313CD01CE01432FF401F40A4D08A0
:101E40004807CB004908CA000318CA0ACD1F292F2A
:101E5000CA03831203134A08CC004C08FF004B0846
:101E600084000A128A1100260A128A150A128A159B
:101E700073250A128A15013083120313CD07031844
:101E8000CE0A0030CE074D084807CB004908CA00EB
:101E90000318CA0ACD1F4D2FCA03831203134A0821
:101EA000CC004C08FF004B0884000A128A1100265F
:101EB0000A128A15003A031D5E2F5F2F1D2F08009E
:101EC00083120313DD005708CB005808CC005D08CF
:101ED0000A128A1112270A128A15831203134C0858
:101EE000DC004B08DB00203059060319782F792FCE
:101EF000882F5B085D07DA005A08840059088317A9
:101F000080000130DB070318DC0A0030DC07A32F58
:101F10005B085D07DA005A0884000D3083178000E3
:101F20000130DB070318DC0A0030DC075B085D07C3
:101F3000DA005A0884000A3080000130DB070318F9
:101F4000DC0A0030DC075B085D07DA005A08840011
:101F50008001080083120313CF004F08F400003003
:101F6000F5000A128A159E250A128A157408831232
:101F70000313CD007508CE004B08F4004C08F500A3
:101F80000A128A159E250A128A15750883120313F0
:101F90004E06031DCD2F74084D060319D02FD12FE7
:101FA000D32F0030FF2FD001F32F50084B078400B0
:101FB0004C0803184C0AFF000A128A1100260A1264
:101FC0008A15CD0050084F07CE004E0884008313B9
:101FD00000084D060319ED2FEE2FEF2FD12F013002
:101FE000CD004D08D00750084F07CD004D088400A4
:101FF00083130008031DFD2FFE2FD52F013008008D
:08400000FF3FFF3FFF3FFF3FC0
:02400E00F23F7F
:00000001FF
