:060000000A128A110E280D
:10000800FE00030EF1000408F2000A08F3000A12C9
:100018008A11FC2D0A128A1111280A128A117727CF
:100028000A128A11CD000A128A1178270A128A1137
:10003800CE000A128A1179270A128A11CF000A12F1
:100048008A117A270A128A11D0000A128A117B278C
:100058000A128A11F900831790308400C2300A12FC
:100068008A116F270A128A1183160313E201E3012A
:10007800E401E501E601E70183120313C901CA019E
:10008800CB01CC01F601F701F80183010A128A11AC
:10009800702A83120313C601C701C401C501BF1F1B
:1000A800562857287F280130C6000030C70040086E
:1000B80084002D3083138000FF30A300FF30A2009E
:1000C800FF30A100FF30A0003F08A7003E08A600AF
:1000D8003D08A5003C08A4000A128A11E6240A1269
:1000E8008A11831203132308BF002208BE002108C7
:1000F800BD002008BC00C801C80A86280130C1001C
:100108004108C8074808A4000A300A128A1139268B
:100118000A128A11831203132408AD002508AE00C1
:100128000030AE1BFF30AF00B0003F08B4003E08FF
:10013800B3003D08B2003C08B1000A128A11D3216D
:100148000A128A118312031330082F042E042D0477
:10015800031DAF28B02882281029831203134408EE
:100168004802FF3EA4000A300A128A1139260A12F0
:100178008A11831203132508C3002408C200460805
:100188004007C100410884004208AD004308AE00A2
:100198000030AE1BFF30AF00B0003F08B4003E088F
:1001A800B3003D08B2003C08B1000A128A11D321FD
:1001B8000A128A11831203132D08303E831380001C
:1001C8004208A0004308A1000030A11BFF30A20094
:1001D800A3003F08A7003E08A6003D08A5003C086C
:1001E800A4000A128A11FA220A128A11831203132E
:1001F8002308BF002208BE002108BD002008BC005B
:100208000130C6070318C70A0030C7070130C40702
:100218000318C50A0030C5074508803AC100803078
:100228004102031D192948084402031C1C291D29E1
:10023800B1288312031346084007C100410884000F
:100248008313800108000F3083120313B9003908A3
:10025800831603138804F80107308312B90039089C
:1002680086047808113E84000A128A117F260A1231
:100278008A11B90039088605F70177080D3E840010
:100288000A128A117F260A128A110805031D4D29B0
:100298004E297529213083120313BA007530B9002D
:1002A800B90B5429BA0B5429592977080D3E8400F3
:1002B8000A128A117F260A128A118312031308056B
:1002C800031D6729682975297808B90002300310C9
:1002D800B90DFF3E031D6B2977083907F900F601B0
:1002E800F60A0130B9003908F70704307702031C11
:1002F8007E297F2941297608031983298429C82959
:10030800F60108307906031D8A298B29BA294A087B
:10031800F5004908F4000A128A1166270A128A11A0
:10032800273083120313B3002330B4000A128A1152
:100338002E250A128A11831203132D08B6002C08E1
:10034800B5000A128A11E8230A128A1183120313CC
:100358003308E83E83160313E400831203133408BA
:100368000318013E033E83160313E5000F30831282
:10037800B900390888040F300805B9000F3039066C
:10038800031DC729C829BF290130B9003908F80752
:1003980003307802031CD129D2293029080083129E
:1003A8000313B701B01FD929DA29E729AD09AE0926
:1003B800AF09B009AD0A0319AE0A0319AF0A031948
:1003C800B00AB701B70AB41FEA29EB29FA29B1091B
:1003D800B209B309B409B10A0319B20A0319B30A75
:1003E8000319B40A0130B5003508B7060030BB0060
:1003F8000030BA000030B9000030B80030082F04CF
:100408002E042D040319092A0A2A572AB601B60A06
:100418001A2A0130B5000310AD0DAE0DAF0DB00DA9
:10042800B50B0F2A0130B5003508B607B01F1D2AD5
:100438001E2A0D2A0130B5000310B80DB90DBA0DEA
:10044800BB0DB50B202A30083402031D352A2F08AE
:100458003302031D352A2E083202031D352A2D08C2
:100468003102031C382A392A482A2D08B1022E08DD
:10047800031C2E0FB2022F08031C2F0FB3023008E3
:10048800031C300FB402381401300310B00CAF0C49
:10049800AE0CAD0CFF3E031D492A0130B602031D08
:1004A800562A572A1E2A370803195B2A5C2A672A04
:1004B800B809B909BA09BB09B80A0319B90A03196D
:1004C800BA0A0319BB0A3B08B0003A08AF0039085A
:1004D800AE003808AD0008000A128A1119270A125E
:1004E8008A110A128A1127210A128A118316031304
:1004F80063086506031D822A620864060319852AB3
:10050800862AD52AF40101300A128A11A2260A1273
:100518008A1183160313640883120313BC0083161D
:100528000313650883120313BD000030BD1BFF30A1
:10053800BE00BF00D230C0000A128A114D200A1234
:100548008A11D23083120313A2000030A3000A12CA
:100558008A11BB250A128A1183160313A0011430CD
:1005680083120313AA008030AB002F30AC00A030F8
:100578000A128A119C240A128A11D2308312031398
:10058800AA000030AB002030AC00A0300A128A115B
:100598009C240A128A11A0300A128A11F4260A121F
:1005A8008A11831603136508E3006408E2006608ED
:1005B8000319DF2AE02A752AF40101300A128A1188
:1005C800A2260A128A11903083120313A200013066
:1005D800A3000A128A11BB250A128A118316031373
:1005E800E601E701752A0A128A110E2883120313FD
:1005F800A901A71F002B012B0E2BA409A509A609E9
:10060800A709A40A0319A50A0319A60A0319A70A20
:10061800A901A90AA31F112B122B1D2BA009A1099F
:10062800A209A309A00A0319A10A0319A20A031916
:10063800A30A23082204210420040319242B252BB0
:10064800682BA801A80A352B0130F4000310A00D6F
:10065800A10DA20DA30DF40B2A2B0130F400740890
:10066800A807A31F382B392B282B23082702031D83
:10067800472B22082602031D472B21082502031DAC
:10068800472B20082402031C4A2B4B2B592B2008EC
:10069800A4022108031C210FA5022208031C220F13
:1006A800A6022308031C230FA70201300310A30C82
:1006B800A20CA10CA00CFF3E031D5A2B0130A8026E
:1006C800031D672B682B392B290803196C2B6D2BFD
:1006D800782BA409A509A609A709A40A0319A50A3C
:1006E8000319A60A0319A70A2708A3002608A200C7
:1006F8002508A1002408A000080083120313A700FE
:10070800A501A601A801A9018F2B0130A80703188C
:10071800A90A0030A90728082707A0002008840094
:1007280083130008031D992B9A2B892BC72B2508A7
:100738007407A1007508A0000318A00AA51FA52B1F
:10074800A003831203132008A2002208FF00210837
:1007580084000A128A1175260A128A11A300280831
:100768002707A4002408840023088313800001308D
:10077800A5070318A60A0030A6070130A807031822
:10078800A90A0030A90725087407A1007508A00068
:100798000318A00AA51FD12BA00383120313200856
:1007A800A2002208FF00210884000A128A11752677
:1007B8000A128A11003A031DE22BE32B9B2B29080E
:1007C800F5002808F400080083120313B801B61FC7
:1007D800EE2BEF2BF62BB509B609B50A0319B60AA5
:1007E800B801B80AB41FF92BFA2BFF2BB309B409C7
:1007F800B30A0319B40A330834040319042C052C6A
:10080800342CB701B70A132C01300310B30DB40D03
:10081800FF3E031D092C0130F5007508B707B41F0A
:10082800162C172C082C34083602031D1D2C3308EF
:100838003502031C202C212C272C3308B502340840
:10084800031CB603B60201300310B40CB30CFF3E10
:10085800031D282C0130B702031D332C342C172C10
:1008680038080319382C392C3E2CB509B609B50AB5
:100878000319B60A3608B4003508B3000800831215
:10088800031309118910823083120313A300DD308A
:10089800A200A20B4D2CA30B4D2C83120313891419
:1008A800F40138300A128A11A2260A128A1121305C
:1008B80083120313A3007530A200A20B612CA30BB3
:1008C800612C662CF40138300A128A11A2260A1209
:1008D8008A11073083120313A3007C30A200A20BF5
:1008E800732CA30B732C0000F40138300A128A1100
:1008F800A2260A128A11F40108300A128A11A226C5
:100908000A128A11F4010F300A128A11A2260A1259
:100918008A11F40101300A128A11A2260A128A11D8
:10092800F4010C300A128A11A2260A128A11080050
:1009380083120313B0002A08F4002B08F5003008CE
:100948000A128A1181230A128A1175088312031365
:10095800AF007408AE0020302C060319B42CB52C57
:10096800C42C2E083007AD002D0884002C088313F2
:1009780080000130AE070318AF0A0030AF07DF2C44
:100988002E083007AD002D0884000D308313800039
:100998000130AE070318AF0A0030AF072E08300742
:1009A800AD002D0884000A3080000130AE0703181E
:1009B800AF0A0030AF072E083007AD002D088400BD
:1009C80080010800003083120313AB000030AA0036
:1009D8000030A9000030A800201CF32CF42C0B2DAB
:1009E8002408A807250803110318013E0319FD2C44
:1009F800A907260803110318013E0319042DAA07A5
:100A0800270803110318013E03190B2DAB0701300A
:100A1800F4000310A40DA50DA60DA70DF40B0D2DC4
:100A280001300310A30CA20CA10CA00CFF3E031D67
:100A3800152D2308220421042004031D242D252D0F
:100A4800F02C2B08A3002A08A2002908A1002808D6
:100A5800A0000800831203135008A3004F08A20047
:100A68004E08A1004D08A0004130A700C630A600DE
:100A78004E30A5006D30A4000A128A11E6240A122D
:100A88008A11831203132308D0002208CF002108FB
:100A9800CE002008CD003930CD0730300318313072
:100AA800CE07003003180130CF070030031801309B
:100AB800D0074D08AE004E08AF004F08B0005008F0
:100AC800B1001030B200310DB10CB00CAF0CAE0C4F
:100AD800B20B672DFF302E05AC007F302F05AD001F
:100AE8000800BF3083120313C000400883160313A5
:100AF80087058717243083120313C0004008831624
:100B08000313980483120313981718163C08C0009F
:100B18003D08C1003E08C2003F08C300063003106C
:100B2800C00DC10DC20DC30DFF3E031D932D43081B
:100B3800B0004208AF004108AE004008AD000130E7
:100B4800B4003130B3002D30B2000030B1000A12C9
:100B58008A11D3210A128A11831203132D08FF3E2A
:100B68008316031399008B170B178C160800831232
:100B78000313A701A801E32DF401F40A27082207AB
:100B8800A5002308A4000318A40AA71FCC2DA403BA
:100B9800831203132408A600250884008317261C43
:100BA800831300080A128A11A2260A128A11013038
:100BB80083120313A7070318A80A0030A8072708F9
:100BC8002207A5002308A4000318A40AA71FED2DD7
:100BD800A403831203132408A6002508840083179E
:100BE800261C83130008031DFA2DFB2DC02D0800B9
:100BF800831203138C1E012E022E1B2E8316031341
:100C08006708903E8400831203131A088317800034
:100C18000130F000700883160313E7076708903E59
:100C280084008001E601E60A831203138C120B1D6F
:100C38001E2E1F2E302E833081000130C907003050
:100C480003180130CA07003003180130CB07003001
:100C580003180130CC070B1173088A00720884004E
:100C6800710E8300FE0E7E0E090083120313A80086
:100C78000130AB000030AC00A901AA01612E83123B
:100C880003132808A600A7012608A0002708A1002A
:100C98002C08A3002B08A2000A128A11CD260A12DA
:100CA8008A11831203132108AC002008AB0001301D
:100CB800A9070318AA0A0030AA072A08803AA6003A
:100CC80080302602031D6A2E24082902031C6D2E7B
:100CD8006E2E432E831203132C08A5002B08A400A4
:100CE8000800FF1B7F2E83137F1883170008840AD0
:100CF8000319FF0A080006308A000408840A8207DC
:100D080000342A34073404340134003408340534F8
:100D180002342334093406340334013402340434ED
:100D28000834FE34FD34FB345034493443345F34E2
:100D3800303430343034313400340034F500831624
:100D48000313880189100911831203138914750884
:100D58008800740C031C0911031809151430831238
:100D68000313A1007930A000A00BB82EA10BB82E58
:100D7800831203138910143083120313A1007930EE
:100D8800A000A00BC52EA10BC52E83120313891436
:100D98000800F401F50183120313201CD42ED52E6C
:100DA800DB2E2208F4070318F50A2308F50701309B
:100DB8000310A20DA30DFF3E031DDC2E013003100E
:100DC800A10CA00CFF3E031DE32E20082104031DE7
:100DD800EE2EEF2ECF2E7508A1007408A000080093
:100DE80083120313A100A201A3010D2F22082107DA
:100DF800A0002008840000080A128A114D270A1250
:100E08008A11013083120313A2070318A30A0030C2
:100E1800A30722082107A0002008840083130008E4
:100E2800031D172F182FFA2E080000308312031302
:100E3800BF000130BE00C230BD000030BC000A1245
:100E48008A1175250A128A110A128A1143240A1274
:100E58008A110A128A115B270A128A110A128A1148
:100E680038270A128A110800A030F40074088B048D
:100E78000630831603138100833083120313810025
:100E88000030CC000030CB000030CA000030C90070
:100E98000800F500831203130C1E532F542F4E2FF6
:100EA800EF30F40074088C057508990008000F30BD
:100EB800F4007408831603138804F030F4007408EF
:100EC80086050800740883120313CD007508CE0048
:100ED800CF01D001080064008001840A04060319C8
:100EE80000340406702F01340034003400346334B5
:08400000FF3FFF3FFF3FFF3FC0
:02400E00F23F7F
:00000001FF
