:100000000A128A1110286334FE00030E83120313B0
:10001000B9000408BA000A08BB000A128A15702D3C
:100020000A128A111328831603170A128A11FE2650
:100030000A128A11EE000A128A11FF260A128A1188
:10004000EF00831603130A128A1103200A128A1181
:10005000EF00831203130A128A1523200A128A1151
:10006000D0000A128A1524200A128A11D1000A121D
:100070008A1525200A128A11D2000A128A15262012
:100080000A128A11D300831790308400CA300A16EE
:100090008A1146250A128A111030840042300A164D
:1000A0008A1146250A128A118313E4308400EF3046
:1000B0000A168A1146250A128A113E3084005030F1
:1000C0000A168A1146250A128A1183010A128A1118
:1000D00069280A128A1592230A128A1183160317B5
:1000E0001708031974287528A02883120313BC016C
:1000F00001300A168A1113260A128A11F03083166B
:100100000313A2008730A3000A128A1577200A126F
:100110008A1183120313BC01C0300A168A111326F8
:100120000A128A116C3083160313A2008730A300D1
:100130000A128A1577200A128A118316031797016B
:1001400016080319A428A528D02883120313BC017C
:1001500001300A168A1113260A128A110F308316EB
:100160000313A2008830A3000A128A1577200A120E
:100170008A1183120313BC01C0300A168A11132698
:100180000A128A11053083160313A2008830A300D7
:100190000A128A1577200A128A118316031796010C
:1001A00015080319D428D528FE2883120313BC018F
:1001B00001300A168A1113260A128A11E4308316B6
:1001C0000313A2008730A3000A128A1577200A12AF
:1001D0008A11003083160313EB000030EA00003070
:1001E000E9000030E8000030E7000030E6000330AE
:1001F000E500E830E400831603179501140803199D
:1002000002290329512983120313BC0101300A1664
:100210008A1113260A128A118316031712088316ED
:100220000313D70083160317130883160313D8008C
:100230000030D81BFF30D900DA00CE30DB000A12C4
:100240008A1526270A128A11FB3083160313A2008F
:100250008730A3000A128A1577200A128A11CE303D
:1002600083160313A2000130A3000A128A15772017
:100270000A128A1183120313BC01C0300A168A11B4
:1002800013260A128A11373083160313A20087300F
:10029000A3000A128A1577200A128A1183160317FF
:1002A00094010A128A1129240A128A11831603174B
:1002B0002108200603195D295E298B296F0803197F
:1002C000622963298B2983120313BC0101300A16AA
:1002D0008A1113260A128A115B3083160313A200B7
:1002E0008730A3000A128A1577200A128A11831216
:1002F0000313BC01C0300A168A1113260A128A1190
:10030000C63083160313A2000130A3000A128A1517
:1003100077200A128A11831603172108A0001108FA
:100320001306031D95291008120603199829992907
:10033000172A83120313BC0101300A168A111326EF
:100340000A128A1183160317120883160313D700A3
:1003500083160317130883160313D8000030D81B25
:10036000FF30D900DA00DE30DB000A128A152627BA
:100370000A128A11FB3083160313A2008730A300F0
:100380000A128A1577200A128A11DE3083160313A7
:10039000A2000130A3000A128A1577200A128A11DE
:1003A00083120313BC01C0300A168A1113260A12E5
:1003B0008A117D3083160313A2008730A3000A122E
:1003C0008A1577200A128A11303083160317B3007A
:1003D0002F30B400B501C63083160313B1000130CD
:1003E000B2002F30B300B3300A168A11B6270A12B2
:1003F0008A11303083160317B9002F30BA00BB01C1
:10040000DE3083160313B1000130B2002030B30098
:10041000B3300A168A11B6270A128A1183160313FB
:10042000BF01B3300A128A1506240A128A118316F4
:10043000031713089100120890001B080319212AC2
:10044000222A092B10300A128A1151260A128A1107
:100450003130831603171F06031D2F2A302ABE2AA8
:10046000C23083160313A5000130A600C630A700D2
:100470000A128A15B1220A128A11003A0319412A76
:10048000422ABE2A3030831603171E06031D492A4E
:100490004A2ABE2A3030B3002F30B400B501C6302E
:1004A00083160313B1000130B2002F30B300B33014
:1004B0000A168A11B6270A128A111F3083160313EF
:1004C000B1008830B2002030B300B3300A168A1170
:1004D000B6270A128A1183160313BF01BF0AB3306D
:1004E0000A128A1506240A128A11831603179A0122
:1004F0009A0A92019301900191010330EE00831258
:100500000313BC0101300A168A1113260A128A113C
:10051000493083160313A2008730A3000A128A15FC
:1005200077200A128A1183120313BC01C0300A1605
:100530008A1113260A128A11CB3083160313A200E4
:100540008730A3000A128A1577200A128A118312B3
:100550000313BC01BC0A831603176E08303E0A164B
:100560008A1113260A128A11003083160313E7003A
:100570000030E6000030E5000030E4003130831642
:1005800003171F06031DC52AC62A032BC230831674
:100590000313A5000130A600C630A7000A128A1571
:1005A000B1220A128A11003A0319D72AD82A032B3A
:1005B0003230831603171E06031DDF2AE02A032BA1
:1005C000120813040319E52AE62AF12A00308316DB
:1005D0000313E7000030E6001D30E5004C30E40076
:1005E000032B003083160313EB000030EA000030C9
:1005F000E9000030E8000030E7000030E60003309A
:10060000E500E830E400831603179B01831203130F
:10061000BE0183160317190803190F2B102B572B34
:1006200083120313BC0101300A168A1113260A1221
:100630008A11D83083160313A2008730A3000A1250
:100640008A1577200A128A11831603179C019D01CF
:1006500099019A010330EE003030B3002F30B4001E
:10066000B501C63083160313B1000130B2002F303C
:10067000B300B3300A168A11B6270A128A111B304A
:1006800083160313B1008830B2002030B300B330BA
:100690000A168A11B6270A128A1183160313BF019C
:1006A000B3300A128A1506240A128A11EC2B6E083E
:1006B00003195B2B5C2BA22B03306E020318612BFA
:1006C000622BA22B18080319662B672BA22B83120F
:1006D0000313BC0101300A168A1113260A128A116B
:1006E000BC3083160313A2008730A3000A128A15B8
:1006F00077200A128A1183120313BC01C0300A1634
:100700008A1113260A128A11CB3083160313A20012
:100710008730A3000A128A1577200A128A118312E1
:100720000313BC01BC0A831603176E08303E0A1679
:100730008A1113260A128A11831603179C019D0140
:100740009801EC2B6E08031DA62BA72BEC2B831214
:100750000313BC0101300A168A1113260A128A11EA
:100760009D3083160313A2008730A3000A128A1556
:1007700077200A128A11033083160317EE009C01BA
:100780009D019A013030B3002F30B400B501C6305E
:1007900083160313B1000130B2002F30B300B33021
:1007A0000A168A11B6270A128A1117308316031304
:1007B000B1008830B2002030B300B3300A168A117D
:1007C000B6270A128A1183160313BF01B3300A1227
:1007D0008A1506240A128A11831603171D081C069F
:1007E0000319F32BF42B212C1A080319F82BF92BDE
:1007F000212C83120313BC0101300A168A1113261F
:100800000A128A11253083160313A2008730A30031
:100810000A128A1577200A128A1183120313BC0167
:10082000C0300A168A1113260A128A11A2308316C2
:100830000313A2000130A3000A128A1577200A12BE
:100840008A11831603171D089C006E280A128A114C
:1008500010280F3083160313BF003F088804EE01F1
:100860000730BF003F088312031386048316031367
:100870006E08223E840087300318013E8312031362
:10088000FF000A128A1100270A128A118316031325
:10089000BF003F0883120313860583160313ED017F
:1008A0006D081E3E840087300318013E8312031337
:1008B000FF000A128A1100270A128A110805031D77
:1008C000622C632C922C213083160313C0007530E8
:1008D000BF00BF0B692CC00B692C6E2C8316031351
:1008E0006D081E3E840087300318013E83120313F7
:1008F000FF000A128A1100270A128A110805031D37
:10090000822C832C922C831603136E08BF000230B6
:100910000310BF0DFF3E031D882C6D083F07EF003D
:10092000EC01EC0A013083160313BF003F08ED070A
:1009300004306D02031C9D2C9E2C502C6C08031956
:10094000A22CA32C462EEC0108306F06031DA92C07
:10095000AA2CAE2D831603176F080319B02CB12CE7
:10096000302D033021020318B62CB72CBD2CC63015
:100970000A128A154B220A128A1183160317460897
:1009800083160313BF00C0013F08B9004008BA0036
:100990006430BB000030BC000A168A11EC250A1234
:1009A0008A11831603133908C1003A08C20083165E
:1009B0000317470883160313C300C4014308B90093
:1009C0004408BA000A30BB000030BC000A168A1185
:1009D000EC250A128A118316031339084107C50052
:1009E0003A0803183A0A4207C60083160317480854
:1009F000831603134507C70000300318013046076C
:100A0000C8004708303EC90048080318013EEB3EC5
:100A1000CA004A08803AFF0080307F02031D122D71
:100A2000FB3049020318152D162D282D83160313AC
:100A3000490883120313BC0000300A168A11762677
:100A40000A128A11831603179501950AEF01332EB6
:100A5000831603179601960AC601A001A101332E41
:100A60001A08031D342D352D842D4C3083160313A5
:100A700064061D3003196506660467040319412DD9
:100A8000422D842D83160313690883120313BD00BE
:100A900083160313680883120313BC000A168A1115
:100AA00057250A128A11273083160313B300233007
:100AB000B4000A128A1521230A128A11831603131D
:100AC0002D08B6002C08B5000A128A1587210A12D3
:100AD0008A11831603133308E83E83160317920026
:100AE0008316031334080318013E033E83160317CD
:100AF0009300003083160313E7000030E600003057
:100B0000E5000030E400332E831603171A0803199A
:100B10008A2D8B2DA22D3F3083160313A5000030A4
:100B2000A600A230A7000A128A15B1220A128A1161
:100B3000003A03199C2D9D2DA22D831603179901B0
:100B4000990A332E831603171A080319A82DA92D05
:100B5000332E0130EE029801980A332E6F08031DE0
:100B6000B22DB32DD92D831603171A080319B92DE9
:100B7000BA2DC72D1D080319BE2DBF2DC72D01305D
:100B80009D021D08A23E840083178001332E6F084A
:100B90000319CB2DCC2D332E21080319D02DD12DA7
:100BA000332E0130A1022108C63E84008317800144
:100BB000332E831603171A080319DF2DE02D042E98
:100BC000831603136F08123E840087300318013E1A
:100BD00083120313FF000A128A1100270A128A11D6
:100BE00083160313BF00831603171D08A23E84005B
:100BF000831603133F08831780000130BF003F08AE
:100C0000831603179D07C12D6F080319082E092E9F
:100C1000332E0330210203180E2E0F2E332E83168F
:100C200003136F08123E840087300318013E8312BD
:100C30000313FF000A128A1100270A128A11831671
:100C40000313BF00831603172108C63E84008316D2
:100C500003133F08831780000130BF003F0883164D
:100C60000317A107D32D0F300313BF003F088312D2
:100C7000031388040F308312080583160313BF0083
:100C80000F303F06031D452E462E3A2E0130BF0081
:100C90003F08EE0703306E02031C4F2E502E302CFF
:100CA000080083160313B600B401B501B201B30105
:100CB000360883120313BC000130BD000A168A11E6
:100CC00040260A128A11831203133D088316031368
:100CD000AC00831203133C0883160313AB00B70167
:100CE000B801E72E8316031337083607A800280833
:100CF00084002F308317000603197F2E802EC42E08
:100D000037083607A8002808840000080319892E30
:100D10008A2EC42E37083607A80028088400000849
:100D2000A9003408AD3E84002908831380000130F7
:100D3000B4070318B50A0030B5073408AD3E840087
:100D40008001E12E2D08831603179F00D72EC23095
:100D5000A0000130A100AD30A2000A128A1528219E
:100D60000A128A11D72E2D08831603179E00D72E3C
:100D70003F30A0000030A100AD30A2000A128A1559
:100D800028210A128A11D72E3308003A0319C92ED6
:100D9000D72E3208003A0319A22E013A0319A72EC2
:100DA000033A0319B32E013A0319B82ED72E013096
:100DB00083160313B2070318B30A0030B307B40154
:100DC000B5010130B7070318B80A0030B8072B087F
:100DD000013EA8002C080318013E003EA900380877
:100DE000803AAA002908803A2A02031DF92E280811
:100DF0003702031CFC2EFD2E722E08000334013432
:100E0000FF1B0A2F83137F1883170008840A031916
:100E1000FF0A08007F087F398A000408840A031942
:100E2000FF0A82002A3437343434313430343834D1
:100E300035343234233439343634333401340234E3
:100E400004340834FE34FD34FB3423343D3463343D
:100E50006F346E3466342E3420342A343D34633497
:100E600061346E3463342E3400340034003423345F
:100E70002034703465347234203461346C3474340A
:100E800072346F34203463346F3464342E3400345D
:100E9000003449346E3473346534723469347334D5
:100EA00063346934203463346F34643469346334B4
:100EB00065340034003423343D3463346F346E348D
:100EC00066342E3420342A343D34633461346E3435
:100ED00063342E340034003470346534723420347A
:100EE000673465346E342E34203463346F346434A4
:100EF00069346334653400340034413474347434F8
:100F000065346E34643469342034333430347334AB
:100F10002E342E342E340034003449346E3473347D
:100F2000653472342E3420344934443420345034FF
:100F3000493443343A3400340034543465346E3424
:100F400074342E342034653473346134753472341F
:100F5000693474346934003400344D3449344E34C7
:100F60003D3430342C344D34413458343D343234F3
:100F7000353430340034003443346F3464346934ED
:100F800063346534203465347234723461347434BB
:100F90006F3400340034543465346E347434613446
:100FA00074346934763469343A342034003400348B
:100FB000423465346E34763465346E34753474344A
:100FC0006F342134003400344934443420345334F1
:100FD00061346C347634613474346F3400340034EA
:100FE0005034723465346D346934203427342334FA
:100FF00027340034003443346F3464346934633448
:1010000065343A34203400340034493444342034D4
:101010003E342034323435343034003400344534F6
:10102000523452344F345234453400340034313465
:101030002F343034003431342F34313400343234EE
:0210400000347A
:101046000134003400340034003083160313AB003F
:101056000030AA000030A9000030A800201C342867
:1010660035284C282408A807250803110318013E33
:1010760003193E28A907260803110318013E031980
:101086004528AA07270803110318013E03194C280F
:10109600AB07013083120313BC000310831603133E
:1010A600A40DA50DA60DA70D83120313BC0B502886
:1010B6000130031083160313A30CA20CA10CA00C81
:1010C600FF3E031D5C282308220421042004031D7F
:1010D6006D286E2831282B08A3002A08A2002908AB
:1010E600A1002808A000080083160313A701A80181
:1010F600AA28BC01BC0A8316031327082207A500E9
:101106002308A4000318A40AA71F8A28A403831689
:1011160003132408A600260883120313FF00831670
:10112600031325088400831203130A128A11002769
:101136000A128A150A168A1113260A128A1501300E
:1011460083160313A7070318A80A0030A807270861
:101156002207A5002308A4000318A40AA71FB42881
:10116600A403831603132408A60026088312031378
:10117600FF008316031325088400831203130A1243
:101186008A1100270A128A15003A031DCB28CC289B
:101196007C28080083120313AC01AA1FD328D42885
:1011A600DB28A909AA09A90A0319AA0AAC01AC0AEB
:1011B600A81FDE28DF28E428A709A809A70A03191B
:1011C600A80A270828040319E928EA281929AB01DF
:1011D600AB0AF82801300310A70DA80DFF3E031D2A
:1011E600EE280130FD007D08AB07A81FFB28FC2870
:1011F600ED2828082A02031D022927082902031CB4
:10120600052906290C292708A9022808031CAA0370
:10121600AA0201300310A80CA70CFF3E031D0D29DE
:101226000130AB02031D18291929FC282C080319C3
:101236001D291E292329A909AA09A90A0319AA0AE7
:101246002A08A8002908A700080083120313BC0176
:10125600BD015D29831203133C088316031322077D
:10126600A300230884000008A400831203133C088B
:10127600831603132007A6002108A5000318A50A54
:1012860083120313BC1F4A2983160313A50383166F
:1012960003132508A700260884008317271C831339
:1012A60024088000013083120313BC070318BD0A0B
:1012B6000030BD073C08831603132207A30023084A
:1012C600840083130008031D69296A292D298312C6
:1012D60003133C08831603132007A4002108A30068
:1012E6000318A30A83120313BC1F7C298316031356
:1012F600A303831603132308A50024088400831779
:10130600251C83138001080083160313B801B61F3A
:101316008D298E299529B509B609B50A0319B60A84
:10132600B801B80AB41F982999299E29B309B409A6
:10133600B30A0319B40A330834040319A329A429E8
:10134600D729B701B70AB62901300310B30DB40D7A
:10135600FF3E031DA829013083120313BD003D087B
:1013660083160313B707B41FB929BA29A729340866
:101376003602031DC02933083502031CC329C429BC
:10138600CA293308B5023408031CB603B602013075
:101396000310B40CB30CFF3E031DCB290130B7027A
:1013A600031DD629D729BA2938080319DB29DC29D0
:1013B600E129B509B609B50A0319B60A3608B40013
:1013C6003508B3000800831203130911891082300F
:1013D60083160313A300DD30A200A20BF029A30B92
:1013E600F029831203138914BC0138300A168A11B6
:1013F60013260A128A15213083160313A3007530AB
:10140600A200A20B042AA30B042A092A831203139F
:10141600BC0138300A168A1113260A128A150730BB
:1014260083160313A3007C30A200A20B182AA30B79
:10143600182A000083120313BC0138300A168A11D9
:1014460013260A128A1583120313BC0108300A16E2
:101456008A1113260A128A1583120313BC010F3050
:101466000A168A1113260A128A1583120313BC015F
:1014760001300A168A1113260A128A1583120313DB
:10148600BC010C300A168A1113260A128A150800A6
:1014960083160313A800280883120313BC00013027
:1014A600BD000A168A1140260A128A1583120313F2
:1014B6003D0883160313A700831203133C08831603
:1014C6000313A6002708803AFF0080307F02031D21
:1014D6006E2A033026020318712A722AB02AA12A1C
:1014E6002808033E8400831780012808840000082A
:1014F600A5002808023E840025088000280A8400EA
:10150600303080002808840030308000B02A280857
:10151600033E840083178001280A84000008A50082
:101526002808023E84002508800028088400000858
:10153600A500280A840025088000852A831603133F
:101546002708003A0319A82AB02A2608013A0319DF
:10155600732A033A03198A2AB02A0800831603134A
:10156600250883120313BC0083160313260883126F
:101576000313BD000A168A1140260A128A15831221
:1015860003133C0883160313A800831203133D08B4
:1015960083160313A900270883120313BC00013026
:1015A600BD000A168A1140260A128A1583120313F1
:1015B6003D08831603132906031DE72A8312031326
:1015C6003C088316031328060319EA2AEB2AED2A98
:1015D6000030202BAC010E2B2C082707A80028086A
:1015E600840083170008A9002C082507AA002608EE
:1015F6000318013EAB002A08840083172B1C8313B3
:10160600000829060319082B092B0A2BEB2A01309F
:10161600A8002808AC072C082507A80026080318E8
:10162600013EA900280884008317291C831300089B
:10163600031D1E2B1F2BEF2A0130080083120313F4
:10164600530883160313A300831203135208831649
:101656000313A20083120313510883160313A10078
:1016660083120313500883160313A0004130A7000A
:10167600C630A6004E30A5006D30A4000A128A15A9
:1016860027200A128A1583160313230883120313CD
:10169600D30083160313220883120313D200831682
:1016A6000313210883120313D100831603132008A2
:1016B60083120313D0003930D0073030031831308D
:1016C600D107003003180130D2070030031801306B
:1016D600D307500883160313AE0083120313510871
:1016E60083160313AF0083120313520883160313E2
:1016F600B00083120313530883160313B10010308E
:10170600B200310DB10CB00CAF0CAE0CB20B842B89
:10171600FF302E05AC007F302F05AD0008000030ED
:1017260083160313DA000130D900C230D800003026
:10173600D7000A168A11E9260A128A150A128A158C
:10174600E6210A128A150A168A117C250A128A15BA
:101756000A168A118D250A128A1500300A168A1170
:10176600A6250A128A1583160317CA00CB014A0852
:10177600CC004B08CD004C0A4D04031DC32BC42BD3
:10178600E42B8D3083160313A2008730A3000A12C0
:101796008A1577200A128A1583120313BC01C030FA
:1017A6000A168A1113260A128A15AD3083160313F8
:1017B600A2008730A3000A128A1577200A128A151A
:1017C600052C4C0883160313D700831603174D0800
:1017D60083160313D8000030D81BFF30D900DA0077
:1017E600C630DB000A128A1526270A128A15C63069
:1017F6000A128A154B220A128A1583160317EF015D
:101806009701970A080083160313C300C101C2019A
:101816001F2C41084307C0004008840000080A1630
:101826008A116E250A128A15013083160313C10721
:101836000318C20A0030C20741084307C000400827
:10184600840083170008031D292C2A2C0C2C3F0822
:10185600031D2E2C2F2C7A2C690883120313BD002E
:1018660083160313680883120313BC000A168A1131
:1018760057250A128A15003083160313EB00003031
:10188600EA000030E9000030E8000A30B30000301A
:10189600B4000A128A1521230A128A158316031325
:1018A6002D08B6002C08B5000A128A1587210A12DF
:1018B6008A15831603133308053EB9003408031846
:1018C600013E003EBA00FA30BB000030BC000A16EA
:1018D6008A11EC250A128A15831603133908E400C7
:1018E6003A08E5000030E51BFF30E600E700080097
:1018F60083120313B500B601B701942C36083507D9
:10190600B4003408840000080A168A1160250A12F9
:101916008A15013083120313B6070318B70A00307D
:10192600B70736083507B400340884008317000863
:10193600031D9E2C9F2C812C3308031DA32CA42C45
:10194600F32C831603136908F1006808F0000A16E1
:101956008A114E250A128A15003083160313EB00EE
:101966000030EA000030E9000030E8000A30831257
:101976000313A7000030A8000A168A116F270A125F
:101986008A15831203132108AA002008A9000A1247
:101996008A15CD200A128A15831203132708053EDD
:1019A600AD0028080318013E003EAE00FA30AF0035
:1019B6000030B0000A168A11C5250A128A1583124C
:1019C60003132D0883160313E400831203132E0852
:1019D60083160313E5000030E51BFF30E600E70041
:1019E600080083160313AC00AD01AE012C08831268
:1019F6000313BC000130BD000A168A1140260A12E4
:101A06008A15831203133D0883160313B00083124D
:101A160003133C0883160313AF00472D83160313E5
:101A26002D082507A8002608A7000318A70AAD1F3A
:101A36001D2DA703831603132708A900290883125F
:101A46000313FF008316031328088400831203136D
:101A56000A128A1100270A128A1583160313AA008E
:101A66002F082C07AB002B0884002A088317800058
:101A76000130AD070318AE0A0030AE070130AF07DC
:101A86000318B00A0030B0072D082507A80026085D
:101A9600A7000318A70AAD1F512DA703831603132A
:101AA6002708A900290883120313FF0083160313CE
:101AB60028088400831203130A128A1100270A12C7
:101AC6008A15003A031D682D692D112D83160313FF
:101AD6003008A6002F08A50008008C1E732D742D53
:101AE600892D3E08103E84001A08831780000130B5
:101AF600B8003808BE073E08103E840080018316F1
:101B060003179B019B0A831203138C120B1D8C2D4A
:101B16008D2DEF2D83308100013083160313E807E6
:101B2600003003180130E907003003180130EA07D6
:101B3600003003180130EB07670866046504640487
:101B46000319A62DA72DEE2D6B086702031DB52DD3
:101B56006A086602031DB52D69086502031DB52DC9
:101B6600680864020318B82DB92DEE2DE830640616
:101B760003300319650666046704031DC32DC42DCF
:101B8600D32D831603179701970A00308316031384
:101B9600E7000030E6000030E5000030E400EE2DFE
:101BA6004C308316031364061D300319650666045C
:101BB6006704031DDF2DE02DE52D83160317940121
:101BC600940AC82D83120313B301B3300A128A157F
:101BD6007B240A128A150B11831203133B088A0011
:101BE6003A088400390E8300FE0E7E0E0900831625
:101BF6000313A901A71F002E012E0E2EA409A50965
:101C0600A609A709A40A0319A50A0319A60A03190E
:101C1600A70AA901A90AA31F112E122E1D2EA0097B
:101C2600A109A209A309A00A0319A10A0319A20A74
:101C36000319A30A23082204210420040319242ECD
:101C4600252E702EA801A80A3D2E013083120313FB
:101C5600BC00031083160313A00DA10DA20DA30D46
:101C660083120313BC0B2C2E0130BC003C088316D8
:101C76000313A807A31F402E412E282E2308270250
:101C8600031D4F2E22082602031D4F2E2108250272
:101C9600031D4F2E20082402031C522E532E612EA4
:101CA6002008A4022108031C210FA5022208031CF8
:101CB600220FA6022308031C230FA70201300310DC
:101CC600A30CA20CA10CA00CFF3E031D622E01303A
:101CD600A802031D6F2E702E412E29080319742E9B
:101CE600752E802EA409A509A609A709A40A031919
:101CF600A50A0319A60A0319A70A2708A300260896
:101D0600A2002508A1002408A000080083160313DA
:101D1600D201CB1F8F2E902E9D2EC809C909CA0944
:101D2600CB09C80A0319C90A0319CA0A0319CB0A37
:101D3600D201D20ACF1FA02EA12EB02ECC09CD09DA
:101D4600CE09CF09CC0A0319CD0A0319CE0A031905
:101D5600CF0A0130D0005008D2060030D60000303D
:101D6600D5000030D4000030D3004B084A044904A3
:101D760048040319BF2EC02E0D2FD101D10AD02E33
:101D86000130D0000310C80DC90DCA0DCB0DD00B04
:101D9600C52E0130D0005008D107CB1FD32ED42E2C
:101DA600C32E0130D0000310D30DD40DD50DD60DA2
:101DB600D00BD62E4B084F02031DEB2E4A084E02BF
:101DC600031DEB2E49084D02031DEB2E48084C025D
:101DD600031CEE2EEF2EFE2E4808CC024908031CEB
:101DE600490FCD024A08031C4A0FCE024B08031CBA
:101DF6004B0FCF02531401300310CB0CCA0CC90C85
:101E0600C80CFF3E031DFF2E0130D102031D0C2F0F
:101E16000D2FD42E52080319112F122F1D2FD3095F
:101E2600D409D509D609D30A0319D40A0319D50A40
:101E36000319D60A5608CB005508CA005408C9002B
:101E46005308C800080083160313E101E201DF010D
:101E5600E001DA1F2F2F302F582F0130E10000301C
:101E6600E2005B0884002D3083178000FF30A3005A
:101E7600FF30A200FF30A100FF30A0005A08A700E3
:101E86005908A6005808A5005708A4000A128A1582
:101E960027200A128A15831603132308DA0022085C
:101EA600D9002108D8002008D700E301E30A5F2FF4
:101EB6000130DC005C08E3076308BF000A300A163D
:101EC6008A11AD260A128A15831603133F08C80025
:101ED6004008C9000030C91BFF30CA00CB005A08B1
:101EE600CF005908CE005808CD005708CC000A127A
:101EF6008A1589260A128A15831603134B084A0483
:101F060049044804031D882F892F5B2FE92F831668
:101F160003135F086302FF3EBF000A300A168A11E8
:101F2600AD260A128A15831603134008DE003F0801
:101F3600DD0061085B07DC005C0884005D08C80002
:101F46005E08C9000030C91BFF30CA00CB005A0822
:101F5600CF005908CE005808CD005708CC000A1209
:101F66008A1589260A128A15831603134808303EF5
:101F7600831780005D08A0005E08A1000030A11B49
:101F8600FF30A200A3005A08A7005908A600580867
:101F9600A5005708A4000A128A15FA250A128A15FE
:101FA600831603132308DA002208D9002108D80073
:101FB6002008D7000130E1070318E20A0030E207E3
:101FC6000130DF070318E00A0030E0076008803AB6
:101FD600DC0080305C02031DF22F63085F02031CE5
:101FE600F52FF62F8A2F8316031361085B07DC0093
:0A1FF6005C088400831780010800D6
:102A8C0064008001840A0406031900340406472DEF
:102A9C00700883120313D0007108D100D201D30146
:102AAC000800831203133C08D0003D08D100D2016A
:102ABC00D3010800F100831203130C1E662D672D41
:102ACC00612DEF30F00070088C057108990008003A
:102ADC0083120313BD000C1E742D752D712DEF3058
:102AEC00BC003C088C053D08990008000F3083128F
:102AFC000313BC003C08831603138804F0308312C4
:102B0C000313BC003C088316031386050800A03091
:102B1C0083120313BC003C088B040630831603138A
:102B2C00810083308312031381000030831603135A
:102B3C00EB000030EA000030E9000030E80008004B
:102B4C0083120313BD006400831603178C18AF2D7A
:102B5C00B22D83120313A92D831203133D08831284
:102B6C0003178D003F3083120313BC003C088316FF
:102B7C0003178C050C14831203170C08080083121E
:102B8C000313B101B2012D1CCC2DCD2DD32D2F084B
:102B9C00B1070318B20A3008B20701300310AF0DA9
:102BAC00B00DFF3E031DD42D01300310AE0CAD0C47
:102BBC00FF3E031DDB2D2D082E04031DE62DE72DF6
:102BCC00C92D3208AE003108AD000800831603137E
:102BDC00BD01BE01391CF32DF42DFA2D3B08BD07A8
:102BEC000318BE0A3C08BE0701300310BB0DBC0D18
:102BFC00FF3E031DFB2D01300310BA0CB90CFF3E38
:102C0C00031D022E39083A04031D0D2E0E2EF02D35
:102C1C003E08BA003D08B900080083120313BD003A
:102C2C008316031388018910091183120313891465
:102C3C003D0888003C0C031C0911031809151430BD
:102C4C0083160313A1007930A000A00B2B2EA10B2F
:102C5C002B2E831203138910143083160313A10037
:102C6C007930A000A00B382EA10B382E8312031341
:102C7C008914080083160313A301A4014B2E013001
:102C8C00A3070318A40A0030A40723088312031314
:102C9C003C0783160313A100831203133D0883160C
:102CAC000313A0000318A00AA31F5D2EA003831614
:102CBC0003132008A200210884008317221C83130D
:102CCC000008031D6A2E6B2E452E24088312031355
:102CDC00BD0083160313230883120313BC000800E2
:102CEC0083160313A000831603178C187E2E7F2ED9
:102CFC00792E831603132008831203178D00831279
:102D0C0003133C08831203178C003F308312031308
:102D1C00BD003D08831603178C05831203130310A3
:102D2C008B1F992E9A2E9B2E03148B13831603172D
:102D3C000C1555308D00AA308D008C140C1183129B
:102D4C000313031CAA2EAB2EAC2E8B170800831674
:102D5C000313C3000130C6000030C700C401C50115
:102D6C00D52E831603134308C100C2014108B900D4
:102D7C004208BA004708BC004608BB000A168A1174
:102D8C00EC250A168A11831603133A08C700390872
:102D9C00C6000130C4070318C50A0030C507450832
:102DAC00803AC10080304102031DDE2E3F084402F0
:102DBC00031CE12EE22EB72E831603134708C00026
:102DCC004608BF000800BF3083160313DB005B0806
:102DDC00870587172430DB005B08980483120313E4
:102DEC0098171816831603135708DB005808DC00D5
:102DFC005908DD005A08DE0006300310DB0DDC0D2F
:102E0C00DD0DDE0DFF3E031D032F5E08CB005D08BC
:102E1C00CA005C08C9005B08C8000130CF00313023
:102E2C00CE002D30CD000030CC000A128A15892638
:102E3C000A168A11831603134808FF3E99008B1754
:102E4C000B178C1608000030FC000030FB00003023
:102E5C00FA000030F900701C342F352F4C2F7408F9
:102E6C00F907750803110318013E03193E2FFA07E1
:102E7C00760803110318013E0319452FFB07770849
:102E8C0003110318013E03194C2FFC070130F80005
:102E9C000310F40DF50DF60DF70DF80B4E2F013058
:102EAC000310F30CF20CF10CF00CFF3E031D562F2B
:102EBC007308720471047004031D652F662F312F83
:102ECC007C08F3007B08F2007A08F1007908F00026
:102EDC000800831203135308F3005208F200510840
:102EEC00F1005008F0004130F700C630F6004E30CB
:102EFC00F5006D30F4000A168A1129270A168A117A
:102F0C00730883120313D3007208D2007108D10026
:102F1C007008D0003930D007303003183130D10769
:102F2C00003003180130D207003003180130D307EA
:102F3C005008A2005108A3005208A4005308A50091
:102F4C001030A600250DA50CA40CA30CA20CA60BEE
:102F5C00A82FFF302205A0007F302305A100080018
:102F6C0083160313B7003108A5003208A6003708F2
:102F7C000A128A15F4240A168A11831603132608DA
:102F8C00B6002508B500203033060319CE2FCF2FFD
:102F9C00DE2F35083707B400340884003308831754
:102FAC0080000130B5070318B60A0030B607F92FB8
:102FBC0035083707B400340884000D3083178000BF
:102FCC000130B5070318B60A0030B60735083707C5
:102FDC00B400340884000A3080000130B5070318AF
:102FEC00B60A0030B60735083707B4003408840039
:042FFC008001080048
:08400000FF3FFF3FFF3FFF3FC0
:02400E00F23F7F
:00000001FF
