:060000000A128A1110280B
:10000800FE00030E83120313B9000408BA000A089D
:10001800BB000A128A15352E0A128A111328831674
:1000280003130A128A11FD270A128A11ED000A1217
:100038008A11FE270A128A11EE000A128A11FF2776
:100048000A128A11EF00831203130A128A11F92780
:100058000A128A11D4000A128A11FA270A128A117E
:10006800D5000A128A11FB270A128A11D6000A1231
:100078008A11FC270A128A11D7008317903084004E
:10008800C5300A168A1138260A128A1110308400DF
:1000980042300A168A1138260A128A118313E2306E
:1000A8008400ED300A168A1138260A128A113C306B
:1000B800840054300A168A1138260A128A118301DC
:1000C8000A128A1167280A128A15B7240A128A1195
:1000D800831203134A080319722873288A2883167F
:1000E8000313A00101300A168A111A270A128A116D
:1000F800AC3083160313A4008030A5000A128A15B9
:100108003B210A128A1183120313CA0149080319F1
:100118008E288F28BA2883160313A00101300A16E7
:100128008A111A270A128A11C13083160313A400F0
:100138008030A5000A128A153B210A128A118316FB
:100148000313A001C0300A168A111A270A128A114D
:10015800B73083160313A4008030A5000A128A154D
:100168003B210A128A1183120313C9014808031993
:10017800BE28BF28E62883160313A00101300A16FB
:100188008A111A270A128A11A03083160313A400B1
:100198008030A5000A128A153B210A128A11003004
:1001A80083120313C3000030C2000030C1000030C6
:1001B800C0000030BF000030BE000330BD00E83092
:1001C800BC00C8010A128A11BB230A128A118312C1
:1001D80003134708831603136506031DF9288312C2
:1001E800031346088316031364060319FC28FD2825
:1001F80028296E080319012902292829A00101309C
:100208000A168A111A270A128A113830831603131C
:10021800A4008030A5000A128A153B210A128A110F
:1002280083160313A001C0300A168A111A270A126E
:100238008A11503083160313A4000030A5000A1257
:100248008A153B210A128A11831603136508831243
:100258000313C70083160313640883120313C6002D
:100268004508831603136306031D402983120313ED
:1002780044088316031362060319432944299D2958
:10028800A00101300A168A111A270A128A11831648
:1002980003136208D9006308DA000030DA1BFF3064
:1002A800DB00DC00D030DD000130DE000A128A11EC
:1002B800BA250A128A11D03083160313A40001301C
:1002C800A5000A128A153B210A128A1130308316BA
:1002D8000317B2002F30B300B40150308316031354
:1002E800B3000030B4002F30B500B2300A128A15BE
:1002F800F1200A128A11303083160317B8002F3004
:10030800B900BA01D03083160313B3000130B4002A
:100318002030B500B2300A128A15F1200A128A116B
:1003280083160313C101B2300A128A152F250A1247
:100338008A1183160313630883120313C5008316F7
:100348000313620883120313C4004D080319AD296F
:10035800AE29852A10300A128A15C8260A128A116F
:100368003130831603136906031DBB29BC293F2AB4
:100378005030A7000030A800C1300A128A15912118
:100388000A128A11003A0319CA29CB293F2A3030A8
:10039800831603136806031DD229D3293F2A303058
:1003A80083160317B2002F30B300B4015030831600
:1003B8000313B3000030B4002F30B500B2300A1276
:1003C8008A15F1200A128A11D13083160313B3005B
:1003D8008030B4002030B500B2300A128A15F120FE
:1003E8000A128A1183160313C101C10AB2300A1214
:1003F8008A152F250A128A1183160313E601E60AC5
:10040800E201E30183120313C401C501033083161B
:100418000313ED00A00101300A168A111A270A12E7
:100428008A11263083160313A4008030A5000A120F
:100438008A153B210A128A1183160313A001C030C2
:100448000A168A111A270A128A118730831603138B
:10045800A4008030A5000A128A153B210A128A11CD
:1004680083160313A001A00A6D08303E0A168A11EC
:100478001A270A128A113130831603136906031DDD
:10048800462A472A812A5030A7000030A800C130E8
:100498000A128A1591210A128A11003A0319552A5B
:1004A800562A812A3230831603136806031D5D2AF3
:1004B8005E2A812A620863040319632A642A6F2A60
:1004C800003083120313BF000030BE000030BD00AF
:1004D8000030BC00812A003083120313C3000030AF
:1004E800C2000030C1000030C0000030BF00003042
:1004F800BE000330BD00E830BC0083120313CD01F9
:10050800CF014C080319892A8A2AD92A831603138A
:10051800A00101300A168A111A270A128A1194308A
:1005280083160313A4008030A5000A128A153B2104
:100538000A128A1183120313CE0183160313E701EB
:1005480083120313CC0183160313E6010330ED0075
:10055800303083160317B2002F30B300B401503087
:1005680083160313B3000030B4002F30B500B23047
:100578000A128A15F1200A128A11CD308316031344
:10058800B3008030B4002030B500B2300A128A15AA
:10059800F1200A128A1183160313C101B2300A121C
:1005A8008A152F250A128A117A2B831603136D08D0
:1005B8000319DF2AE02A2A2B03306D020318E52AE3
:1005C800E62A2A2B831203134B080319EC2AED2A77
:1005D8002A2B83160313A00101300A168A111A2741
:1005E8000A128A11783083160313A4008030A500FC
:1005F8000A128A153B210A128A1183160313A001D5
:10060800C0300A168A111A270A128A1187308316EF
:100618000313A4008030A5000A128A153B210A1290
:100628008A1183160313A001A00A6D08303E0A162A
:100638008A111A270A128A1183120313CE0183160C
:100648000313E70183120313CB017A2B83160313D9
:100658006D08031D302B312B7A2BA00101300A16AF
:100668008A111A270A128A11593083160313A40013
:100678008030A5000A128A153B210A128A1103301C
:1006880083160313ED0083120313CE01831603139D
:10069800E701E601303083160317B2002F30B300AC
:1006A800B401503083160313B3000030B4002F3068
:1006B800B500B2300A128A15F1200A128A11C9301F
:1006C80083160313B3008030B4002030B500B23075
:1006D8000A128A15F1200A128A1183160313C1011E
:1006E800B2300A128A152F250A128A1183160313AB
:1006F8006708831203134E060319832B842BB12B2F
:1007080083160313660803198A2B8B2BB12BA001C0
:1007180001300A168A111A270A128A111430831610
:100728000313A4008030A5000A128A153B210A127F
:100738008A1183160313A001C0300A168A111A27DA
:100748000A128A11903083160313A4000130A50001
:100758000A128A153B210A128A11831603136708A5
:1007680083120313CE006C280A128A1110280F3046
:1007780083160313C10041088804EC010730C10047
:100788004108831203138604831603136C08113E71
:1007980084000A128A110A270A128A11C100410824
:1007A80083120313860583160313EB016B080D3EB2
:1007B80084000A128A110A270A128A118312031363
:1007C8000805031DE82BE92B142C2130831603138D
:1007D800C2007530C100C10BEF2BC20BEF2BF42BFD
:1007E800831603136B080D3E84000A128A110A2728
:1007F8000A128A11831203130805031D042C052C01
:10080800142C831603136C08C10002300310C10DA9
:10081800FF3E031D0A2C6B084107EF00EA01EA0AB4
:10082800013083160313C1004108EB0704306B0243
:10083800031C1F2C202CDA2B6A080319242C252CC6
:10084800AF2DEA0108306F06031D2B2C2C2C212D0F
:100858006E080319302C312CBB2C6508803AFF0038
:1008680080307F02031D3A2C0330640203183D2CAC
:100878003E2C442C50300A128A159E220A128A11E4
:1008880083120313500883160313C100C2014108E1
:10089800BB004208BC006430BD000030BE000A1630
:1008A8008A119D260A128A11831603133B08C30076
:1008B8003C08C40083120313510883160313C500B0
:1008C800C6014508BB004608BC000A30BD00003020
:1008D800BE000A168A119D260A128A11831603136E
:1008E8003B084307C7003C0803183C0A4407C800F4
:1008F800831203135208831603134707C9000030F5
:10090800031801304807CA004908303ECB004A089E
:100918000318013EEB3ECC004C08803AFF008030C3
:100928007F02031D992CFB304B0203189C2C9D2C35
:10093800AF2C831603134B08A00000300A168A1147
:100948004D270A128A1183120313C801C80A831695
:100958000313EE019B2D83120313C901C90AD001A9
:10096800C601C70183160313E401E5019B2D660840
:10097800031DBF2CC02CFA2C003083120313BF00B8
:100988000030BE000030BD000030BC0041088316B6
:100998000313A10083120313400883160313A00056
:1009A8000A128A150D200A128A112730831603139A
:1009B800B4002330B5000A128A15D2230A128A110C
:1009C800831603132E08B7002D08B6000A128A15DD
:1009D80043220A128A11831603133408E83EE20000
:1009E80035080318013E033EE3009B2D66080319F2
:1009F800FE2CFF2C132D9030A7000130A800A13049
:100A08000A128A1591210A128A11003A03190D2D2A
:100A18000E2D132D83120313CC01CC0A9B2D8316A4
:100A2800031366080319192D1A2D9B2D0130ED02A9
:100A380083120313CB01CB0A9B2D6F08031D252DB1
:100A4800262D582D660803192A2D2B2D382D6708B9
:100A580003192F2D302D382D0130E7026708903EFD
:100A68008400831780019B2D6E0803193C2D3D2DB2
:100A78009B2D6508803AFF0080307F02031D462DBC
:100A880001306402031C492D4A2D9B2DFF3083162B
:100A98000313E4070318E50AFF30E5076408503E2E
:100AA8008400831380019B2D660803195C2D5D2D3E
:100AB800712D6F08013E84000A128A110A270A1252
:100AC8008A11C1006708903E84004108831780009E
:100AD8000130C1004108E707322D6E080319752D52
:100AE800762D9B2D6508803AFF0080307F02031D1C
:100AF8007F2D033064020318822D832D9B2D8316CE
:100B080003136F08013E84000A128A110A270A1289
:100B18008A11C1006408503E840041088313800094
:100B28000130E4070318E50A0030E507522D0F30BD
:100B380083160313C10041088312031388040F307E
:100B48008312080583160313C1000F304106031DE5
:100B5800AE2DAF2DA32D0130C1004108EC070330A5
:100B68006C02031CB82DB92DC22B0800831603177D
:100B7800C901CA01C701C80183160313DC1FC52DAB
:100B8800C62DF42D013083160317C9000030CA00A2
:100B9800831603135D08840083175E1C83132D30AE
:100BA8008000FF30A300FF30A200FF30A100FF301B
:100BB800A0005C08A7005B08A6005A08A500590811
:100BC800A4000A128A15A9200A128A11831603138F
:100BD8002308DC002208DB002108DA002008D900FD
:100BE80083160317CB01CB0AFF2D0130DF005F0806
:100BF80083160317CB074B0883160313C1000A306B
:100C08000A168A1184270A128A11831603134108C7
:100C1800CA004208CB000030CB1BFF30CC00CD000F
:100C28005C08D1005B08D0005A08CF005908CE00F4
:100C38000A128A1563270A128A11831603134D08AC
:100C48004C044B044A04031D2A2E2B2EF92DB82ED2
:100C58008316031747084B02FF3E83160313C10090
:100C68000A300A168A1184270A128A118316031376
:100C7800420883160317C600831603134108831618
:100C88000317C5004908831603135D07E0005E08D3
:100C9800DF000318DF0A83160317C91F562E8316B1
:100CA8000313DF03831603135F08E1006008840061
:100CB8008317611C831383160317450883160313D0
:100CC800CA0083160317460883160313CB000030A7
:100CD800CB1BFF30CC00CD005C08D1005B08D000F6
:100CE8005A08CF005908CE000A128A1563270A123B
:100CF8008A11831603134A08303E800083160317AF
:100D0800450883160313A0008316031746088316A5
:100D18000313A1000030A11BFF30A200A3005C0850
:100D2800A7005B08A6005A08A5005908A4000A12E3
:100D38008A15AE250A128A11831603132308DC00CC
:100D48002208DB002108DA002008D90001308316C8
:100D58000317C9070318CA0A0030CA070130C707B2
:100D68000318C80A0030C807831603174808803AD2
:100D780083160313DF0080305F02031DC72E83161E
:100D880003174B084702031CCA2ECB2E2C2E8316A2
:100D980003174908831603135D07E0005E08DF00A8
:100DA8000318DF0A83160317C91FDD2E83160313E2
:100DB800DF03831603135F08E100600884008317CC
:100DC800611C831380010800A03083160313A00060
:100DD80020088B04063081008330831203138100BE
:100DE8000030C3000030C2000030C1000030C00035
:020DF8000800F1
:100E0000FF1B0A2F83137F1883170008840A031916
:100E1000FF0A080007308A000408840A82070034A9
:100E20002A3437343434313430343834353432348D
:100E3000233439343634333401340234043408343E
:100E4000FE34FD34FB3423343D3463346F346E346C
:100E500066342E3420342A343D34633461346E34A5
:100E600063342E3400340034003449346E34733427
:100E700065347234693473346334693420346334D0
:100E80006F3464346934633465340034003423349B
:100E90003D3463346F346E3466342E3420342A3457
:100EA0003D34633461346E3463342E3400340034A2
:100EB00049346E347334653472342E3420344934FA
:100EC000443420345034493443343A340034003408
:100ED000543465346E3474342E34203465347334B1
:100EE00061347534723469347434693400340034D4
:100EF0004D3449344E343D3430342C344D34413447
:100F000058343D34323435343034003400344334D2
:100F10006F34643469346334653420346534723436
:100F20007234613474346F340034003454346534B2
:100F30006E347434613474346934763469343A34D8
:100F4000203400340034423465346E3476346534F1
:100F50006E34753474346F342134003400344934C1
:100F600044342034533461346C3476346134743412
:100F70006F34003400345034723465346D34693465
:100F800020342734233427340034003449344434A3
:100F900020343E342034323435343034003400349C
:100FA0004534523452344F345234453400340034D2
:100FB00031342F343034003431342F343134003470
:100FC0003234003483160313A10083120C1EE92F60
:100FD000EA2FE52FEF3083160313A00020088312B9
:100FE00003138C058316031321088312031399003E
:100FF0000800013400340034003403340134633415
:101004000F3083160313A00020088804F030A000DA
:10101400200886050800831603132008831203138F
:10102400D40083160313210883120313D500D601B9
:10103400D70108000030FC000030FB000030FA004B
:101044000030F900701C272828283F287408F90765
:10105400750803110318013E03193128FA077608AD
:1010640003110318013E03193828FB0777080311FD
:101074000318013E03193F28FC070130F800031050
:10108400F40DF50DF60DF70DF80B412801300310A2
:10109400F30CF20CF10CF00CFF3E031D492873080D
:1010A400720471047004031D5828592824287C08EC
:1010B400F3007B08F2007A08F1007908F0000800D8
:1010C400831203135708F3005608F2005508F10081
:1010D4005408F0004130F700C630F6004E30F500F9
:1010E4006D30F4000A128A151C200A128A1573083E
:1010F40083120313D7007208D6007108D500700854
:10110400D4003930D407303003183130D5070030DB
:1011140003180130D607003003180130D7075408EC
:10112400A2005508A3005608A4005708A5001030D3
:10113400A600250DA50CA40CA30CA20CA60B9B28A1
:10114400FF302205A0007F302305A10008000030F5
:1011540083160313AC000030AB000030AA0000304B
:10116400A900201CB628B728CE282408A9072508DA
:1011740003110318013E0319C028AA072608031106
:101184000318013E0319C728AB07270803110318E6
:10119400013E0319CE28AC070130A8000310A40DAA
:1011A400A50DA60DA70DA80BD02801300310A30C84
:1011B400A20CA10CA00CFF3E031DD8282308220476
:1011C40021042004031DE728E828B3282C08A300E1
:1011D4002B08A2002A08A1002908A00008008316F1
:1011E4000313B9003308A7003408A80039080A1209
:1011F4008A1543240A128A15831603132808B80093
:101204002708B70020303506031909290A291929A6
:1012140037083907B600360884003508831780007C
:101224000130B7070318B80A0030B8073429370863
:101234003907B600360884000D308317800001306A
:10124400B7070318B80A0030B80737083907B600DB
:10125400360884000A3080000130B7070318B80A42
:101264000030B80737083907B60036088400800113
:10127400080083160313A901AA016E298316031318
:10128400A001A00A29082407A7002508A60003181E
:10129400A60AA91F4E29A603831603132608A8002D
:1012A400280883120313FF008316031327088400FE
:1012B400831203130A128A1100270A128A150A16C6
:1012C4008A111A270A128A15013083160313A907F3
:1012D4000318AA0A0030AA0729082407A70025082A
:1012E400A6000318A60AA91F7829A60383160313C8
:1012F4002608A800280883120313FF00831603138B
:1013040027088400831203130A128A1100270A1281
:101314008A15003A031D8F29902940290800831655
:101324000313AE002E08A0000130A1000A168A1192
:10133400C4260A128A15831603132008A90021085B
:10134400AA002708A0002808A1000A168A11C426AA
:101354000A128A158316031321082A06031DB429C9
:10136400200829060319B729B829BA290030E72922
:10137400AD01DB292D082707A90028080318013E21
:10138400AA002908840083172A1C83130008AB00D1
:101394002D082E07AC002C088400831700082B06A8
:1013A4000319D529D629D729B8290130A900290834
:1013B400AD072D082E07A90029088400831700080B
:1013C400031DE529E629BC29013008008312031313
:1013D400AC01AA1FEE29EF29F629A909AA09A90A2D
:1013E4000319AA0AAC01AC0AA81FF929FA29FF2992
:1013F400A709A809A70A0319A80A27082804031992
:10140400042A052A342AAB01AB0A132A013003103B
:10141400A70DA80DFF3E031D092A0130FD007D081C
:10142400AB07A81F162A172A082A28082A02031D10
:101434001D2A27082902031C202A212A272A2708D3
:10144400A9022808031CAA03AA0201300310A80C4D
:10145400A70CFF3E031D282A0130AB02031D332ACB
:10146400342A172A2C080319382A392A3E2AA909AA
:10147400AA09A90A0319AA0A2A08A8002908A70080
:10148400080083160313BA01B71F492A4A2A512AAE
:10149400B609B709B60A0319B70ABA01BA0AB51FD9
:1014A400542A552A5A2AB409B509B40A0319B50AA3
:1014B4003408350403195F2A602A8F2AB901B90A4E
:1014C4006E2A01300310B40DB50DFF3E031D642ACE
:1014D4000130B8003808B907B51F712A722A632A87
:1014E40035083702031D782A34083602031C7B2A88
:1014F4007C2A822A3408B6023508031CB703B702D3
:1015040001300310B50CB40CFF3E031D832A0130D7
:10151400B902031D8E2A8F2A722A3A080319932AC4
:10152400942A992AB609B709B60A0319B70A3708DB
:10153400B5003608B400080083160313AA002A086D
:10154400A0000030A1000A168A11C4260A128A15C6
:10155400831603132108A9002008A8002908803A4B
:10156400FF0080307F02031DB92A033028020318CC
:10157400BC2ABD2AFB2AEC2A2A08033E84008313D2
:1015840080012A0884000008A7002A08023E84007B
:10159400270880002A0A8400303080002A0884004A
:1015A40030308000FB2A2A08033E84008313800124
:1015B4002A0A84000008A7002A08023E840027089B
:1015C40080002A0884000008A7002A0A840027084B
:1015D4008000D02A831603132908003A0319F32A3A
:1015E400FB2A2808013A0319BE2A033A0319D52A0B
:1015F400FB2A080083120313091189108230831611
:101604000313A500DD30A400A40B062BA50B062BA9
:1016140083120313891483160313A00138300A16A6
:101624008A111A270A128A15213083160313A5007A
:101634007530A400A40B1C2BA50B1C2B212B83168B
:101644000313A00138300A168A111A270A128A15C0
:10165400073083160313A5007C30A400A40B302BA1
:10166400A50B302B000083160313A00138300A1693
:101674008A111A270A128A1583160313A001083047
:101684000A168A111A270A128A1583160313A0014F
:101694000F300A168A111A270A128A1583160313A1
:1016A400A00101300A168A111A270A128A15831614
:1016B4000313A0010C300A168A111A270A128A157C
:1016C400080083120313B500B601B7017C2B36085A
:1016D4003507B4003408840000080A168A11492624
:1016E4000A128A15013083120313B6070318B70AC6
:1016F4000030B70736083507B40034088400831770
:101704000008031D862B872B692B3308031D8B2BA5
:101714008C2BD12B4108F1004008F0000A168A11E5
:1017240040260A128A15003083120313C3000030C6
:10173400C2000030C1000030C0000A30A7000030F1
:10174400A8000A128A1562200A128A15831203134A
:101754002108AA002008A9000A128A15E8210A1201
:101764008A15831203132708053EAD0028080318C1
:10177400013E003EAE00FA30AF000030B0000A1661
:101784008A1176260A128A15831203132D08BC00C7
:101794002E08BD000030BD1BFF30BE00BF00080096
:1017A40083120313570883160313A300831203132E
:1017B400560883160313A2008312031355088316D5
:1017C4000313A10083120313540883160313A00008
:1017D4004130A700C630A6004E30A5006D30A400ED
:1017E4000A128A15A9200A128A15831603132308DC
:1017F40083120313D70083160313220883120313DF
:10180400D60083160313210883120313D50083160D
:101814000313200883120313D4003930D407303063
:1018240003183130D507003003180130D6070030D3
:1018340003180130D707540883160313AF0083122B
:101844000313550883160313B000831203135608B9
:1018540083160313B100831203135708831603136B
:10186400B2001030B300320DB20CB10CB00CAF0C9E
:10187400B30B352CFF302F05AD007F303005AE00A3
:10188400080083160313AE00AF01B0012E08A000B8
:101894000130A1000A168A11C4260A128A15831679
:1018A40003132108B2002008B1008E2C8316031301
:1018B4002F082707AA002808A9000318A90AAF1FA0
:1018C400642CA903831603132908AB002B08831285
:1018D4000313FF00831603132A08840083120313DF
:1018E4000A128A1100270A128A1583160313AC0000
:1018F40031082E07AD002D0884002C0883178000C2
:101904000130AF070318B00A0030B0070130B10747
:101914000318B20A0030B2072F082707AA002808C4
:10192400A9000318A90AAF1F982CA903831603134F
:101934002908AB002B0883120313FF00831603133B
:101944002A088400831203130A128A1100270A1238
:101954008A15003A031DAF2CB02C582C83160313A0
:101964003208A8003108A7000800003083160313CA
:10197400DC000130DB00C230DA000030D9000A1686
:101984008A11C0270A128A150A128A15FC220A1221
:101994008A150A128A1502200A128A150A128A1155
:1019A400E8260A128A1500300A168A1157260A12E6
:1019B4008A1583160317CC00CD014C08CE004D08C0
:1019C400CF004E0A4F04031DE82CE92C092D4930A1
:1019D40083160313A4008030A5000A128A153B2144
:1019E4000A128A1583160313A001C0300A168A113D
:1019F4001A270A128A15693083160313A40080304B
:101A0400A5000A128A153B210A128A152E2D4E08AA
:101A140083160313D900831603174F088316031381
:101A2400DA000030DA1BFF30DB00DC005030DD0070
:101A34000030DE000A128A11BA250A128A155030C3
:101A44000A128A159E220A128A1583160313EE01BE
:101A540083120313CA01CA0A080083160313C500BC
:101A6400C301C401482D43084507C200420884004D
:101A740000080A128A11E2270A128A150130831615
:101A84000313C3070318C40A0030C40743084507F7
:101A9400C2004208840083170008031D522D532DF1
:101AA400352D4108031D572D582DAD2D83120313D9
:101AB400410883160313A1008312031340088316FD
:101AC4000313A0000A128A150D200A128A15003089
:101AD40083120313C3000030C2000030C100003081
:101AE400C0000A3083160313B4000030B5000A1294
:101AF4008A15D2230A128A15831603132E08B700F7
:101B04002D08B6000A128A1543220A128A15831672
:101B140003133408053EBB0035080318013E003E9C
:101B2400BC00FA30BD000030BE000A168A119D26A2
:101B34000A128A15831603133B0883120313BC008D
:101B4400831603133C0883120313BD000030BD1B2E
:101B5400FF30BE00BF00080083160313AA01A71FAD
:101B6400B42DB52DC22DA409A509A609A709A40A57
:101B74000319A50A0319A60A0319A70AAA01AA0A9E
:101B8400A31FC52DC62DD12DA009A109A209A30902
:101B9400A00A0319A10A0319A20A0319A30A230814
:101BA4002204210420040319D82DD92D1C2EA901A7
:101BB400A90AE92D0130A8000310A00DA10DA20D62
:101BC400A30DA80BDE2D0130A8002808A907A31F28
:101BD400EC2DED2DDC2D23082702031DFB2D2208FF
:101BE4002602031DFB2D21082502031DFB2D2008C1
:101BF4002402031CFE2DFF2D0D2E2008A402210813
:101C0400031C210FA5022208031C220FA60223088D
:101C1400031C230FA70201300310A30CA20CA10C78
:101C2400A00CFF3E031D0E2E0130A902031D1B2E26
:101C34001C2EED2D2A080319202E212E2C2EA4094A
:101C4400A509A609A709A40A0319A50A0319A60A3E
:101C54000319A70A2708A3002608A2002508A10043
:101C64002408A00008008C1E382E392E4A2E4F0856
:101C7400103E84001A08831780000130B800380829
:101C8400CF074F08103E84008001CD01CD0A8C128D
:101C94000B1D4D2E4E2EBD2E833081000130C0070A
:101CA400003003180130C107003003180130C207A7
:101CB400003003180130C3073F083E043D043C04D0
:101CC4000319652E662EBC2E43083F02031D742E95
:101CD40042083E02031D742E41083D02031D742E6A
:101CE40040083C020318772E782EBC2EE8303C06C0
:101CF400033003193D063E043F04031D822E832E48
:101D0400902E83120313CA01CA0A0030BF000030A8
:101D1400BE000030BD000030BC00BC2E831603138F
:101D2400620863040319972E982EA32E00308312A1
:101D34000313BF000030BE000030BD000030BC0003
:101D4400B52E003083120313BF000030BE000330F1
:101D5400BD00E830BC000030C3000030C2000030D9
:101D6400C1000030C000B301B2300A128A156323E7
:101D74000A128A150B11831203133B088A003A08CE
:101D84008400390E8300FE0E7E0E090083160313B1
:101D9400B500B301B401B101B2013508A0000130AE
:101DA400A1000A168A11C4260A128A15831603137F
:101DB4002108AB002008AA00B601B7014C2F8316F6
:101DC400031336083507A700270884002F3083172C
:101DD40000060319EE2EEF2E292F36083507A7002B
:101DE4002708840000080319F82EF92E292F360835
:101DF4003507A700270884000008A8003308AC3E74
:101E040084002808831380000130B3070318B40A40
:101E14000030B4073308AC3E84008001462F2C0800
:101E2400E9003C2FAC30A000C1300A168A11EC2620
:101E34000A128A153C2F2C08E8003C2FAC30A00075
:101E4400A1300A168A11EC260A128A153C2F320890
:101E5400003A03192E2F3C2F3108003A0319112F91
:101E6400013A0319142F033A03191D2F013A0319D8
:101E7400202F3C2F013083160313B1070318B20A35
:101E84000030B207B301B4010130B6070318B70A32
:101E94000030B7072A08013EA7002B080318013EAB
:101EA400003EA8003708803AA9002808803A290291
:101EB400031D5E2F27083602031C612F622FE12EBB
:101EC400080083160313D401CD1F692F6A2F772FBF
:101ED400CA09CB09CC09CD09CA0A0319CB0A0319CB
:101EE400CC0A0319CD0AD401D40AD11F7A2F7B2F2F
:101EF4008A2FCE09CF09D009D109CE0A0319CF0AF6
:101F04000319D00A0319D10A0130D2005208D406A9
:101F14000030D8000030D7000030D6000030D500A3
:101F24004D084C044B044A040319992F9A2FE72FA8
:101F3400D301D30AAA2F0130D2000310CA0DCB0D4E
:101F4400CC0DCD0DD20B9F2F0130D2005208D307F8
:101F5400CD1FAD2FAE2F9D2F0130D2000310D50D14
:101F6400D60DD70DD80DD20BB02F4D085102031D3D
:101F7400C52F4C085002031DC52F4B084F02031DEB
:101F8400C52F4A084E02031CC82FC92FD82F4A0850
:101F9400CE024B08031C4B0FCF024C08031C4C0F02
:101FA400D0024D08031C4D0FD1025514013003100B
:101FB400CD0CCC0CCB0CCA0CFF3E031DD92F013029
:101FC400D302031DE62FE72FAE2F54080319EB2F7E
:101FD400EC2FF72FD509D609D709D809D50A031943
:101FE400D60A0319D70A0319D80A5808CD00570886
:0C1FF400CC005608CB005508CA000800BD
:102C700064008001840A0406031900340406392E16
:102C8000700883120313D4007108D500D601D70150
:102C90000800F100831203130C1E4F2E502E4A2EF3
:102CA000EF30F00070088C05710899000800831659
:102CB0000313A1006400831603178C18602E632E83
:102CC000831603135A2E8316031321088312031746
:102CD0008D003F3083160313A000200883160317CE
:102CE0008C050C14831203170C08080083120313BD
:102CF000B101B2012D1C7D2E7E2E842E2F08B1072E
:102D00000318B20A3008B20701300310AF0DB00D3E
:102D1000FF3E031D852E01300310AE0CAD0CFF3EAF
:102D2000031D8C2E2D082E04031D972E982E7A2E0F
:102D30003208AE003108AD00080083160313BF014E
:102D4000C0013B1CA42EA52EAB2E3D08BF070318C7
:102D5000C00A3E08C00701300310BD0DBE0DFF3E86
:102D6000031DAC2E01300310BC0CBB0CFF3E031D39
:102D7000B32E3B083C04031DBE2EBF2EA12E4008DF
:102D8000BC003F08BB00080083160313A501A60181
:102D9000CF2E0130A5070318A60A0030A607250884
:102DA0002007A3002108A2000318A20AA51FD92EFC
:102DB000A203831603132208A400230884008317A8
:102DC000241C83130008031DE62EE72EC92E2608B7
:102DD000A1002508A000080083160313A400A50184
:102DE000A601072F25082007A1002108840000085C
:102DF000A20025082407A3002308840022088317C3
:102E000080000130A5070318A60A0030A607250890
:102E10002007A1002108840083130008031D112F3F
:102E2000122FF22E25082407A10021088400831701
:102E30008001080083160313A3008801891009117B
:102E400083120313891483160313230883120313B5
:102E5000880083160313200C83120313031C09112B
:102E600003180915143083160313A2007930A1004A
:102E7000A10B382FA20B382F8312031389101430A3
:102E800083160313A2007930A100A10B452FA20BDA
:102E9000452F831203138914080083160313A2001D
:102EA000831603178C18552F562F502F8316031394
:102EB0002208831203178D00831603132008831240
:102EC00003178C003F3083160313A10021088316DB
:102ED00003178C058312031303108B1F702F712FA0
:102EE000722F03148B13831603170C1555308D00A6
:102EF000AA308D008C140C1183120313031C812F34
:102F0000822F832F8B17080083160313C50001300F
:102F1000C8000030C900C601C701AC2F83160313D7
:102F20004508C300C4014308BB004408BC0049086D
:102F3000BE004808BD000A168A119D260A168A118D
:102F4000831603133C08C9003B08C8000130C607BC
:102F50000318C70A0030C7074708803AC30080300B
:102F60004302031DB52F41084602031CB82FB92F99
:102F70008E2F831603134908C2004808C1000800B9
:102F8000BF3083160313DD005D08870587172430E3
:102F9000DD005D0898048312031398171816831632
:102FA00003135908DD005A08DE005B08DF005C08E7
:102FB000E00006300310DD0DDE0DDF0DE00DFF3EFD
:102FC000031DDA2F6008CD005F08CC005E08CB003F
:102FD0005D08CA000130D1003130D0002D30CF0063
:102FE0000030CE000A128A1563270A168A1183164A
:102FF00003134A08FF3E99008B170B178C16080025
:08400000FF3FFF3FFF3FFF3FC0
:02400E00F23F7F
:00000001FF
