:100000000A128A110E286334FE00030EF100040860
:10001000F2000A08F3000A128A15342F0A128A1114
:100020001128831603130A128A1563260A128A11ED
:10003000B200831203130A128A1564260A128A1167
:10004000E8000A128A1565260A128A11E9000A12C6
:100050008A1566260A128A11EA000A128A1567268C
:100060000A128A11EB000A128A1103200A128A115D
:10007000F9008313A0308400AB300A128A15682679
:100080000A128A112030840044300A128A15682628
:100090000A128A11F601F701F80183010A128A1186
:1000A00051280A128A15C3260A128A110A128A11C5
:1000B000B8220A128A118316031321082306031D8E
:1000C000632820082206031966286728B628F40149
:1000D00001300A128A1509270A128A11831603139E
:1000E000220883120313E0008316031323088312EC
:1000F0000313E1000030E11BFF30E200E300C230F7
:10010000E4000A128A11AE210A128A11C230831247
:100110000313C6000130C7000A128A1134270A12DD
:100120008A118316031790016D3083120313CE00DA
:100130008030CF002F30D00090300A128A11A126D3
:100140000A128A11C23083120313CE000130CF008D
:100150002030D00090300A128A11A1260A128A118A
:1001600090300A128A11DB240A128A1183160313B3
:100170002308A1002208A00027080319C028C128CD
:10018000F428F40101300A128A1509270A128A118B
:10019000253083120313C6008030C7000A128A116B
:1001A00034270A128A11F401C0300A128A1509276D
:1001B0000A128A11543083120313C6008030C7001C
:1001C0000A128A1134270A128A11F401F40A8316DA
:1001D00003133208303E0A128A1509270A128A11BF
:1001E00083160313A701AA0125080319F828F92883
:1001F0001429F40101300A128A1509270A128A11FA
:10020000613083120313C6008030C7000A128A11BE
:1002100034270A128A1183160313A801A901A50124
:10022000A6010330B20089293208031918291929B7
:1002300059290330320203181E291F29592924087D
:100240000319232924295929F40101300A128A1596
:1002500009270A128A11453083120313C600803021
:10026000C7000A128A1134270A128A11F401C03019
:100270000A128A1509270A128A11543083120313AD
:10028000C6008030C7000A128A1134270A128A1168
:10029000F401F40A831603133208303E0A128A1559
:1002A00009270A128A1183160313A801A901A401C0
:1002B00089293208031D5D295E298929F40101304D
:1002C0000A128A1509270A128A113530831203137C
:1002D000C6008030C7000A128A1134270A128A1118
:1002E000F401C0300A128A1509270A128A11143043
:1002F00083120313C6008030C7000A128A11342704
:100300000A128A11033083160313B200A801A9014F
:10031000A6012908280603198E298F29A62926084F
:10032000031993299429A629F40101300A128A1588
:1003300009270A128A11243083120313C6000030E1
:10034000C7000A128A1134270A128A11831603136E
:100350002908A80056280A128A110E2883160313AA
:10036000AF01B001AD01AE0183120313E31FB92940
:10037000BA29E629013083160313AF000030B0001C
:1003800083120313640884002D3083178000FF302C
:10039000C700FF30C600FF30C500FF30C40063084F
:1003A000CB006208CA006108C9006008C8000A12D0
:1003B0008A117C270A128A11831203134708E3006B
:1003C0004608E2004508E1004408E00083160313F4
:1003D000B101B10AF1290130E50065088316031364
:1003E000B107310883120313C8000A300A128A11B8
:1003F000C4270A128A11831203134808D10049083E
:10040000D2000030D21BFF30D300D4006308D800E4
:100410006208D7006108D6006008D5000A128A1168
:10042000B7230A128A118312031354085304520487
:100430005104031D1C2A1D2AEB29992A8316031334
:100440002D083102FF3E83120313C8000A300A123E
:100450008A11C4270A128A118312031349088316CA
:100460000313AC0083120313480883160313AB0075
:100470002F08831203136407E500650884008316C0
:1004800003132B0883120313D100831603132C08C4
:1004900083120313D2000030D21BFF30D300D400EC
:1004A0006308D8006208D7006108D6006008D5004C
:1004B0000A128A11B7230A128A11831203135108F0
:1004C000303E83178000831603132B088312031317
:1004D000C400831603132C0883120313C5000030D5
:1004E000C51BFF30C600C7006308CB006208CA0006
:1004F0006108C9006008C8000A128A1154240A124F
:100500008A11831203134708E3004608E2004508F6
:10051000E1004408E000013083160313AF0703181D
:10052000B00A0030B0070130AD070318AE0A003042
:10053000AE07831603132E08803A83120313E500D7
:1005400080306502031DA82A8316031331082D028B
:10055000031CAB2AAC2A1E2A831603132F0883120E
:1005600003136407E5006508840083178001080011
:100570000F3083120313DD005D0883160313880414
:10058000F80107308312DD005D0886047808113E0B
:1005900084000A128A110A250A128A11DD005D08F8
:1005A0008605F70177080D3E84000A128A110A2594
:1005B0000A128A110805031DDE2ADF2A062B2130C4
:1005C00083120313DE007530DD00DD0BE52ADE0B40
:1005D000E52AEA2A77080D3E84000A128A110A25C4
:1005E0000A128A11831203130805031DF82AF92A37
:1005F000062B7808DD0002300310DD0DFF3E031DE1
:10060000FC2A77085D07F900F601F60A0130DD00E3
:100610005D08F70704307702031C0F2B102BD22A3A
:1006200076080319142B152BAC2BF601083079062C
:10063000031D1B2B1C2B732B831603132608031D72
:10064000222B232B582B831203130108DD00DE011C
:100650005D08F4005E08F5000A128A1570260A1279
:100660008A11273083120313D7002330D8000A12CF
:100670008A15B9270A128A11831203135108DA0066
:100680005008D9000A128A11ED250A128A11831224
:1006900003135708E83E83160313A20083120313C3
:1006A00058080318013E033E83160313A3009E2B34
:1006B000243083120313CA0034300A128A11EB2645
:1006C0000A128A11003A0319662B672B6C2B8316CA
:1006D0000313A501A50A9E2B013083160313B20252
:1006E000A401A40A9E2B79080319772B782B9E2B43
:1006F00083160313260803197E2B7F2B9E2B790864
:10070000013E84000A128A110A250A128A118312F4
:100710000313DD00831603132908243E840083128B
:1007200003135D08831380000130DD005D0883162C
:100730000313A9072908243E840080010F30831287
:10074000DD005D0888040F300805DD000F305D0610
:10075000031DAB2BAC2BA32B0130DD005D08F8078C
:1007600003307802031CB52BB62BC12A0800831274
:100770000313DB01D41FBD2BBE2BCB2BD109D20918
:10078000D309D409D10A0319D20A0319D30A0319C8
:10079000D40ADB01DB0AD81FCE2BCF2BDE2BD509E9
:1007A000D609D709D809D50A0319D60A0319D70AD1
:1007B0000319D80A0130D9005908DB060030DF00E0
:1007C0000030DE000030DD000030DC00540853044F
:1007D000520451040319ED2BEE2B3B2CDA01DA0AFB
:1007E000FE2B0130D9000310D10DD20DD30DD40D45
:1007F000D90BF32B0130D9005908DA07D41F012C8B
:10080000022CF12B0130D9000310DC0DDD0DDE0DC3
:10081000DF0DD90B042C54085802031D192C530862
:100820005702031D192C52085602031D192C51089A
:100830005502031C1C2C1D2C2C2C5108D5025208CF
:10084000031C520FD6025308031C530FD70254083F
:10085000031C540FD8025C1401300310D40CD30CC9
:10086000D20CD10CFF3E031D2D2C0130DA02031DEA
:100870003A2C3B2C022C5B0803193F2C402C4B2CB0
:10088000DC09DD09DE09DF09DC0A0319DD0A0319C9
:10089000DE0A0319DF0A5F08D4005E08D3005D0892
:1008A000D2005C08D100080083120313CD01CB1FD6
:1008B0005A2C5B2C682CC809C909CA09CB09C80A7B
:1008C0000319C90A0319CA0A0319CB0ACD01CD0AB3
:1008D000C71F6B2C6C2C772CC409C509C609C70926
:1008E000C40A0319C50A0319C60A0319C70A470827
:1008F00046044504440403197E2C7F2CC22CCC01F1
:10090000CC0A8F2C0130F4000310C40DC50DC60DA8
:10091000C70DF40B842C0130F4007408CC07C71FFA
:10092000922C932C822C47084B02031DA12C4608C5
:100930004A02031DA12C45084902031DA12C4408AD
:100940004802031CA42CA52CB32C4408C80245085B
:10095000031C450FC9024608031C460FCA0247087C
:10096000031C470FCB0201300310C70CC60CC50C8B
:10097000C40CFF3E031DB42C0130CC02031DC12C5E
:10098000C22C932C4D080319C62CC72CD22CC80995
:10099000C909CA09CB09C80A0319C90A0319CA0A2D
:1009A0000319CB0A4B08C7004A08C6004908C5000E
:1009B0004808C400080083120313C500C601C7011C
:1009C000F42C46084507C4004408840000080A12B5
:1009D0008A1584260A128A11013083120313C6076E
:1009E0000318C70A0030C70746084507C400440873
:1009F000840083170008031DFE2CFF2CE12C080047
:100A0000FF1B0A2D83137F1883170008840A03191C
:100A1000FF0A080005308A000408840A82070034AF
:100A20002A34373434343134303438343534323491
:100A30002334393436343334013402340434083442
:100A4000FE34FD34FB3452346934673465346E341B
:100A500065347234613472346534203463346F34F5
:100A6000643465340034003449346E34733465348E
:100A700072346934733463346934203463346F34CA
:100A80006434653400340034543465346E34743462
:100A90002E342034653473346134753472346934DF
:100AA000743469340034003443346F34643469344A
:100AB0006334653420346534723472346134743490
:100AC0006F3400340034543465346E34743461341B
:100AD00074346934763469343A3420340034003460
:100AE000423465346E34763465346E34753474341F
:100AF0006F342134003400345034493443345F348B
:100B00003034303430343134003400348312031341
:100B1000C900CA01CB01CC01CD01942D0130CC0715
:100B20000318CD0A0030CD074C084907C40044081B
:100B3000840083170008031D9E2D9F2D8E2DCC2D24
:100B40004A087407C5007508C4000318C40ACA1F00
:100B5000AA2DC403831203134408C6004608FF00ED
:100B6000450884000A128A1100250A128A11C7005A
:100B70004C084907C80048088400470883178000CC
:100B80000130CA070318CB0A0030CB070130CC076D
:100B90000318CD0A0030CD074A087407C500750850
:100BA000C4000318C40ACA1FD62DC403831203133A
:100BB0004408C6004608FF00450884000A128A114E
:100BC00000250A128A11003A031DE72DE82DA02DF9
:100BD0004D08F5004C08F400080083120313DC01F3
:100BE000DA1FF32DF42DFB2DD909DA09D90A0319DF
:100BF000DA0ADC01DC0AD81FFE2DFF2D042ED709EE
:100C0000D809D70A0319D80A570858040319092E16
:100C10000A2E392EDB01DB0A182E01300310D70D06
:100C2000D80DFF3E031D0E2E0130F5007508DB07C1
:100C3000D81F1B2E1C2E0D2E58085A02031D222EC3
:100C400057085902031C252E262E2C2E5708D90290
:100C50005808031CDA03DA0201300310D80CD70C51
:100C6000FF3E031D2D2E0130DB02031D382E392ED1
:100C70001C2E5C0803193D2E3E2E432ED909DA099D
:100C8000D90A0319DA0A5A08D8005908D700080007
:100C90008312031309118910823083120313C700D2
:100CA000DD30C600C60B522EC70B522E8312031323
:100CB0008914F40138300A128A1509270A128A1198
:100CC000213083120313C7007530C600C60B662E91
:100CD000C70B662E6B2EF40138300A128A150927CD
:100CE0000A128A11073083120313C7007C30C60032
:100CF000C60B782EC70B782E0000F40138300A128C
:100D00008A1509270A128A11F40108300A128A1575
:100D100009270A128A11F4010F300A128A150927CD
:100D20000A128A11F40101300A128A1509270A12DF
:100D30008A11F4010C300A128A1509270A128A1145
:100D4000080083120313D4004E08F4004F08F50086
:100D500054080A128A1186250A128A11750883120C
:100D60000313D3007408D200203050060319B92EA3
:100D7000BA2EC92E52085407D100510884005008D9
:100D8000831780000130D2070318D30A0030D3073D
:100D9000E42E52085407D100510884000D30831707
:100DA00080000130D2070318D30A0030D30752085D
:100DB0005407D100510884000A3080000130D20766
:100DC0000318D30A0030D30752085407D100510842
:100DD00084008001080083120313CE004E080A121B
:100DE0008A15A7260A128A11740883120313CB00EE
:100DF0007508CC004A080A128A15A7260A128A1119
:100E00007508831203134C06031D082F74084B0644
:100E100003190B2F0C2F0E2F0030332FCF01272F4C
:100E20004F084A07CB004B0884000008CC004F084D
:100E30004E07CD004D08840000084C060319212FF1
:100E4000222F232F0C2F0130CB004B08CF074F0848
:100E50004E07CB004B08840083130008031D312F7D
:100E6000322F102F0130080083120313CB01CC0165
:100E70005F2FF401F40A4B084607C9004708C80071
:100E80000318C80ACB1F452FC80383120313480851
:100E9000CA004A08FF00490884000A128A11002586
:100EA0000A128A110A128A1509270A128A110130B8
:100EB00083120313CB070318CC0A0030CC074B086E
:100EC0004607C9004708C8000318C80ACB1F692F86
:100ED000C803831203134808CA004A08FF004908E0
:100EE00084000A128A1100250A128A11003A031D91
:100EF0007A2F7B2F392F0800003083120313CF0085
:100F00000030CE000030CD000030CC00441C892FD2
:100F10008A2FA12F4808CC07490803110318013E66
:100F20000319932FCD074A0803110318013E031933
:100F30009A2FCE074B0803110318013E0319A12F66
:100F4000CF070130F4000310C80DC90DCA0DCB0D39
:100F5000F40BA32F01300310C70CC60CC50CC40C36
:100F6000FF3E031DAB2F4708460445044404031D00
:100F7000BA2FBB2F862F4F08C7004E08C6004D085A
:100F8000C5004C08C400080083120313CC000130D4
:100F9000CF000030D000CD01CE01EC2F831203131F
:100FA0004C08CA00CB014A08C4004B08C5005008D1
:100FB000C7004F08C6000A128A15E2260A128A11D3
:100FC000831203134508D0004408CF000130CD0739
:100FD0000318CE0A0030CE074E08803ACA0080308F
:100FE0004A02031DF52F48084D02031CF82FF92F64
:100FF000CE2F831203135008C9004F08C800080001
:101CC6000334013400340034003464008001840A93
:101CD6000406031900340406692E740883120313DC
:101CE600E8007508E900EA01EB0108000F30F4008E
:101CF6007408831603138804F030F400740886050C
:101D06000800F500831203130C1E8A2E8B2E852ED7
:101D1600EF30F40074088C05750899000800A030AF
:101D2600F40074088B040630831603138100833095
:101D36008312031381000030A3000030A20000309C
:101D4600A1000030A000080083120313C700C801D9
:101D5600C9014908C5004808C400C80A0319C90AC8
:101D660044084707C6004608840083130008031D7D
:101D7600BD2EBE2EAC2E4908F5004808F40008001A
:101D8600003083120313E3000130E200C230E100A9
:101D96000030E0000A128A1573270A128A150A1201
:101DA6008A1148260A128A150A128A1579260A12F3
:101DB6008A150A128A1592260A128A150800F40153
:101DC600F50183120313441CE92EEA2EF02E460871
:101DD600F4070318F50A4708F50701300310C60D86
:101DE600C70DFF3E031DF12E01300310C50CC40CB8
:101DF600FF3E031DF82E44084504031D032F042F40
:101E0600E42E7508C5007408C4000800F5008316A2
:101E160003138801891009118312031389147508A5
:101E26008800740C031C0911031809151430831259
:101E36000313C5007930C400C40B1F2FC50B1F2F19
:101E4600831203138910143083120313C5007930EB
:101E5600C400C40B2C2FC50B2C2F8312031389141B
:101E66000800831203138C1E392F3A2F552F831621
:101E760003132A08343E8400831203131A088313BB
:101E860080000130F000700883160313AA072A08A1
:101E9600343E84008001A701A70AA601A60A831280
:101EA60003138C120B1D582F592F6A2F8330810074
:101EB6000130A007003003180130A10700300318D5
:101EC6000130A207003003180130A3070B11730875
:101ED6008A0072088400710E8300FE0E7E0E0900D1
:101EE600BF3083120313E4006408831603138705C7
:101EF6008717243083120313E40064088316031340
:101F0600980483120313981718166008E4006108F2
:101F1600E5006208E6006308E70006300310E40DFA
:101F2600E50DE60DE70DFF3E031D912F6708D40072
:101F36006608D3006508D2006408D1000130D800D5
:101F46003130D7002D30D6000030D5000A128A1164
:101F5600B7230A128A15831203135108FF3E83160C
:101F6600031399008B170B178C16080083120313A3
:101F76006B08C7006A08C6006908C5006808C4007F
:101F86004130CB00C630CA004E30C9006D30C800A3
:101F96000A128A117C270A128A158312031347082C
:101FA600EB004608EA004508E9004408E800393035
:101FB600E807303003183130E907003003180130E4
:101FC600EA07003003180130EB076808D2006908F9
:101FD600D3006A08D4006B08D5001030D600550D22
:101FE600D50CD40CD30CD20CD60BF22FFF305205E5
:0A1FF600D0007F305305D100080031
:08400000FF3FFF3FFF3FFF3FC0
:02400E00F23F7F
:00000001FF
