:060000000A128A1110280B
:10000800FE00030E83120313B9000408BA000A089D
:10001800BB000A128A15E72D0A128A1113288316C3
:1000280003130A168A1111260A128A11ED000A16FC
:100038008A1112260A128A11EE000A168A1113264C
:100048000A128A11EF00831203130A128A15F2208A
:100058000A128A11D3000A128A15F3200A128A1189
:10006800D4000A128A15F4200A128A11D5000A123D
:100078008A15F5200A128A11D60083179030840059
:10008800C7300A168A1114260A128A111030840001
:1000980042300A168A1114260A128A118313E23092
:1000A8008400ED300A168A1114260A128A113C308F
:1000B800840053300A168A1114260A128A11830101
:1000C8000A128A1167280A128A1573250A128A11D8
:1000D8008312031349080319722873288A28831680
:1000E8000313A00101300A168A1114270A128A1173
:1000F800BC3083160313A4008030A5000A128A15A9
:10010800F7210A128A1183120313C9014808031937
:100118008E288F28BA2883160313A00101300A16E7
:100128008A1114270A128A11D13083160313A400E6
:100138008030A5000A128A15F7210A128A1183163F
:100148000313A001C0300A168A1114270A128A1153
:10015800893083160313A4008030A5000A128A157B
:10016800F7210A128A1183120313C80147080319D9
:10017800BE28BF28EA2883160313A00101300A16F7
:100188008A1114270A128A11D13083160313A40086
:100198008030A5000A128A15F7210A128A118316DF
:1001A8000313A001C0300A168A1114270A128A11F3
:1001B800C73083160313A4008030A5000A128A15DD
:1001C800F7210A128A1183120313C701460803197B
:1001D800EE28EF28162983160313A00101300A160A
:1001E8008A1114270A128A11B03083160313A40047
:1001F8008030A5000A128A15F7210A128A110030E8
:1002080083120313C3000030C2000030C100003065
:10021800C0000030BF000030BE000330BD00E83031
:10022800BC00C6010A128A11EF230A128A1183122E
:1002380003134508831603136506031D2929831232
:100248000313440883160313640603192C292D2964
:1002580058296E080319312932295829A00101307B
:100268000A168A1114270A128A11383083160313C2
:10027800A4008030A5000A128A15F7210A128A11F3
:1002880083160313A001C0300A168A1114270A1214
:100298008A114F3083160313A4000030A5000A12F8
:1002A8008A15F7210A128A11831603136508831227
:1002B8000313C50083160313640883120313C400D1
:1002C800831603171108831603136306031D722987
:1002D800831603171008831603136206031975297A
:1002E8007629CF29A00101300A168A1114270A128B
:1002F8008A11831603136208D9006308DA000030F4
:10030800DA1BFF30DB00DC00D230DD000130DE001C
:100318000A128A11F4250A128A11D230831603139D
:10032800A4000130A5000A128A15F7210A128A11C1
:10033800303083160317B4002F30B500B6014F30A4
:1003480083160313B3000030B4002F30B500B43067
:100358000A128A15AD210A128A1130308316031742
:10036800BA002F30BB00BC01D23083160313B30090
:100378000130B4002030B500B4300A128A15AD211E
:100388000A128A1183160313C101B4300A128A159E
:100398005F260A128A11831603136308831603174C
:1003A80091008316031362088316031790008312C3
:1003B80003134C080319E129E229B92A10300A125B
:1003C8008A1565270A128A113130831603136906C4
:1003D800031DEF29F029732A4F30A7000030A80029
:1003E800C3300A128A154D220A128A11003A0319DB
:1003F800FE29FF29732A3030831603136806031D6C
:10040800062A072A732A303083160317B4002F30C0
:10041800B500B6014F3083160313B3000030B400A3
:100428002F30B500B4300A128A15AD210A128A118C
:10043800E13083160313B3008030B4002030B500D8
:10044800B4300A128A15AD210A128A1183160313D1
:10045800C101C10AB4300A128A155F260A128A112C
:1004680083160313E601E60AE201E3018316031784
:1004780090019101033083160313ED00A0010130B0
:100488000A168A1114270A128A11263083160313B2
:10049800A4008030A5000A128A15F7210A128A11D1
:1004A80083160313A001C0300A168A1114270A12F2
:1004B8008A11973083160313A4008030A5000A120E
:1004C8008A15F7210A128A1183160313A001A00ABC
:1004D8006D08303E0A168A1114270A128A11313023
:1004E800831603136906031D7A2A7B2AB52A4F301F
:1004F800A7000030A800C3300A128A154D220A123C
:100508008A11003A0319892A8A2AB52A32308316B1
:1005180003136806031D912A922AB52A6208630408
:100528000319972A982AA32A003083120313BF00BD
:100538000030BE000030BD000030BC00B52A0030DD
:1005480083120313C3000030C2000030C100003022
:10055800C0000030BF000030BE000330BD00E830EE
:10056800BC0083120313CC01CE014B080319BD2A2A
:10057800BE2A0D2B83160313A00101300A168A1117
:1005880014270A128A11A43083160313A40080309A
:10059800A5000A128A15F7210A128A118312031379
:1005A800CD0183160313E70183120313CB018316CE
:1005B8000313E6010330ED00303083160317B4004F
:1005C8002F30B500B6014F3083160313B300003047
:1005D800B4002F30B500B4300A128A15AD210A12C2
:1005E8008A11DD3083160313B3008030B400203045
:1005F800B500B4300A128A15AD210A128A11831681
:100608000313C101B4300A128A155F260A128A112F
:10061800AE2B831603136D080319132B142B5E2BB3
:1006280003306D020318192B1A2B5E2B8312031348
:100638004A080319202B212B5E2B83160313A001D4
:1006480001300A168A1114270A128A117A30831681
:100658000313A4008030A5000A128A15F7210A1294
:100668008A1183160313A001C0300A168A111427B1
:100678000A128A11973083160313A4008030A5004C
:100688000A128A15F7210A128A1183160313A00188
:10069800A00A6D08303E0A168A1114270A128A1118
:1006A80083120313CD0183160313E7018312031387
:1006B800CA01AE2B831603136D08031D642B652B2B
:1006C800AE2BA00101300A168A1114270A128A11CA
:1006D8006A3083160313A4008030A5000A128A1515
:1006E800F7210A128A11033083160313ED008312CF
:1006F8000313CD0183160313E701E6013030831697
:100708000317B4002F30B500B6014F30831603131A
:10071800B3000030B4002F30B500B4300A128A1587
:10072800AD210A128A11D93083160313B300803021
:10073800B4002030B500B4300A128A15AD210A126F
:100748008A1183160313C101B4300A128A155F2671
:100758000A128A11831603136708831203134D06BE
:100768000319B72BB82BE52B831603136608031957
:10077800BE2BBF2BE52BA00101300A168A111427C6
:100788000A128A11143083160313A4008030A500BE
:100798000A128A15F7210A128A1183160313A00177
:1007A800C0300A168A1114270A128A119230831649
:1007B8000313A4000130A5000A128A15F7210A12B2
:1007C8008A1183160313670883120313CD006C285C
:1007D8000A128A1110280F3083160313C10041082A
:1007E8008804EC010730C100410883120313860412
:1007F800831603136C08113E84000A128A150A2016
:100808000A128A11C1004108831203138605831650
:100818000313EB016B080D3E84000A128A150A20A7
:100828000A128A11831203130805031D1C2C1D2CA0
:10083800482C213083160313C2007530C100C10B48
:10084800232CC20B232C282C831603136B080D3E74
:1008580084000A128A150A200A128A1183120313C5
:100868000805031D382C392C482C831603136C08F3
:10087800C10002300310C10DFF3E031D3E2C6B0862
:100888004107EF00EA01EA0A013083160313C100A9
:100898004108EB0704306B02031C532C542C0E2C1C
:1008A8006A080319582C592CE92DEA0108306F06FB
:1008B800031D5F2C602C5B2D6E080319642C652CBE
:1008C800E42C033064066504031D6B2C6C2CE42CAB
:1008D800831203134F0883160313C100C201410892
:1008E800BB004208BC006430BD000030BE000A16E0
:1008F8008A11BF260A128A11831603133B08C30004
:100908003C08C40083120313500883160313C50060
:10091800C6014508BB004608BC000A30BD000030CF
:10092800BE000A168A11BF260A128A1183160313FB
:100938003B084307C7003C0803183C0A4407C800A3
:10094800831203135108831603134707C9000030A5
:10095800031801304807CA004908303ECB004A084E
:100968000318013EEB3ECC004C08803AFF00803073
:100978007F02031DC12CFB304B020318C42CC52C6D
:10098800D72C831603134B08A00000300A168A11CF
:1009980047270A128A1183120313C601C60A83164F
:1009A8000313EE01D52D83120313C701C70ACF0124
:1009B800C401C50183160313E401E501D52DD52D26
:1009C8006E080319E82CE92CFB2C6508803AFF0017
:1009D80080307F02031DF22C033064020318F52CCB
:1009E800F62CFB2C83120313C801C80ADB2C8316D0
:1009F80003136608031D012D022D342D83120313E2
:100A0800410883160313A1008312031340088316B9
:100A18000313A0000A168A113E260A128A112730EB
:100A280083160313B4002330B5000A128A158E24E6
:100A38000A128A11831603132E08B7002D08B60070
:100A48000A128A15FF220A128A1183160313340820
:100A5800E83EE20035080318013E033EE300D52DC9
:100A680066080319382D392D4D2D9230A700013015
:100A7800A800A3300A128A154D220A128A11003AD8
:100A88000319472D482D4D2D83120313CB01CB0A93
:100A9800D52D8316031366080319532D542DE32C03
:100AA8000130ED0283120313CA01CA0AD52D6F085B
:100AB800031D5F2D602D922D66080319642D652D89
:100AC800722D67080319692D6A2D722D0130E7020E
:100AD8006708923E840083178001D52D6E0803199C
:100AE800762D772DD52D6508803AFF0080307F025E
:100AF800031D802D01306402031C832D842DD52D08
:100B0800FF3083160313E4070318E50AFF30E507EF
:100B180064084F3E840083138001D52D66080319AD
:100B2800962D972DAB2D6F08013E84000A128A1569
:100B38000A200A128A11C1006708923E84004108FF
:100B4800831780000130C1004108E7076C2D6E084B
:100B58000319AF2DB02DD52D6508803AFF008030E0
:100B68007F02031DB92D033064020318BC2DBD2D6F
:100B7800D52D831603136F08013E84000A128A15C7
:100B88000A200A128A11C10064084F3E84004108F5
:100B9800831380000130E4070318E50A0030E507F5
:100BA8008C2D0F3083160313C100410883120313E1
:100BB80088040F308312080583160313C1000F3011
:100BC8004106031DE82DE92DDD2D0130C100410846
:100BD800EC0703306C02031CF22DF32DF62B0800F2
:100BE80083160317CB01CC01C901CA01831603136D
:100BF800DC1FFF2D002E2E2E013083160317CB008D
:100C08000030CC00831603135D08840083175E1C34
:100C180083132D308000FF30A300FF30A200FF3087
:100C2800A100FF30A0005C08A7005B08A6005A08D6
:100C3800A5005908A4000A128A1565210A128A110A
:100C4800831603132308DC002208DB002108DA00DE
:100C58002008D90083160317CD01CD0A392E01309B
:100C6800DF005F0883160317CD074D0883160313AB
:100C7800C1000A300A168A117E270A128A118316C1
:100C880003134108CA004208CB000030CB1BFF30D9
:100C9800CC00CD005C08D1005B08D0005A08CF001A
:100CA8005908CE000A128A1122270A128A118316BD
:100CB80003134D084C044B044A04031D642E652E8F
:100CC800332EF22E8316031749084D02FF3E831672
:100CD8000313C1000A300A168A117E270A128A11E4
:100CE80083160313420883160317C80083160313D9
:100CF800410883160317C7004B08831603135D07C3
:100D0800E0005E08DF000318DF0A83160317CB1F15
:100D1800902E83160313DF03831603135F08E10085
:100D2800600884008317611C831383160317470820
:100D380083160313CA008316031748088316031380
:100D4800CB000030CB1BFF30CC00CD005C08D100BD
:100D58005B08D0005A08CF005908CE000A128A1141
:100D680022270A128A11831603134A08303E80008C
:100D780083160317470883160313A0008316031767
:100D8800480883160313A1000030A11BFF30A200FE
:100D9800A3005C08A7005B08A6005A08A50059082C
:100DA800A4000A128A15DE260A128A118316031372
:100DB8002308DC002208DB002108DA002008D9001B
:100DC800013083160317CB070318CC0A0030CC0771
:100DD8000130C9070318CA0A0030CA078316031767
:100DE8004A08803A83160313DF0080305F02031D30
:100DF800012F831603174D084902031C042F052FE2
:100E0800662E831603174B08831603135D07E0004D
:100E18005E08DF000318DF0A83160317CB1F172F9E
:100E280083160313DF03831603135F08E1006008CA
:100E380084008317611C8313800108008316031341
:100E4800D401CD1F282F292F362FCA09CB09CC0949
:100E5800CD09CA0A0319CB0A0319CC0A0319CD0A0A
:100E6800D401D40AD11F392F3A2F492FCE09CF09DF
:100E7800D009D109CE0A0319CF0A0319D00A0319D8
:100E8800D10A0130D2005208D4060030D800003010
:100E9800D7000030D6000030D5004D084C044B0474
:100EA8004A040319582F592FA62FD301D30A692FA3
:100EB8000130D2000310CA0DCB0DCC0DCD0DD20BD5
:100EC8005E2F0130D2005208D307CD1F6C2F6D2F33
:100ED8005C2F0130D2000310D50DD60DD70DD80DDB
:100EE800D20B6F2F4D085102031D842F4C0850025E
:100EF800031D842F4B084F02031D842F4A084E02FE
:100F0800031C872F882F972F4A08CE024B08031CF3
:100F18004B0FCF024C08031C4C0FD0024D08031C8A
:100F28004D0FD102551401300310CD0CCC0CCB0C55
:100F3800CA0CFF3E031D982F0130D302031DA52FB5
:100F4800A62F6D2F54080319AA2FAB2FB62FD5093A
:100F5800D609D709D809D50A0319D60A0319D70A11
:100F68000319D80A5808CD005708CC005608CB00FA
:100F78005508CA000800BF3083160313DD005D085A
:100F8800870587172430DD005D0898048312031352
:100F980098171816831603135908DD005A08DE003F
:100FA8005B08DF005C08E00006300310DD0DDE0D95
:100FB800DF0DE00DFF3E031DD92F6008CD005F084F
:100FC800CC005E08CB005D08CA000130D10031308A
:100FD800D0002D30CF000030CE000A128A1122270F
:100FE8000A128A11831603134A08FF3E99008B17C9
:060FF8000B178C16080027
:10100000FF1B0A2883137F1883170008840A03191B
:10101000FF0A080008308A000408840A82070034A6
:101020002A3437343434313430343834353432348B
:10103000233439343634333401340234043408343C
:10104000FE34FD34FB3423343D3463346F346E346A
:1010500066342E3420342A343D34633461346E34A3
:1010600063342E3400340034003449346E34733425
:1010700065347234693473346334693420346334CE
:101080006F34643469346334653400340034233499
:101090003D3463346F346E3466342E3420342A3455
:1010A0003D34633461346E3463342E3400340034A0
:1010B0004D3449344E343D343034303430342C34B3
:1010C0004D34413458343D343234353430340034C6
:1010D000003449346E347334653472342E34203421
:1010E0004934443420345034493443343A3400349D
:1010F0000034543465346E3474342E342034653402
:10110000733461347534723469347434693400343E
:10111000003443346F3464346934633465342034C8
:10112000653472347234613474346F340034003492
:101130004934443420343D3420343334203463344F
:101140006834613472347334003400345434653498
:101150006E347434613474346934763469343A34B6
:10116000203400340034423465346E3476346534CF
:101170006E34753474346F3421340034003449349F
:1011800044342034533461346C34763461347434F0
:101190006F34003400345034723465346D34693443
:1011A0002034273423342734003400344934443481
:1011B00020343E342034323435343034003400347A
:1011C0004534523452344F345234453400340034B0
:1011D00031342F343034003431342F34313400344E
:1011E00032340034013400340034003483160313E5
:1011F000A501A60101290130A5070318A60A0030A0
:10120000A60725082007A3002108A2000318A20AA8
:10121000A51F0B29A203831603132208A400230889
:1012200084008317241C83130008031D182919291F
:10123000FB282608A1002508A0000800831203133C
:101240005608F3005508F2005408F1005308F00066
:101250004130F700C630F6004E30F5006D30F40036
:101260000A168A11BA270A128A1573088312031301
:10127000D6007208D5007108D4007008D300393048
:10128000D307303003183130D40700300318013051
:10129000D507003003180130D6075308A2005408C0
:1012A000A3005508A4005608A5001030A600250D7F
:1012B000A50CA40CA30CA20CA60B5729FF302205E9
:1012C000A0007F302305A10008000030831603131F
:1012D000AC000030AB000030AA000030A900201C98
:1012E000722973298A292408A907250803110318DC
:1012F000013E03197C29AA07260803110318013EA1
:1013000003198329AB07270803110318013E0319AA
:101310008A29AC070130A8000310A40DA50DA60D65
:10132000A70DA80B8C2901300310A30CA20CA10C53
:10133000A00CFF3E031D942923082204210420044D
:10134000031DA329A4296F292C08A3002B08A200A0
:101350002A08A1002908A000080083160313B90079
:101360003308A7003408A80039080A128A15FF2498
:101370000A128A15831603132808B8002708B70035
:10138000203035060319C529C629D529370839075C
:10139000B600360884003508831780000130B7078F
:1013A0000318B80A0030B807F02937083907B60023
:1013B000360884000D30831780000130B70703180A
:1013C000B80A0030B80737083907B6003608840075
:1013D0000A3080000130B7070318B80A0030B80798
:1013E00037083907B60036088400800108008316E4
:1013F0000313A901AA012A2A83160313A001A00A34
:1014000029082407A7002508A6000318A60AA91F73
:101410000A2AA603831603132608A80028088312A5
:101420000313FF008316031327088400831203139A
:101430000A128A1500200A128A150A168A11142720
:101440000A128A15013083160313A9070318AA0A82
:101450000030AA0729082407A7002508A6000318BA
:10146000A60AA91F342AA603831603132608A80078
:10147000280883120313FF00831603132708840030
:10148000831203130A128A1500200A128A15003AE1
:10149000031D4B2A4C2AFC29080083160313AE00B7
:1014A0002E08A0000130A1000A128A15F6200A12A7
:1014B0008A15831603132008A9002108AA0027080B
:1014C000A0002808A1000A128A15F6200A128A151F
:1014D0008316031321082A06031D702A20082906F3
:1014E0000319732A742A762A0030A32AAD01972A99
:1014F0002D082707A90028080318013EAA0029087B
:10150000840083172A1C83130008AB002D082E07C4
:10151000AC002C088400831700082B060319912ABD
:10152000922A932A742A0130A9002908AD072D08B0
:101530002E07A9002908840083170008031DA12A8B
:10154000A22A782A0130080083120313AC01AA1FD3
:10155000AA2AAB2AB22AA909AA09A90A0319AA0A1E
:10156000AC01AC0AA81FB52AB62ABB2AA709A8094C
:10157000A70A0319A80A270828040319C02AC12AA0
:10158000F02AAB01AB0ACF2A01300310A70DA80D3A
:10159000FF3E031DC52A0130FD007D08AB07A81FD3
:1015A000D22AD32AC42A28082A02031DD92A2708A6
:1015B0002902031CDC2ADD2AE32A2708A9022808BD
:1015C000031CAA03AA0201300310A80CA70CFF3EBB
:1015D000031DE42A0130AB02031DEF2AF02AD32AAF
:1015E0002C080319F42AF52AFA2AA909AA09A90A32
:1015F0000319AA0A2A08A8002908A70008008316C8
:101600000313BA01B71F052B062B0D2BB609B7091B
:10161000B60A0319B70ABA01BA0AB51F102B112B63
:10162000162BB409B509B40A0319B50A34083504F0
:1016300003191B2B1C2B4B2BB901B90A2A2B013088
:101640000310B40DB50DFF3E031D202B0130B80073
:101650003808B907B51F2D2B2E2B1F2B3508370245
:10166000031D342B34083602031C372B382B3E2B3A
:101670003408B6023508031CB703B7020130031063
:10168000B50CB40CFF3E031D3F2B0130B902031D06
:101690004A2B4B2B2E2B3A0803194F2B502B552B33
:1016A000B609B709B60A0319B70A3708B5003608EC
:1016B000B400080083160313AA002A08A000003013
:1016C000A1000A128A15F6200A128A15831603133E
:1016D0002108A9002008A8002908803AFF008030CE
:1016E0007F02031D752B033028020318782B792BFA
:1016F000B72BA82B2A08033E8400831380012A08F5
:1017000084000008A7002A08023E84002708800001
:101710002A0A8400303080002A088400303080009B
:10172000B72B2A08033E8400831380012A0A840011
:101730000008A7002A08023E8400270880002A0823
:1017400084000008A7002A0A8400270880008C2B48
:10175000831603132908003A0319AF2BB72B280867
:10176000013A03197A2B033A0319912BB72B08007E
:101770008312031309118910823083160313A50005
:10178000DD30A400A40BC22BA50BC22B83120313C4
:10179000891483160313A00138300A168A111427FE
:1017A0000A128A15213083160313A5007530A40090
:1017B000A40BD82BA50BD82BDD2B83160313A0016C
:1017C00038300A168A1114270A128A150730831630
:1017D0000313A5007C30A400A40BEC2BA50BEC2B71
:1017E000000083160313A00138300A168A1114274B
:1017F0000A128A1583160313A00108300A168A11EB
:1018000014270A128A1583160313A0010F300A1633
:101810008A1114270A128A1583160313A0010130B6
:101820000A168A1114270A128A1583160313A001B7
:101830000C300A168A1114270A128A15080083121E
:101840000313B500B601B701382C36083507B400CC
:101850003408840000080A168A1130260A128A15F4
:10186000013083120313B6070318B70A0030B70715
:1018700036083507B4003408840083170008031DB8
:10188000422C432C252C3308031D472C482C8D2C2F
:101890004108F1004008F0000A168A111C260A12BD
:1018A0008A15003083120313C3000030C2000030D9
:1018B000C1000030C0000A30A7000030A8000A12A2
:1018C0008A151E210A128A15831203132108AA0001
:1018D0002008A9000A128A15A4220A128A15831266
:1018E00003132708053EAD0028080318013E003EFB
:1018F000AE00FA30AF000030B0000A168A11982608
:101900000A128A15831203132D08BC002E08BD008D
:101910000030BD1BFF30BE00BF0008008312031360
:10192000560883160313A300831203135508831666
:101930000313A20083120313540883160313A10098
:1019400083120313530883160313A0004130A7002A
:10195000C630A6004E30A5006D30A4000A128A15CC
:1019600065210A128A1583160313230883120313B1
:10197000D60083160313220883120313D50083169F
:101980000313210883120313D400831603132008C2
:1019900083120313D3003930D307303003183130AA
:1019A000D407003003180130D50700300318013088
:1019B000D607530883160313AF008312031354088A
:1019C00083160313B0008312031355088316031301
:1019D000B10083120313560883160313B2001030AC
:1019E000B300320DB20CB10CB00CAF0CB30BF12C38
:1019F000FF302F05AD007F303005AE0008008316A4
:101A00000313AE00AF01B0012E08A0000130A10009
:101A10000A128A15F6200A128A1583160313210862
:101A2000B2002008B1004A2D831603132F082707A0
:101A3000AA002808A9000318A90AAF1F202DA9038E
:101A4000831603132908AB002B0883120313FF002E
:101A5000831603132A088400831203130A128A15BB
:101A600000200A128A1583160313AC0031082E07D2
:101A7000AD002D0884002C08831780000130AF07CB
:101A80000318B00A0030B0070130B1070318B20ADA
:101A90000030B2072F082707AA002808A90003185A
:101AA000A90AAF1F542DA903831603132908AB00FD
:101AB0002B0883120313FF00831603132A088400E4
:101AC000831203130A128A1500200A128A15003A9B
:101AD000031D6B2D6C2D142D831603133208A800E3
:101AE0003108A7000800003083160313DC00013022
:101AF000DB00C230DA000030D9000A128A11BF2799
:101B00000A128A150A128A15B8230A128A150A16A9
:101B10008A1125260A128A150A168A114D260A12DA
:101B20008A1500300A168A1179260A128A15831638
:101B30000317CE00CF014E08D0004F08D100500A45
:101B40005104031DA42DA52DC52D5A308316031352
:101B5000A4008030A5000A128A15F7210A128A15FE
:101B600083160313A001C0300A168A1114270A1223
:101B70008A15493083160313A4008030A5000A1289
:101B80008A15F7210A128A15E62D500883160313C9
:101B9000D90083160317510883160313DA000030A7
:101BA000DA1BFF30DB00DC004F30DD000030DE00F0
:101BB0000A128A11F4250A128A154F300A128A1560
:101BC0005A230A128A1583160313EE0108008C1E8D
:101BD000EA2DEB2DFC2D4E08103E84001A088317C9
:101BE00080000130B8003808CE074E08103E84004F
:101BF0008001CC01CC0A8C120B1DFF2D002E542E1F
:101C0000833081000130C007003003180130C10764
:101C1000003003180130C207003003180130C30739
:101C20003F083E043D043C040319172E182E532E82
:101C300043083F02031D262E42083E02031D262EA6
:101C400041083D02031D262E40083C020318292EA0
:101C50002A2E532EE8303C06033003193D063E047D
:101C60003F04031D342E352E422E83120313C90167
:101C7000C90A0030BF000030BE000030BD00003097
:101C8000BC00532E003083120313BF000030BE008F
:101C90000030BD000030BC00B301B4300A128A1518
:101CA0001F240A128A150B11831203133B088A00A2
:101CB0003A088400390E8300FE0E7E0E090083165A
:101CC0000313C500C301C401782E43084507C200B1
:101CD0004208840000080A168A1162260A128A1530
:101CE000013083160313C3070318C40A0030C40766
:101CF00043084507C2004208840083170008031DFB
:101D0000822E832E652E4108031D872E882EDD2E00
:101D100083120313410883160313A10083120313D4
:101D2000400883160313A0000A168A113E260A12E1
:101D30008A15003083120313C3000030C200003044
:101D4000C1000030C0000A3083160313B400003015
:101D5000B5000A128A158E240A128A1583160313F7
:101D60002E08B7002D08B6000A128A15FF220A12A3
:101D70008A15831603133408053EBB003508031883
:101D8000013E003EBC00FA30BD000030BE000A1625
:101D90008A11BF260A128A15831603133B08831281
:101DA0000313BC00831603133C0883120313BD0006
:101DB0000030BD1BFF30BE00BF00080083160313B8
:101DC000AA01A71FE42EE52EF22EA409A509A60953
:101DD000A709A40A0319A50A0319A60A0319A70A41
:101DE000AA01AA0AA31FF52EF62E012FA009A10908
:101DF000A209A309A00A0319A10A0319A20A031937
:101E0000A30A23082204210420040319082F092F00
:101E10004C2FA901A90A192F0130A8000310A00D09
:101E2000A10DA20DA30DA80B0E2F0130A8002808AC
:101E3000A907A31F1C2F1D2F0C2F23082702031DEA
:101E40002B2F22082602031D2B2F21082502031DFC
:101E50002B2F20082402031C2E2F2F2F3D2F20086C
:101E6000A4022108031C210FA5022208031C220F33
:101E7000A6022308031C230FA70201300310A30CA2
:101E8000A20CA10CA00CFF3E031D3E2F0130A902A5
:101E9000031D4B2F4C2F1D2F2A080319502F512F94
:101EA0005C2FA409A509A609A709A40A0319A50A74
:101EB0000319A60A0319A70A2708A3002608A200E7
:101EC0002508A1002408A000080083160313B5000C
:101ED000B301B401B101B2013508A0000130A10085
:101EE0000A128A15F6200A128A158316031321088E
:101EF000AB002008AA00B601B701E92F831603132F
:101F000036083507A700270884002F3083170006FE
:101F100003198B2F8C2FC62F36083507A7002708EB
:101F2000840000080319952F962FC62F3608350711
:101F3000A700270884000008A8003308AC3E8400EE
:101F40002808831380000130B3070318B40A003057
:101F5000B4073308AC3E84008001E32F2C08E9006D
:101F6000D92FAC30A000C3300A168A11E6260A1217
:101F70008A15D92F2C08E800D92FAC30A000A33047
:101F80000A168A11E6260A128A15D92F3208003A53
:101F90000319CB2FD92F3108003A0319AE2F013A7C
:101FA0000319B12F033A0319BA2F013A0319BD2FB0
:101FB000D92F013083160313B1070318B20A00307A
:101FC000B207B301B4010130B6070318B70A0030F5
:101FD000B7072A08013EA7002B080318013E003E60
:101FE000A8003708803AA9002808803A2902031D72
:101FF000FB2F27083602031CFE2FFF2F7E2F080021
:102C220003340134633464008001840A0406031906
:102C320000340406152E700883120313D3007108A2
:102C4200D400D501D60108000F3083160313A0006B
:102C520020088804F030A000200886050800F10052
:102C6200831203130C1E362E372E312EEF30F00056
:102C720070088C0571089900080083160313200858
:102C820083120313D3008316031321088312031341
:102C9200D400D501D6010800A03083160313A0008A
:102CA20020088B04063081008330831203138100D5
:102CB2000030C3000030C2000030C1000030C0004C
:102CC200080083160313A10083120C1E692E6A2EBC
:102CD200652EEF3083160313A0002008831203131E
:102CE2008C0583160313210883120313990008002D
:102CF20083160313A1006400831603178C18822E17
:102D0200852E831603137C2E831603132108831248
:102D120003178D003F3083160313A000200883168B
:102D220003178C050C14831203170C080800831276
:102D32000313B101B2012D1C9F2EA02EA62E2F0827
:102D4200B1070318B20A3008B20701300310AF0D01
:102D5200B00DFF3E031DA72E01300310AE0CAD0CCB
:102D6200FF3E031DAE2E2D082E04031DB92EBA2ED2
:102D72009C2E3208AE003108AD0008008316031302
:102D8200BF01C0013B1CC62EC72ECD2E3D08BF077A
:102D92000318C00A3E08C00701300310BD0DBE0D66
:102DA200FF3E031DCE2E01300310BC0CBB0CFF3EB8
:102DB200031DD52E3B083C04031DE02EE12EC32E3D
:102DC2004008BC003F08BB00080083160313A400A0
:102DD200A501A601012F25082007A10021088400D2
:102DE2000008A20025082407A30023088400220863
:102DF200831780000130A5070318A60A0030A60732
:102E020025082007A1002108840083130008031D60
:102E12000B2F0C2FEC2E25082407A100210884007B
:102E220083178001080083160313A3008801891009
:102E320009118312031389148316031323088312BF
:102E42000313880083160313200C83120313031C3D
:102E5200091103180915143083160313A2007930DF
:102E6200A100A10B322FA20B322F83120313891060
:102E7200143083160313A2007930A100A10B3F2F57
:102E8200A20B3F2F83120313891408008316031326
:102E9200A200831603178C184F2F502F4A2F831628
:102EA20003132208831203178D00831603132008CD
:102EB200831203178C003F3083160313A1002108ED
:102EC200831603178C058312031303108B1F6A2FBB
:102ED2006B2F6C2F03148B13831603170C155530AD
:102EE2008D00AA308D008C140C1183120313031C65
:102EF2007B2F7C2F7D2F8B17080083160313C500B1
:102F02000130C8000030C900C601C701A62F8316D0
:102F120003134508C300C4014308BB004408BC00B6
:102F22004908BE004808BD000A168A11BF260A16C3
:102F32008A11831603133C08C9003B08C8000130FC
:102F4200C6070318C70A0030C7074708803AC300FC
:102F520080304302031DAF2F41084602031CB22FEB
:102F6200B32F882F831603134908C2004808C100F3
:102F720008000030FC000030FB000030FA00003096
:102F8200F900701CC52FC62FDD2F7408F9077508CC
:102F920003110318013E0319CF2FFA077608031114
:102FA2000318013E0319D62FFB07770803110318F4
:102FB200013E0319DD2FFC070130F8000310F40D68
:102FC200F50DF60DF70DF80BDF2F01300310F30CA2
:102FD200F20CF10CF00CFF3E031DE72F7308720494
:102FE20071047004031DF62FF72FC22F7C08F30023
:0E2FF2007B08F2007A08F1007908F000080070
:08400000FF3FFF3FFF3FFF3FC0
:02400E00F23F7F
:00000001FF
