:060000000A128A110E280D
:10000800FE00030EF1000408F2000A08F3000A12C9
:100018008A11FB2D0A128A1111280A128A119D27AA
:100028000A128A11E9000A128A119E270A128A11F5
:10003800EA000A128A119F270A128A11EB000A1293
:100048008A11A0270A128A11EC000A128A11A12724
:100058000A128A11F90083160313E901EA01EB0178
:10006800EC01ED01EE0183132030840045300A12C3
:100078008A1195270A128A11F601F701F8018301FE
:100088000A128A11412B83160313A401A501A201A8
:10009800A30183120313E41F522853287F28013039
:1000A80083160313A4000030A50083120313650808
:1000B80084002D3083138000FF30C800FF30C70054
:1000C800FF30C600FF30C5006408CC006308CB00D1
:1000D8006208CA006108C9000A128A1126250A1294
:1000E8008A11831203134808E4004708E30046080E
:1000F800E2004508E10083160313A601A60A8A2830
:100108000130E600660883160313A6072608831243
:100118000313C9000A300A128A1138260A128A11F2
:10012800831203134908D2004A08D3000030D31BB6
:10013800FF30D400D5006408D9006308D8006208ED
:10014800D7006108D6000A128A111D220A128A11E4
:10015800831203135508540453045204031DB5288D
:10016800B628842832298316031322082602FF3E64
:1001780083120313C9000A300A128A1138260A1298
:100188008A11831203134A0883160313A1008312EA
:100198000313490883160313A000240883120313CA
:1001A8006507E60066088400831603132008831297
:1001B8000313D20083160313210883120313D300F9
:1001C8000030D31BFF30D400D5006408D900630881
:1001D800D8006208D7006108D6000A128A111D22C9
:1001E8000A128A11831203135208303E83138000C7
:1001F80083160313200883120313C5008316031301
:10020800210883120313C6000030C61BFF30C70045
:10021800C8006408CC006308CB006208CA00610803
:10022800C9000A128A11BA220A128A118312031308
:100238004808E4004708E3004608E2004508E100F2
:10024800013083160313A4070318A50A0030A50775
:100258000130A2070318A30A0030A307831603136B
:100268002308803A83120313E60080306602031DD8
:1002780041298316031326082202031C4429452911
:10028800B728831603132408831203136507E600AF
:10029800660884008313800108000F30831203135B
:1002A800DE005E08831603138804F8010730831202
:1002B800DE005E0886047808113E84000A128A115E
:1002C8007E260A128A11DE005E088605F701770885
:1002D8000D3E84000A128A117E260A128A11080528
:1002E800031D772978299F29213083120313DF0002
:1002F8007530DE00DE0B7E29DF0B7E298329770827
:100308000D3E84000A128A117E260A128A1183126F
:1003180003130805031D912992299F297808DE00F7
:1003280002300310DE0DFF3E031D952977085E0796
:10033800F900B401B40A0130DE005E08F7070430A2
:100348007702031CA829A9296B2934080319AD29A8
:10035800AE29122AB40108307906031DB429B5293B
:10036800E8290108DE00DF015E08F4005F08F500F7
:100378000A128A118C270A128A1127308312031352
:10038800D8002330D9000A128A116E250A128A1160
:10039800831203135208DB005108DA000A128A118B
:1003A80028240A128A11831203135808E83E831678
:1003B8000313EB008312031359080318013E033E8D
:1003C80083160313EC00042A79080319EC29ED2994
:1003D800042A7908013E84000A128A117E260A122C
:1003E8008A11DE007608203E84005E0883138000B0
:1003F8000130DE005E08F6077608203E84008001A2
:100408000F308312DE005E0888040F300805DE0016
:100418000F305E06031D112A122A092A0130DE0058
:100428005E08F80703307802031C1B2A1C2A5A2985
:10043800080083120313DC01D51F232A242A312A3A
:10044800D209D309D409D509D20A0319D30A031941
:10045800D40A0319D50ADC01DC0AD91F342A352A43
:10046800442AD609D709D809D909D60A0319D70AB7
:100478000319D80A0319D90A0130DA005A08DC0628
:100488000030E0000030DF000030DE000030DD002A
:1004980055085404530452040319532A542AA12A10
:1004A800DB01DB0A642A0130DA000310D20DD30D18
:1004B800D40DD50DDA0B592A0130DA005A08DB07BA
:1004C800D51F672A682A572A0130DA000310DD0D84
:1004D800DE0DDF0DE00DDA0B6A2A55085902031DFF
:1004E8007F2A54085802031D7F2A53085702031D08
:1004F8007F2A52085602031C822A832A922A52080B
:10050800D6025308031C530FD7025408031C540F78
:10051800D8025508031C550FD9025D140130031089
:10052800D50CD40CD30CD20CFF3E031D932A0130FA
:10053800DB02031DA02AA12A682A5C080319A52A40
:10054800A62AB12ADD09DE09DF09E009DD0A031957
:10055800DE0A0319DF0A0319E00A6008D5005F08FC
:10056800D4005E08D3005D08D2000800831203138C
:10057800CE01CC1FC02AC12ACE2AC909CA09CB0973
:10058800CC09C90A0319CA0A0319CB0A0319CC0AE8
:10059800CE01CE0AC81FD12AD22ADD2AC509C6092A
:1005A800C709C809C50A0319C60A0319C70A0319DE
:1005B800C80A48084704460445040319E42AE52AFA
:1005C800282BCD01CD0AF52A0130F4000310C50D02
:1005D800C60DC70DC80DF40BEA2A0130F4007408E3
:1005E800CD07C81FF82AF92AE82A48084C02031D33
:1005F800072B47084B02031D072B46084A02031D19
:10060800072B45084902031C0A2B0B2B192B4508FD
:10061800C9024608031C460FCA024708031C470FB5
:10062800CB024808031C480FCC0201300310C80C49
:10063800C70CC60CC50CFF3E031D1A2B0130CD029A
:10064800031D272B282BF92A4E0803192C2B2D2B99
:10065800382BC909CA09CB09CC09C90A0319CA0A1E
:100668000319CB0A0319CC0A4C08C8004B08C70069
:100678004A08C6004908C50008000A128A113F271F
:100688000A128A110A128A1151210A128A11831632
:1006980003136A086C06031D532B69086B060319BC
:1006A800562B572BA12BF40101300A128A11A126CF
:1006B8000A128A11831603136B0883120313E100CD
:1006C800831603136C0883120313E2000030E21B45
:1006D800FF30E300E400D930E5000A128A11472010
:1006E8000A128A11D9300A128A11CC260A128A11E2
:1006F80083160313A701143083120313CF0080302D
:10070800D0002F30D100A7300A128A11DC240A1237
:100718008A11D93083120313CF000030D000203063
:10072800D100A7300A128A11DC240A128A11A730D4
:100738000A128A111A270A128A11831603136C08DF
:10074800EA006B08E9006D080319AB2BAC2B462BAC
:10075800F40101300A128A11A1260A128A113530D1
:100768000A128A11CC260A128A1183160313ED0184
:10077800EE01462B0A128A110E2883120313CC00AD
:10078800CA01CB01CD01CE01CF2B0130CD07031813
:10079800CE0A0030CE074D084C07C5004508840036
:1007A80083130008031DD92BDA2BC92B072C4A0801
:1007B8007407C6007508C5000318C50ACA1FE52BCB
:1007C800C503831203134508C7004708FF004608FE
:1007D80084000A128A1174260A128A11C8004D0868
:1007E8004C07C90049088400480883138000013079
:1007F800CA070318CB0A0030CB070130CD0703180E
:10080800CE0A0030CE074A087407C6007508C5002E
:100818000318C50ACA1F112CC50383120313450800
:10082800C7004708FF00460884000A128A11742688
:100838000A128A11003A031D222C232CDB2B4E08A6
:10084800F5004D08F400080083120313DD01DB1FD7
:100858002E2C2F2C362CDA09DB09DA0A0319DB0ACD
:10086800DD01DD0AD91F392C3A2C3F2CD809D909CA
:10087800D80A0319D90A580859040319442C452CD5
:10088800742CDC01DC0A532C01300310D80DD90D6F
:10089800FF3E031D492C0130F5007508DC07D91F00
:1008A800562C572C482C59085B02031D5D2C580800
:1008B8005A02031C602C612C672C5808DA0259086C
:1008C800031CDB03DB0201300310D90CD80CFF3EFC
:1008D800031D682C0130DC02031D732C742C572C6B
:1008E8005D080319782C792C7E2CDA09DB09DA0AE1
:1008F8000319DB0A5B08D9005A08D80008008312DC
:10090800031309118910823083120313C800DD30E4
:10091800C700C70B8D2CC80B8D2C831203138914A9
:10092800F40138300A128A11A1260A128A112130DC
:1009380083120313C8007530C700C70BA12CC80B5E
:10094800A12CA62CF40138300A128A11A1260A1209
:100958008A11073083120313C8007C30C700C70B05
:10096800B32CC80BB32C0000F40138300A128A11DA
:10097800A1260A128A11F40108300A128A11A12646
:100988000A128A11F4010F300A128A11A1260A12DA
:100998008A11F40101300A128A11A1260A128A1159
:1009A800F4010C300A128A11A1260A128A110800D1
:1009B80083120313D5004F08F4005008F5005508BA
:1009C8000A128A11C1230A128A11750883120313A5
:1009D800D4007408D300203051060319F42CF52CE8
:1009E800042D53085507D200520884005108831378
:1009F80080000130D3070318D40A0030D4071F2D14
:100A080053085507D200520884000D308313800024
:100A18000130D3070318D40A0030D4075308550708
:100A2800D200520884000A3080000130D30703182E
:100A3800D40A0030D40753085507D200520884005E
:100A480080010800003083120313D0000030CF006B
:100A58000030CE000030CD00451C332D342D4B2DF9
:100A68004908CD074A0803110318013E03193D2D13
:100A7800CE074B0803110318013E0319442DCF0775
:100A88004C0803110318013E03194B2DD007013000
:100A9800F4000310C90DCA0DCB0DCC0DF40B4D2D70
:100AA80001300310C80CC70CC60CC50CFF3E031D53
:100AB800552D4808470446044504031D642D652D3B
:100AC800302D5008C8004F08C7004E08C6004D0812
:100AD800C5000800831203136C08C8006B08C70020
:100AE8006A08C6006908C5004130CC00C630CB0092
:100AF8004E30CA006D30C9000A128A1126250A1222
:100B08008A11831203134808EC004708EB004608D3
:100B1800EA004508E9003930E90730300318313078
:100B2800EA07003003180130EB07003003180130E2
:100B3800EC076908D3006A08D4006B08D5006C0874
:100B4800D6001030D700560DD60CD50CD40CD30CCB
:100B5800D70BA72DFF305305D1007F305405D200A5
:100B68000800BF3083120313E500650883160313DA
:100B780087058717243083120313E5006508831659
:100B88000313980483120313981718166108E500D5
:100B98006208E6006308E7006408E800063003100E
:100BA800E50DE60DE70DE80DFF3E031DD32D6808A2
:100BB800D5006708D4006608D3006508D200013064
:100BC800D9003130D8002D30D7000030D6000A12B5
:100BD8008A111D220A128A11831203135208FF3E3A
:100BE8008316031399008B170B178C1608008312B2
:100BF80003138C1E002E012E1A2E831603136E0863
:100C0800353E8400831203131A08831380000130D1
:100C1800F000700883160313EE076E08353E840053
:100C28008001ED01ED0A831203138C120B1D1D2E9A
:100C38001E2E2F2E833081000130B007003003189C
:100C48000130B107003003180130B2070030031833
:100C58000130B3070B1173088A0072088400710E03
:100C68008300FE0E7E0E090083120313CD000130AF
:100C7800D0000030D100CE01CF01602E83120313C3
:100C88004D08CB00CC014B08C5004C08C6005108E4
:100C9800C8005008C7000A128A11F3260A128A11DE
:100CA800831203134608D1004508D0000130CE074F
:100CB8000318CF0A0030CF074F08803ACB008030A6
:100CC8004B02031D692E49084E02031C6C2E6D2E23
:100CD800422E831203135108CA005008C9000800A5
:100CE800FF1B7E2E83137F1883170008840A0319BD
:100CF800FF0A080006308A000408840A82070034C4
:100D08002A340734043401340034083405340234F6
:100D180023340934063403340134023404340834E7
:100D2800FE34FD34FB345034493443345F343034BA
:100D380030343034313400340034F5008316031372
:100D48008801891009118312031389147508880012
:100D5800740C031C091103180915143083120313AA
:100D6800C6007930C500C50BB72EC60BB72E831247
:100D780003138910143083120313C6007930C50099
:100D8800C50BC42EC60BC42E831203138914080086
:100D980083120313CA00C801C901E72EF401F40A3B
:100DA80048084A07C7004708840000080A128A1141
:100DB800A1260A128A11013083120313C8070318E7
:100DC800C90A0030C90748084A07C700470884000D
:100DD80083130008031DF12EF22ED22E0800F40111
:100DE800F50183120313451CFA2EFB2E012F470829
:100DF800F4070318F50A4808F50701300310C70D72
:100E0800C80DFF3E031D022F01300310C60CC50C90
:100E1800FF3E031D092F45084604031D142F152FF7
:100E2800F52E7508C6007408C50008008312031360
:100E3800C600C701C801332F47084607C500450843
:100E4800840000080A128A1173270A128A110130D5
:100E580083120313C7070318C80A0030C8074708D6
:100E68004607C5004508840083130008031D3D2F6D
:100E78003E2F202F0800003083120313E4000130B6
:100E8800E300C230E2000030E1000A128A11B52501
:100E98000A128A110A128A1183240A128A110A1262
:100EA8008A1181270A128A110A128A115E270A12E8
:100EB8008A110800A030F40074088B0406308316E9
:100EC8000313810083308312031381000030B300C1
:100ED8000030B2000030B1000030B0000800F5006A
:100EE800831203130C1E792F7A2F742FEF30F4001E
:100EF80074088C057508990008000F30F400740810
:100F0800831603138804F030F4007408860508007B
:100F1800740883120313E9007508EA00EB01EC0179
:100F2800080064008001840A0406031900340406DA
:0C0F3800962F0134003400340034633480
:08400000FF3FFF3FFF3FFF3FC0
:02400E00F23F7F
:00000001FF
