:100000000A128A1110286334FE00030E83120313B0
:10001000B9000408BA000A08BB000A128A15CB2DE1
:100020000A128A111328831603170A128A1511203F
:100030000A128A11D3000A128A1512200A128A1192
:10004000D400831603130A128A1103200A128A119C
:10005000EE00831203130A128A1513200A128A1162
:10006000D0000A128A1514200A128A11D1000A122D
:100070008A1515200A128A11D2000A128A15162032
:100080000A128A11D300831790308400CA300A12F2
:100090008A11F8260A128A111030840042300A129E
:1000A0008A11F8260A128A118313E3308400EE3095
:1000B0000A128A11F8260A128A113C308400503044
:1000C0000A128A11F8260A128A1183010A128A1169
:1000D00069280A128A15CA240A128A11831603177C
:1000E00017080319742875288C2883160313A00198
:1000F00001300A168A1146260A128A11DF30831649
:100100000313A4008730A5000A128A15D0200A1212
:100110008A1183160317970116080319902891284E
:10012000BC2883160313A00101300A168A11462643
:100130000A128A11FE3083160313A4008730A5002B
:100140000A128A15D0200A128A1183160313A001FD
:10015000C0300A168A1146260A128A11F430831614
:100160000313A4008730A5000A128A15D0200A12B2
:100170008A1183160317960115080319C028C12890
:10018000EA2883160313A00101300A168A114626B5
:100190000A128A11D33083160313A4008730A500F6
:1001A0000A128A15D0200A128A110030831603130E
:1001B000EA000030E9000030E8000030E7000030DD
:1001C000E6000030E5000330E400E830E300831689
:1001D0000317950114080319EE28EF283D2983160B
:1001E0000313A00101300A168A1146260A128A1149
:1001F00083160317120883160313D90083160317F7
:10020000130883160313DA000030DA1BFF30DB001B
:10021000DC004230DD000A128A15F6260A128A1125
:10022000EA3083160313A4008730A5000A128A154A
:10023000D0200A128A11423083160313A400013021
:10024000A5000A128A15D0200A128A1183160313F8
:10025000A001C0300A168A1146260A128A113730C8
:1002600083160313A4008730A5000A128A15D02034
:100270000A128A118316031794010A128A110B2499
:100280000A128A1183160317210820060319492927
:100290004A297729540803194E294F2977298316AB
:1002A0000313A00101300A168A1146260A128A1188
:1002B0005B3083160313A4008730A5000A128A1549
:1002C000D0200A128A1183160313A001C0300A1627
:1002D0008A1146260A128A11C63083160313A40017
:1002E0000130A5000A128A15D0200A128A1183163D
:1002F00003172108A00011081306031D8129100807
:100300001206031984298529032A83160313A001E1
:1003100001300A168A1146260A128A11831603171B
:10032000120883160313D9008316031713088316C4
:100330000313DA000030DA1BFF30DB00DC00523040
:10034000DD000A128A15F6260A128A11EA3083168F
:100350000313A4008730A5000A128A15D0200A12C0
:100360008A11523083160313A4000130A5000A122B
:100370008A15D0200A128A1183160313A001C030F7
:100380000A168A1146260A128A116C308316031344
:10039000A4008730A5000A128A15D0200A128A11FB
:1003A000303083160317B3002F30B400B501C630C8
:1003B00083160313B3000130B4002F30B500B330FF
:1003C0000A128A1586200A128A1130308316031702
:1003D000B9002F30BA00BB01523083160313B300AB
:1003E0000130B4002030B500B3300A128A158620DF
:1003F0000A128A1183160313C101B3300A128A1537
:10040000FD220A128A11831603171308910012089D
:1004100090001B0803190D2A0E2AEB2A10300A122D
:100420008A112B260A128A113130831603171F06F0
:10043000031D1B2A1C2AA02AC23083160313A700FF
:100440000130A800C630A9000A128A15DC210A1260
:100450008A11003A03192D2A2E2AA02A3030831639
:1004600003171E06031D352A362AA02A3030B30092
:100470002F30B400B501C63083160313B30001302A
:10048000B4002F30B500B3300A128A1586200A1244
:100490008A110E3083160313B3008830B400203065
:1004A000B500B3300A128A1586200A128A11831603
:1004B0000313C101C10AB3300A128A15FD220A12C0
:1004C0008A11831603179A019A0A920193019001E7
:1004D00091010330D30083160313A00101300A16E3
:1004E0008A1146260A128A11493083160313A40082
:1004F0008730A5000A128A15D0200A128A118316A5
:100500000313A001C0300A168A1146260A128A1166
:10051000BA3083160313A4008730A5000A128A1587
:10052000D0200A128A1183160313A001A00A831691
:1005300003175308303E0A168A1146260A128A11FA
:100540003130831603171F06031DA72AA82AE52AA0
:10055000C23083160313A7000130A800C630A900DB
:100560000A128A15DC210A128A11003A0319B92AE3
:10057000BA2AE52A3230831603171E06031DC12A44
:10058000C22AE52A120813040319C72AC82AD32A43
:10059000003083160313E6000030E5001D30E40050
:1005A0004C30E300E52A003083160313EA000030E4
:1005B000E9000030E8000030E7000030E6000030DD
:1005C000E5000330E400E830E300831603179B01E5
:1005D00083120313BE018316031719080319F12AA6
:1005E000F22A392B83160313A00101300A168A114F
:1005F00046260A128A11C73083160313A4008730D7
:10060000A5000A128A15D0200A128A118316031730
:100610009C019D0199019A010330D3003030B30051
:100620002F30B400B501C63083160313B300013078
:10063000B4002F30B500B3300A128A1586200A1292
:100640008A110A3083160313B3008830B4002030B7
:10065000B500B3300A128A1586200A128A11831651
:100660000313C101B3300A128A15FD220A128A113E
:10067000CE2B530803193D2B3E2B842B0330530202
:100680000318432B442B842B18080319482B492BA0
:10069000842B83160313A00101300A168A11462603
:1006A0000A128A11AB3083160313A4008730A50009
:1006B0000A128A15D0200A128A1183160313A00188
:1006C000C0300A168A1146260A128A11BA308316D9
:1006D0000313A4008730A5000A128A15D0200A123D
:1006E0008A1183160313A001A00A83160317530867
:1006F000303E0A168A1146260A128A1183160317FB
:100700009C019D019801CE2B5308031D882B892B3A
:10071000CE2B83160313A00101300A168A11462638
:100720000A128A118C3083160313A4008730A500A7
:100730000A128A15D0200A128A1103308316031771
:10074000D3009C019D019A013030B3002F30B400DA
:10075000B501C63083160313B3000130B4002F3047
:10076000B500B3300A128A1586200A128A110630A3
:1007700083160313B3008830B4002030B500B330C3
:100780000A128A1586200A128A1183160313C101E0
:10079000B3300A128A15FD220A128A118316031732
:1007A0001D081C060319D52BD62B032C1A08031978
:1007B000DA2BDB2B032C83160313A00101300A165E
:1007C0008A1146260A128A11253083160313A400C3
:1007D0008730A5000A128A15D0200A128A118316C2
:1007E0000313A001C0300A168A1146260A128A1184
:1007F000A23083160313A4000130A5000A128A1543
:10080000D0200A128A11831603171D089C006E2837
:100810000A128A1110280F3083160313C1004108F1
:100820008804ED010730C1004108831203138604D8
:10083000831603136D08223E840087300318013E9F
:1008400083120313FF000A128A1100270A128A1169
:1008500083160313C1004108831203138605831610
:100860000313EC016C081E3E840087300318013E20
:1008700083120313FF000A128A1100270A128A1139
:100880000805031D442C452C742C213083160313BA
:10089000C2007530C100C10B4B2CC20B4B2C502C2D
:1008A000831603136C081E3E840087300318013E34
:1008B00083120313FF000A128A1100270A128A11F9
:1008C0000805031D642C652C742C831603136D0816
:1008D000C10002300310C10DFF3E031D6A2C6C08DD
:1008E0004107EE00EB01EB0A013083160313C10050
:1008F0004108EC0704306C02031C7F2C802C322C46
:100900006B080319842C852C202EEB0108306E0611
:10091000031D8B2C8C2C882D831603175408031968
:10092000922C932C102D033021020318982C992C13
:100930009F2CC6300A128A1538220A128A11831691
:100940000317460883160313C100C2014108BB0008
:100950004208BC006430BD000030BE000A128A1597
:1009600017200A128A11831603133B08C3003C08A0
:10097000C40083160317470883160313C500C60176
:100980004508BB004608BC000A30BD000030BE0070
:100990000A128A1517200A128A11831603133B08BC
:1009A0004307C7003C0803183C0A4407C8008316E5
:1009B00003174808831603134707C90000300318BC
:1009C00001304807CA004908303ECB004A080318E6
:1009D000013EEB3ECC004C08803AFF0080307F02A5
:1009E000031DF42CFB304B020318F72CF82C082DB8
:1009F000831603134B08A00000300A168A117926CB
:100A00000A128A11831603179501950AD4010D2E37
:100A1000831603179601960AC601A001A1010D2EA7
:100A20001A08031D142D152D5E2D4C30831603134B
:100A300063061D3003196406650466040319212D3D
:100A4000222D5E2D831603136808A1006708A000FD
:100A50000A168A11C3250A128A1127308316031336
:100A6000B4002330B5000A128A156C230A128A11C9
:100A7000831603132E08B7002D08B6000A128A1534
:100A800081210A128A11831603133408E83E831663
:100A9000031792008316031335080318013E033E23
:100AA000831603179300003083160313E60000300B
:100AB000E5000030E4000030E3000D2E831603173C
:100AC0001A080319642D652D7C2D3F3083160313FE
:100AD000A7000030A800A230A9000A128A15DC2164
:100AE0000A128A11003A0319762D772D7C2D831670
:100AF00003179901990A0D2E831603171A08031973
:100B0000822D832D0D2E0130D3029801980A0D2ECF
:100B10006E08031D8C2D8D2DB32D831603171A0817
:100B20000319932D942DA12D1D080319982D992D8E
:100B3000A12D01309D021D08A23E84008317800173
:100B40000D2E54080319A52DA62D0D2E21080319CD
:100B5000AA2DAB2D0D2E0130A1022108C63E840026
:100B6000831780010D2E831603171A080319B92D58
:100B7000BA2DDE2D831603136E08123E84008730D3
:100B80000318013E83120313FF000A128A11002783
:100B90000A128A1183160313C100831603171D0856
:100BA000A23E84008316031341088317800001309E
:100BB000C1004108831603179D079B2D5408031994
:100BC000E22DE32D0D2E033021020318E82DE92D2F
:100BD0000D2E831603136E08123E8400873003180F
:100BE000013E83120313FF000A128A1100270A1222
:100BF0008A1183160313C100831603172108C63E0A
:100C00008400831603134108831780000130C1005C
:100C1000410883160317A107AD2D0F300313C10040
:100C200041088312031388040F30831208058316CA
:100C30000313C1000F304106031D1F2E202E142E5A
:100C40000130C1004108ED0703306D02031C292E5D
:100C50002A2E122C080083160313B800B601B70120
:100C6000B401B5013808A0000130A1000A128A11B0
:100C7000D0260A128A11831603132108AE00200819
:100C8000AD00B901BA01B92E83160313390838072C
:100C9000AA002A0884002F30831700060319512E5A
:100CA000522E962E39083807AA002A088400000818
:100CB00003195B2E5C2E962E39083807AA002A08E5
:100CC00084000008AB003608AF3E84002B08831375
:100CD00080000130B6070318B70A0030B70736089E
:100CE000AF3E84008001B32E2F08831603179F00A8
:100CF000A92EC230A0000130A100AF30A2000A1618
:100D00008A11B9270A128A11A92E2F0883160317F0
:100D10009E00A92E3F30A0000030A100AF30A200FD
:100D20000A168A11B9270A128A11A92E3508003A23
:100D300003199B2EA92E3408003A0319742E013A88
:100D40000319792E033A0319852E013A03198A2EC5
:100D5000A92E013083160313B4070318B50A003017
:100D6000B507B601B7010130B9070318BA0A003058
:100D7000BA072D08013EAA002E080318013E003EC6
:100D8000AB003A08803AAC002B08803A2C02031DD5
:100D9000CB2E2A083902031CCE2ECF2E442E08005B
:100DA00083160313A501A601DB2E0130A507031846
:100DB000A60A0030A60725082007A3002108A200E4
:100DC0000318A20AA51FE52EA20383160313220807
:100DD000A400230884008317241C83130008031D28
:100DE000F22EF32ED52E2608A1002508A00008001B
:100DF00064008001840A0406031900340406F92EF5
:100E0000FF1B0A2F83137F1883170008840A031916
:100E1000FF0A08007F087F398A000408840A031942
:100E2000FF0A82002A3437343434313430343834D1
:100E300035343234233439343634333401340234E3
:100E400004340834FE34FD34FB3423343D3463343D
:100E50006F346E3466342E3420342A343D34633497
:100E600061346E3463342E3400340034003423345F
:100E70002034703465347234203461346C3474340A
:100E800072346F34203463346F3464342E3400345D
:100E9000003449346E3473346534723469347334D5
:100EA00063346934203463346F34643469346334B4
:100EB00065340034003423343D3463346F346E348D
:100EC00066342E3420342A343D34633461346E3435
:100ED00063342E3400340034413474347434653453
:100EE0006E346434693420343334303473342E3403
:100EF0002E342E340034003449346E347334653467
:100F000072342E342034493444342034503449343B
:100F100043343A3400340034543465346E34743419
:100F20002E3420346534733461347534723469344A
:100F300074346934003400344D3449344E343D3413
:100F400030342C344D34413458343D34323435341B
:100F500030340034003443346F34643469346334DF
:100F600065342034653472347234613474346F34CF
:100F700000340034543465346E3474346134743461
:100F80006934763469343A342034003400344234DD
:100F900065346E34763465346E34753474346F343D
:100FA000213400340034493444342034533461341F
:100FB0006C347634613474346F340034003450341B
:100FC000723465346D346934203427342334273443
:100FD0000034003443346F3464346934633465342A
:100FE0003A342034003400344934443420343E341C
:100FF0002034323435343034003400344534523403
:1010000052344F34523445340034003431342F34A8
:101010003034003431342F3431340034323400343D
:1010220003340134013400340034003483160313D2
:10103200BF01C0013B1C1E281F2825283D08BF07F1
:101042000318C00A3E08C00701300310BD0DBE0DD3
:10105200FF3E031D262801300310BC0CBB0CFF3ED3
:10106200031D2D283B083C04031D382839281B2862
:101072004008BC003F08BB00080000308316031381
:10108200AC000030AB000030AA000030A900201CE8
:101092004B284C2863282408A907250803110318A4
:1010A200013E03195528AA07260803110318013E19
:1010B20003195C28AB07270803110318013E031923
:1010C2006328AC070130A8000310A40DA50DA60DDE
:1010D200A70DA80B652801300310A30CA20CA10CCC
:1010E200A00CFF3E031D6D282308220421042004C6
:1010F200031D7C287D2848282C08A3002B08A20069
:101102002A08A1002908A000080083160313B900C9
:101112003308A7003408A80039080A128A15DD230B
:101122000A128A15831603132808B8002708B70085
:101132002030350603199E289F28AE283708390724
:10114200B600360884003508831780000130B707DF
:101152000318B80A0030B807C92837083907B6009B
:10116200360884000D30831780000130B70703185A
:10117200B80A0030B80737083907B60036088400C5
:101182000A3080000130B7070318B80A0030B807E8
:1011920037083907B6003608840080010800831634
:1011A2000313A901AA01032983160313A001A00AAC
:1011B20029082407A7002508A6000318A60AA91FC4
:1011C200E328A603831603132608A800280883121F
:1011D2000313FF00831603132708840083120313EB
:1011E2000A128A1100270A128A150A168A1146263D
:1011F2000A128A15013083160313A9070318AA0AD3
:101202000030AA0729082407A7002508A60003180A
:10121200A60AA91F0D29A603831603132608A800F0
:10122200280883120313FF00831603132708840080
:10123200831203130A128A1100270A128A15003A2E
:10124200031D24292529D528080083120313AC0184
:10125200AA1F2C292D293429A909AA09A90A031987
:10126200AA0AAC01AC0AA81F372938293D29A709C7
:10127200A809A70A0319A80A27082804031942295A
:1012820043297229AB01AB0A512901300310A70D82
:10129200A80DFF3E031D47290130FD007D08AB0765
:1012A200A81F54295529462928082A02031D5B290B
:1012B20027082902031C5E295F2965292708A9023C
:1012C2002808031CAA03AA0201300310A80CA70CC9
:1012D200FF3E031D66290130AB02031D71297229ED
:1012E20055292C080319762977297C29A909AA09E5
:1012F200A90A0319AA0A2A08A8002908A7000800AF
:1013020083160313BA01B71F872988298F29B609C3
:10131200B709B60A0319B70ABA01BA0AB51F922960
:1013220093299829B409B509B40A0319B50A3408EE
:10133200350403199D299E29CD29B901B90AAC2981
:1013420001300310B40DB50DFF3E031DA22901307B
:10135200B8003808B907B51FAF29B029A129350847
:101362003702031DB62934083602031CB929BA29EB
:10137200C0293408B6023508031CB703B70201308E
:101382000310B50CB40CFF3E031DC1290130B90294
:10139200031DCC29CD29B0293A080319D129D22914
:1013A200D729B609B709B60A0319B70A3708B5002B
:1013B2003608B4000800831603132708A000280883
:1013C200A1000A128A11D0260A128A158316031363
:1013D2002008AA002108AB002908A0000130A100C2
:1013E2000A128A11D0260A128A15831603132108BB
:1013F2002B06031DFE2920082A060319012A022AA8
:10140200042A0030372AAE01252A2E082907AA000D
:101412002A08840083170008AB002E082707AC00B7
:1014220028080318013EAD002C08840083172D1CE8
:10143200831300082B0603191F2A202A212A022AB5
:101442000130AA002A08AE072E082707AA0028089A
:101452000318013EAB002A08840083172B1C831358
:101462000008031D352A362A062A01300800831691
:101472000313AA002A08A0000130A1000A128A114F
:10148200D0260A128A15831603132108A900200800
:10149200A8002908803AFF0080307F02031D532AEA
:1014A200033028020318562A572A952A862A2A0820
:1014B200033E8400831780012A0884000008A700E5
:1014C2002A08023E8400270880002A0A840030305D
:1014D20080002A08840030308000952A2A08033EC2
:1014E2008400831780012A0A84000008A7002A08C2
:1014F200023E8400270880002A0884000008A70012
:101502002A0A8400270880006A2A831603132908FE
:10151200003A03198D2A952A2808013A0319582AF4
:10152200033A03196F2A952A08008312031309113B
:101532008910823083160313A500DD30A400A40BAA
:10154200A02AA50BA02A831203138914831603135E
:10155200A00138300A168A1146260A128A1521304D
:1015620083160313A5007530A400A40BB62AA50B9D
:10157200B62ABB2A83160313A00138300A168A1131
:1015820046260A128A15073083160313A5007C30FB
:10159200A400A40BCA2AA50BCA2A000083160313AF
:1015A200A00138300A168A1146260A128A158316B5
:1015B2000313A00108300A168A1146260A128A1558
:1015C20083160313A0010F300A168A1146260A1247
:1015D2008A1583160313A00101300A168A114626C2
:1015E2000A128A1583160313A0010C300A168A11F7
:1015F20046260A128A15080083160313C500C30182
:10160200C401162B43084507C200420884000008A3
:101612000A168A11D2250A128A150130831603137B
:10162200C3070318C40A0030C40743084507C200B1
:101632004208840083170008031D202B212B032B53
:101642004108031D252B262B6B2B6808A100670878
:10165200A0000A168A11C3250A128A1500308316C1
:101662000313EA000030E9000030E8000030E70030
:101672000A30B4000030B5000A128A156C230A122F
:101682008A15831603132E08B7002D08B6000A1216
:101692008A1581210A128A15831603133408053E1E
:1016A200BB0035080318013E003EBC00FA30BD0005
:1016B2000030BE000A128A1517200A128A158316F4
:1016C20003133B08E3003C08E4000030E41BFF3056
:1016D200E500E60008008312031353088316031380
:1016E200A30083120313520883160313A20083126A
:1016F2000313510883160313A10083120313500826
:1017020083160313A0004130A700C630A6004E3056
:10171200A5006D30A4000A128A153E200A128A150D
:1017220083160313230883120313D30083160313B0
:10173200220883120313D200831603132108831293
:101742000313D10083160313200883120313D0005E
:101752003930D007303003183130D1070030031848
:101762000130D207003003180130D3075008831626
:101772000313AF0083120313510883160313B0003F
:1017820083120313520883160313B1008312031347
:10179200530883160313B2001030B300320DB20C9B
:1017A200B10CB00CAF0CB30BCF2BFF302F05AD003B
:1017B2007F303005AE00080083160313AE00AF0180
:1017C200B0012E08A0000130A1000A128A11D02611
:1017D2000A128A15831603132108B2002008B100E9
:1017E200282C831603132F082707AA002808A9000C
:1017F2000318A90AAF1FFE2BA90383160313290896
:10180200AB002B0883120313FF00831603132A086D
:101812008400831203130A128A1100270A128A15FE
:1018220083160313AC0031082E07AD002D08840087
:101832002C08831780000130AF070318B00A00306C
:10184200B0070130B1070318B20A0030B2072F08FF
:101852002707AA002808A9000318A90AAF1F322CDB
:10186200A903831603132908AB002B088312031361
:10187200FF00831603132A088400831203130A123B
:101882008A1100270A128A15003A031D492C4A2C94
:10189200F22B831603133208A8003108A7000800B0
:1018A20083120313B500B601B7016A2C3608350757
:1018B200B4003408840000080A168A11B5250A12F9
:1018C2008A15013083120313B6070318B70A0030D2
:1018D200B70736083507B4003408840083170008B8
:1018E200031D742C752C572C3308031D792C7A2C6C
:1018F200C92C831603136808F1006708F0000A1662
:101902008A11A1250A128A15003083160313EA00F0
:101912000030E9000030E8000030E7000A308312AE
:101922000313A7000030A8000A168A1172270A12B0
:101932008A15831203132108AA002008A9000A129B
:101942008A1526210A128A15831203132708053ED7
:10195200AD0028080318013E003EAE00FA30AF0089
:101962000030B0000A168A111F260A128A15831245
:1019720003132D0883160313E300831203132E08A7
:1019820083160313E4000030E41BFF30E500E60099
:101992000800003083160313DC000130DB00C23084
:1019A200DA000030D9000A168A11EC260A128A15CA
:1019B2000A128A1596220A128A150A168A11AA256D
:1019C2000A128A150A168A11E9250A128A150030A6
:1019D2000A168A1100260A128A1583160313E100D9
:1019E200E201610883160317D1008316031362080C
:1019F20083160317D200510A5204031D012D022D32
:101A0200222D7C3083160313A4008730A5000A120E
:101A12008A15D0200A128A1583160313A001C0303A
:101A22000A168A1146260A128A159C308316031357
:101A3200A4008730A5000A128A15D0200A128A153E
:101A4200432D510883160313D90083160317520836
:101A520083160313DA000030DA1BFF30DB00DC00F0
:101A6200C630DD000A128A15F6260A128A15C63019
:101A72000A128A1538220A128A1583160317D4010C
:101A82009701970A080083160313AA01A71F4A2D7C
:101A92004B2D582DA409A509A609A709A40A0319C3
:101AA200A50A0319A60A0319A70AAA01AA0AA31FCB
:101AB2005B2D5C2D672DA009A109A209A309A00A2B
:101AC2000319A10A0319A20A0319A30A230822046B
:101AD2002104200403196E2D6F2DB22DA901A90A2C
:101AE2007F2D0130A8000310A00DA10DA20DA30DA2
:101AF200A80B742D0130A8002808A907A31F822D66
:101B0200832D722D23082702031D912D2208260200
:101B1200031D912D21082502031D912D2008240269
:101B2200031C942D952DA32D2008A4022108031C2B
:101B3200210FA5022208031C220FA6022308031C60
:101B4200230FA70201300310A30CA20CA10CA00CBE
:101B5200FF3E031DA42D0130A902031DB12DB22D9C
:101B6200832D2A080319B62DB72DC22DA409A50964
:101B7200A609A709A40A0319A50A0319A60A0319A3
:101B8200A70A2708A3002608A2002508A100240806
:101B9200A00008008C1ECE2DCF2DE42D3E08103E55
:101BA20084001A08831780000130B8003808BE0785
:101BB2003E08103E84008001831603179B019B0A96
:101BC200831203138C120B1DE72DE82D4E2E83304A
:101BD2008100013083160313E70700300318013038
:101BE200E807003003180130E9070030031801301C
:101BF200EA0766086504640463040319012E022ED1
:101C02004D2E6A086602031D102E69086502031D27
:101C1200102E68086402031D102E67086302031861
:101C2200132E142E4D2EE83063060330031964067A
:101C320065046604031D1E2E1F2E322E8316031703
:101C42009701970A003083160313E6000030E5007F
:101C52000030E4000030E30083120313BC01BD0135
:101C62004D2E4C308316031363061D300319640690
:101C720065046604031D3E2E3F2E442E8316031771
:101C82009401940A232E83120313B301B3300A1270
:101C92008A1551240A128A150B11831203133B0869
:101CA2008A003A088400390E8300FE0E7E0E090077
:101CB20083160313D401CD1F5F2E602E6D2ECA0929
:101CC200CB09CC09CD09CA0A0319CB0A0319CC0ADC
:101CD2000319CD0AD401D40AD11F702E712E802E81
:101CE200CE09CF09D009D109CE0A0319CF0A0319A7
:101CF200D00A0319D10A0130D2005208D4060030AA
:101D0200D8000030D7000030D6000030D5004D0892
:101D12004C044B044A0403198F2E902EDD2ED3015E
:101D2200D30AA02E0130D2000310CA0DCB0DCC0D68
:101D3200CD0DD20B952E0130D2005208D307CD1F04
:101D4200A32EA42E932E0130D2000310D50DD60D52
:101D5200D70DD80DD20BA62E4D085102031DBB2E56
:101D62004C085002031DBB2E4B084F02031DBB2E15
:101D72004A084E02031CBE2EBF2ECE2E4A08CE02A9
:101D82004B08031C4B0FCF024C08031C4C0FD00214
:101D92004D08031C4D0FD102551401300310CD0C18
:101DA200CC0CCB0CCA0CFF3E031DCF2E0130D3024C
:101DB200031DDC2EDD2EA42E54080319E12EE22E83
:101DC200ED2ED509D609D709D809D50A0319D60A9D
:101DD2000319D70A0319D80A5808CD005708CC00AE
:101DE2005608CB005508CA00080083160317CE0117
:101DF200CF01CC01CD0183160313DC1F012F022F6B
:101E02002E2F013083160317CE000030CF00831629
:101E120003135D0884002D3083178000FF30A30078
:101E2200FF30A200FF30A100FF30A0005C08A70035
:101E32005B08A6005A08A5005908A4000A128A15D0
:101E42003E200A128A15831603132308DC00220897
:101E5200DB002108DA002008D90083160317D0011D
:101E6200D00A392F0130DE005E0883160317D0072F
:101E7200500883160313C1000A300A168A11B026CD
:101E82000A128A15831603134108CA004208CB00BE
:101E92000030CB1BFF30CC00CD005C08D1005B08CA
:101EA200D0005A08CF005908CE000A128A155926C6
:101EB2000A128A15831603134D084C044B044A0474
:101EC200031D642F652F332FE12F831603174C0850
:101ED2005002FF3E83160313C1000A300A168A110C
:101EE200B0260A128A1583160313420883160317B3
:101EF200CB0083160313410883160317CA004E084A
:101F0200831603135D07DE005E0884008316031741
:101F12004A0883160313CA00831603174B08831655
:101F22000313CB000030CB1BFF30CC00CD005C088C
:101F3200D1005B08D0005A08CF005908CE000A121F
:101F42008A1559260A128A15831603134A08303E47
:101F520083178000831603174A0883160313A00011
:101F6200831603174B0883160313A1000030A11B2D
:101F7200FF30A200A3005C08A7005B08A6005A0875
:101F8200A5005908A4000A128A1544250A128A15C6
:101F9200831603132308DC002208DB002108DA0081
:101FA2002008D900013083160317CE070318CF0A81
:101FB2000030CF070130CC070318CD0A0030CD071F
:101FC200831603174D08803A83160313DE00803010
:101FD2005E02031DF02F8316031750084C02031CE8
:101FE200F32FF42F662F831603174E08831603135D
:0E1FF2005D07DE005E08840083178001080092
:102B4200700883120313D0007108D100D201D3019F
:102B520008000F3083160313A00020088804F03009
:102B6200A000200886050800F100831203130C1E42
:102B7200BB2DBC2DB62DEF30F00070088C0571080E
:102B82009900080083160313200883120313D00050
:102B920083160313210883120313D100D201D30138
:102BA200080083160313A10083120C1ED92DDA2DFF
:102BB200D52DEF3083160313A000200883120313D0
:102BC2008C0583160313210883120313990008004E
:102BD200A03083160313A00020088B040630810066
:102BE2008330831203138100003083160313EA003B
:102BF2000030E9000030E8000030E70008008316EA
:102C02000313A1006400831603178C18092E0C2EDF
:102C120083160313032E831603132108831203174B
:102C22008D003F3083160313A0002008831603177C
:102C32008C050C14831203170C080800831203136B
:102C4200B101B2012D1C262E272E2D2E2F08B107E1
:102C52000318B20A3008B20701300310AF0DB00DED
:102C6200FF3E031D2E2E01300310AE0CAD0CFF3EB5
:102C7200031D352E2D082E04031D402E412E232E1A
:102C82003208AE003108AD00080083160313A3001A
:102C920088018910091183120313891483160313FF
:102CA200230883120313880083160313200C831254
:102CB2000313031C09110318091514308316031397
:102CC200A2007930A100A10B642EA20B642E831204
:102CD20003138910143083160313A2007930A10064
:102CE200A10B712EA20B712E8312031389140800FB
:102CF20083160313A200831603178C18812E822ECB
:102D02007C2E831603132208831203178D00831669
:102D120003132008831203178C003F30831603131A
:102D2200A1002108831603178C05831203130310D5
:102D32008B1F9C2E9D2E9E2E03148B13831603171E
:102D42000C1555308D00AA308D008C140C11831295
:102D52000313031CAD2EAE2EAF2E8B170800831665
:102D62000313C5000130C8000030C900C601C70105
:102D7200D82E831603134508C300C4014308BB00C1
:102D82004408BC004908BE004808BD000A128A1562
:102D920017200A168A11831603133C08C9003B0840
:102DA200C8000130C6070318C70A0030C707470822
:102DB200803AC30080304302031DE12E41084602DF
:102DC200031CE42EE52EBA2E831603134908C20013
:102DD2004808C1000800BF3083160313DD005D08F8
:102DE200870587172430DD005D08980483120313DA
:102DF20098171816831603135908DD005A08DE00C7
:102E02005B08DF005C08E00006300310DD0DDE0D1C
:102E1200DF0DE00DFF3E031D062F6008CD005F08A9
:102E2200CC005E08CB005D08CA000130D100313011
:102E3200D0002D30CF000030CE000A128A1559265C
:102E42000A168A11831603134A08FF3E99008B174C
:102E52000B178C1608000030FC000030FB0000301D
:102E6200FA000030F900701C372F382F4F2F7408EA
:102E7200F907750803110318013E0319412FFA07D8
:102E8200760803110318013E0319482FFB07770840
:102E920003110318013E03194F2FFC070130F800FC
:102EA2000310F40DF50DF60DF70DF80B512F01304F
:102EB2000310F30CF20CF10CF00CFF3E031D592F22
:102EC2007308720471047004031D682F692F342F74
:102ED2007C08F3007B08F2007A08F1007908F00020
:102EE2000800831203135308F3005208F20051083A
:102EF200F1005008F0004130F700C630F6004E30C5
:102F0200F5006D30F4000A168A112C270A168A1170
:102F1200730883120313D3007208D2007108D10020
:102F22007008D0003930D007303003183130D10763
:102F3200003003180130D207003003180130D307E4
:102F42005008A2005108A3005208A4005308A5008B
:102F52001030A600250DA50CA40CA30CA20CA60BE8
:102F6200AB2FFF302205A0007F302305A10008000F
:102F720083160313A801A901E02F28082207A30042
:102F8200230884000008A40028082007A6002108BE
:102F9200A5000318A50AA81FCF2FA50383160313A4
:102FA2002508A700260884008317271C83132408FA
:102FB20080000130A8070318A90A0030A9072808D1
:102FC2002207A3002308840083130008031DEA2FAD
:102FD200EB2FBE2F28082007A4002108A300031806
:102FE200A30AA81FF52FA303831603132308A50022
:0E2FF200240884008317251C83138001080027
:08400000FF3FFF3FFF3FFF3FC0
:02400E00F23F7F
:00000001FF
