:100000000A128A1110286334FE00030E83120313B0
:10001000B9000408BA000A08BB000A128A15C32CEA
:100020000A128A111328831603170A128A151A2036
:100030000A128A11CF000A128A151B200A128A118D
:10004000D000831603130A128A1103200A128A11A0
:10005000EF00831203130A168A1111250A128A115E
:10006000D0000A168A1112250A128A11D1000A1626
:100070008A1113250A128A11D2000A168A11142530
:100080000A128A11D300831790308400CB300A16ED
:100090008A1115250A128A111030840042300A167E
:1000A0008A1115250A128A118313E4308400EF3077
:1000B0000A168A1115250A128A113E308400503022
:1000C0000A168A1115250A128A1183010A128A1149
:1000D00069280A128A15E5220A128A118316031763
:1000E0001808031974287528A02883120313BC016B
:1000F00001300A168A11C3250A128A11DE308316CE
:100100000313A2008730A3000A128A153B200A12AB
:100110008A1183120313BC01C0300A168A11C32549
:100120000A128A115A3083160313A2008730A300E3
:100130000A128A153B200A128A11831603179801A6
:1001400017080319A428A528D02883120313BC017B
:1001500001300A168A11C3250A128A110730831644
:100160000313A2008830A3000A128A153B200A124A
:100170008A1183120313BC01C0300A168A11C325E9
:100180000A128A11F33083160313A2008730A300EA
:100190000A128A153B200A128A1183160317970147
:1001A00016080319D428D528002983120313BC018B
:1001B00001300A168A11C3250A128A1107308316E4
:1001C0000313A2008830A3000A128A153B200A12EA
:1001D0008A1183120313BC01C0300A168A11C32589
:1001E0000A128A11FD3083160313A2008730A30080
:1001F0000A128A153B200A128A11831603179601E8
:1002000015080319042905292E2983120313BC019B
:1002100001300A168A11C3250A128A11D2308316B8
:100220000313A2008730A3000A128A153B200A128A
:100230008A11003083160313EB000030EA0000300F
:10024000E9000030E8000030E7000030E60003304D
:10025000E500E830E400831603179501140803193C
:1002600032293329812983120313BC0101300A1674
:100270008A11C3250A128A118316031712088316DE
:100280000313D70083160317130883160313D8002C
:100290000030D81BFF30D900DA004230DB000A12F0
:1002A0008A1526270A128A11E93083160313A20041
:1002B0008730A3000A128A153B200A128A114230A5
:1002C00083160313A2000130A3000A128A153B20F3
:1002D0000A128A1183120313BC01C0300A168A1154
:1002E000C3250A128A11253083160313A200873012
:1002F000A3000A128A153B200A128A1183160317DB
:1003000094010A128A1159240A128A1183160317BA
:100310002208210603198D298E29BB2950080319AB
:1003200092299329BB2983120313BC0101300A16B9
:100330008A11C3250A128A11493083160313A200B9
:100340008730A3000A128A153B200A128A118312F1
:100350000313BC01C0300A168A11C3250A128A1180
:10036000C73083160313A2000130A3000A128A15B6
:100370003B200A128A11831603172208A1001108D4
:100380001306031DC529100812060319C829C92917
:10039000472A83120313BC0101300A168A11C325B0
:1003A0000A128A1183160317120883160313D70043
:1003B00083160317130883160313D8000030D81BC5
:1003C000FF30D900DA005230DB000A128A152627E6
:1003D0000A128A11E93083160313A2008730A300A2
:1003E0000A128A153B200A128A115230831603130F
:1003F000A2000130A3000A128A153B200A128A11BA
:1004000083120313BC01C0300A168A11C3250A12D5
:100410008A116B3083160313A2008730A3000A12DF
:100420008A153B200A128A11303083160317B40054
:100430002F30B500B601C73083160313B100013069
:10044000B2002F30B300B4300A168A1166270A12A0
:100450008A11303083160317BA002F30BB00BC015D
:10046000523083160313B1000130B2002030B300C4
:10047000B4300A168A1166270A128A1183160313EA
:10048000BF01B4300A128A1559230A128A11831641
:10049000031713089100120890001C080319512A31
:1004A000522A392B10300A128A1579260A128A111B
:1004B0003130831603172006031D5F2A602AEE2AB7
:1004C000C33083160313A5000130A600C730A70070
:1004D0000A128A1575220A128A11003A0319712A22
:1004E000722AEE2A3030831603171F06031D792A5D
:1004F0007A2AEE2A3030B4002F30B500B601C7306A
:1005000083160313B1000130B2002F30B300B430B2
:100510000A168A1166270A128A11173083160313E6
:10052000B1008830B2002030B300B4300A168A110E
:1005300066270A128A1183160313BF01BF0AB4305B
:100540000A128A1559230A128A11831603179B016E
:100550009B0A92019301900191010330CF00831215
:100560000313BC0101300A168A11C3250A128A112D
:10057000373083160313A2008730A3000A128A15AE
:100580003B200A128A1183120313BC01C0300A16E1
:100590008A11C3250A128A11B93083160313A200E7
:1005A0008730A3000A128A153B200A128A1183128F
:1005B0000313BC01BC0A831603174F08303E0A160A
:1005C0008A11C3250A128A11003083160313E7002B
:1005D0000030E6000030E5000030E40031308316E2
:1005E00003172006031DF52AF62A332BC330831682
:1005F0000313A5000130A600C730A7000A128A1510
:1006000075220A128A11003A0319072B082B332B83
:100610003230831603171F06031D0F2B102B332BAD
:10062000120813040319152B162B212B00308316E7
:100630000313E7000030E6001D30E5004C30E40015
:10064000332B003083160313EB000030EA00003038
:10065000E9000030E8000030E7000030E600033039
:10066000E500E830E400831603179C0183120313AE
:10067000BE01831603171A0803193F2B402B872B43
:1006800083120313BC0101300A168A11C3250A1212
:100690008A11C63083160313A2008730A3000A1202
:1006A0008A153B200A128A11831603179D019E01A9
:1006B0009A019B010330CF003030B4002F30B500D9
:1006C000B601C73083160313B1000130B2002F30DA
:1006D000B300B4300A168A1166270A128A11133041
:1006E00083160313B1008830B2002030B300B43059
:1006F0000A168A1166270A128A1183160313BF018C
:10070000B4300A128A1559230A128A111C2C4F0878
:1007100003198B2B8C2BD22B03304F020318912BF8
:10072000922BD22B19080319962B972BD22B8312BD
:100730000313BC0101300A168A11C3250A128A115B
:10074000AA3083160313A2008730A3000A128A1569
:100750003B200A128A1183120313BC01C0300A160F
:100760008A11C3250A128A11B93083160313A20015
:100770008730A3000A128A153B200A128A118312BD
:100780000313BC01BC0A831603174F08303E0A1638
:100790008A11C3250A128A11831603179D019E012F
:1007A00099011C2C4F08031DD62BD72B1C2C831210
:1007B0000313BC0101300A168A11C3250A128A11DB
:1007C0008B3083160313A2008730A3000A128A1508
:1007D0003B200A128A11033083160317CF009D01B4
:1007E0009E019B013030B4002F30B500B601C730F8
:1007F00083160313B1000130B2002F30B300B430C0
:100800000A168A1166270A128A110F3083160313FB
:10081000B1008830B2002030B300B4300A168A111B
:1008200066270A128A1183160313BF01B4300A1215
:100830008A1559230A128A11831603171E081D06EA
:100840000319232C242C512C1B080319282C292C88
:10085000512C83120313BC0101300A168A11C325DF
:100860000A128A11493083160313A2008730A300AD
:100870000A128A153B200A128A1183120313BC0143
:10088000C0300A168A11C3250A128A11A3308316B2
:100890000313A2000130A3000A128A153B200A129A
:1008A0008A11831603171E089D006E280A128A11EA
:1008B00010280F3083160313BF003F088804EE0191
:1008C0000730BF003F088312031386048316031307
:1008D0006E08223E840087300318013E8312031302
:1008E000FF000A128A1100270A128A1183160313C5
:1008F000BF003F0883120313860583160313ED011F
:100900006D081E3E840087300318013E83120313D6
:10091000FF000A128A1100270A128A110805031D16
:10092000922C932CC22C213083160313C0007530F7
:10093000BF00BF0B992CC00B992C9E2C8316031360
:100940006D081E3E840087300318013E8312031396
:10095000FF000A128A1100270A128A110805031DD6
:10096000B22CB32CC22C831603136E08BF000230C6
:100970000310BF0DFF3E031DB82C6D083F07EF00AD
:10098000EC01EC0A013083160313BF003F08ED07AA
:1009900004306D02031CCD2CCE2C802C6C08031966
:1009A000D22CD32C842EEC0108306F06031DD92CD9
:1009B000DA2CEC2D8316031750080319E02CE12CD8
:1009C000662D22080319E52CE62C662D0330220241
:1009D0000318EB2CEC2CF22CC7300A128A150F22CC
:1009E0000A128A1183160317470883160313BF00E0
:1009F000C0013F08B9004008BA006430BB000030B5
:100A0000BC000A168A119C250A128A118316031348
:100A10003908C1003A08C200831603174808831634
:100A20000313C300C4014308B9004408BA000A30E4
:100A3000BB000030BC000A168A119C250A128A11DC
:100A40008316031339084107C5003A0803183A0A08
:100A50004207C60083160317490883160313450788
:100A6000C7000030031801304607C8004708303E71
:100A7000C90048080318013EEB3ECA004A08803A04
:100A8000FF0080307F02031D472DFB304902031811
:100A90004A2D4B2D5D2D8316031349088312031332
:100AA000BC0000300A168A1126260A128A11831603
:100AB00003179501950AD001712E8316031797012C
:100AC000970AC701A101A201712E712E50080319C6
:100AD0006A2D6B2D6E2D9601960A712E1B08031D33
:100AE000722D732DC22D4C308316031364061D30F6
:100AF000031965066604670403197F2D802DC22D36
:100B000083160313690883120313BD0083160313AE
:100B1000680883120313BC000A168A1126250A12DC
:100B20008A11273083160313B3002330B4000A124E
:100B30008A118F260A128A11831603132D08B60014
:100B40002C08B5000A128A154B210A128A11831645
:100B500003133308E83E831603179200831603132A
:100B600034080318013E033E831603179300003038
:100B700083160313E7000030E6000030E500003084
:100B8000E400712E831603171B080319C82DC92D05
:100B9000E02D3F3083160313A5000030A600A330DC
:100BA000A7000A128A1575220A128A11003A03193F
:100BB000DA2DDB2DE02D831603179A019A0A712E88
:100BC000831603171B080319E62DE72D652D013049
:100BD000CF029901990A712E6F08031DF02DF12D96
:100BE000172E831603171B080319F72DF82D052E52
:100BF0001E080319FC2DFD2D052E01309E021E0836
:100C0000A33E840083178001712E50080319092E1A
:100C10000A2E712E220803190E2E0F2E712E01306E
:100C2000A2022208C73E840083178001712E83161A
:100C300003171B0803191D2E1E2E422E83160313A5
:100C40006F08123E840087300318013E831203139D
:100C5000FF000A128A1100270A128A118316031351
:100C6000BF00831603171E08A33E840083160313D8
:100C70003F08831780000130BF003F088316031729
:100C80009E07FF2D50080319462E472E712E033064
:100C9000220203184C2E4D2E712E831603136F085B
:100CA000123E840087300318013E83120313FF00B5
:100CB0000A128A1100270A128A1183160313BF0031
:100CC000831603172208C73E8400831603133F08C8
:100CD000831780000130BF003F0883160317A20767
:100CE000112E0F300313BF003F0883120313880433
:100CF0000F308312080583160313BF000F303F0621
:100D0000031D832E842E782E0130BF003F08EE078E
:100D100003306E02031C8D2E8E2E602C0800831271
:100D20000313530883160313A300831203135208FB
:100D300083160313A20083120313510883160313AF
:100D4000A10083120313500883160313A00041303F
:100D5000A700C630A6004E30A5006D30A4000A16CC
:100D60008A11B0270A128A118316031323088312EB
:100D70000313D30083160313220883120313D20034
:100D800083160313210883120313D1008316031360
:100D9000200883120313D0003930D00730300318F5
:100DA0003130D107003003180130D207003003186A
:100DB0000130D307500883160313AE0083120313C8
:100DC000510883160313AF008312031352088316CE
:100DD0000313B00083120313530883160313B100E7
:100DE0001030B200310DB10CB00CAF0CAE0CB20B28
:100DF000F22EFF302E05AC007F302F05AD0008002D
:100E0000FF1B0A2F83137F1883170008840A031916
:100E1000FF0A08007F087F398A000408840A031942
:100E2000FF0A82002A3437343434313430343834D1
:100E300035343234233439343634333401340234E3
:100E400004340834FE34FD34FB342334203470344D
:100E500065347234203461346C34743472346F34D9
:100E6000203463346F3464342E3400340034493415
:100E70006E34733465347234693473346334693472
:100E8000203463346F34643469346334653400343B
:100E9000003423343D3463346F346E3466342E347E
:100EA00020342A343D34633461346E3463342E3458
:100EB000003400347034653472342034673465345F
:100EC0006E342E34203463346F34643469346334C4
:100ED00065340034003441347434743465346E3411
:100EE0006434693420343334303473342E342E3443
:100EF0002E340034003449346E3473346534723423
:100F00002E3420344934443420345034493443346A
:100F10003A3400340034543465346E3474342E342E
:100F20002034653473346134753472346934743404
:100F30006934003400344D3449344E343D34303457
:100F40002C344D34413458343D343234353430341B
:100F50000034003443346F346434693463346534AA
:100F60002034653472347234613474346F34003434
:100F70000034543465346E347434613474346934F8
:100F8000763469343A3420340034003442346534E1
:100F90006E34763465346E34753474346F34213481
:100FA00000340034493444342034533461346C34D4
:100FB0007634613474346F34003400345034723415
:100FC00065346D34693420342734233427340034B5
:100FD000003443346F3464346934633465343A34F0
:100FE0002034003400344934443420343E34203436
:100FF000323435343034003400344934443420340D
:10100000563455344F3454344F340034003445345E
:10101000523452344F345234453400340034313475
:101020002F343034003431342F34313400343234FE
:0210300000348A
:101034000334013483120313BD00640083160317C1
:101044008C1825282828831203131F2883120313BE
:101054003D08831203178D003F3083120313BC0035
:101064003C08831603178C050C14831203170C0811
:10107400080083160313A701A8016E28BC01BC0A4B
:101084008316031327082207A5002308A4000318C6
:10109400A40AA71F4E28A403831603132408A6003A
:1010A400260883120313FF00831603132508840004
:1010B400831203130A128A1100270A128A150A16C8
:1010C4008A11C3250A128A15013083160313A70750
:1010D4000318A80A0030A80727082207A500230838
:1010E400A4000318A40AA71F7828A40383160313D3
:1010F4002408A600260883120313FF008316031393
:1011040025088400831203130A128A1100270A1285
:101114008A15003A031D8F2890284028080083125E
:101124000313AC01AA1F972898289F28A909AA0984
:10113400A90A0319AA0AAC01AC0AA81FA228A32869
:10114400A828A709A809A70A0319A80A2708280490
:101154000319AD28AE28DD28AB01AB0ABC28013049
:101164000310A70DA80DFF3E031DB2280130FD009A
:101174007D08AB07A81FBF28C028B12828082A0269
:10118400031DC62827082902031CC928CA28D028F9
:101194002708A9022808031CAA03AA020130031085
:1011A400A80CA70CFF3E031DD1280130AB02031D80
:1011B400DC28DD28C0282C080319E128E228E728C8
:1011C400A909AA09A90A0319AA0A2A08A800290828
:1011D400A700080083120313BC01BD012129831257
:1011E40003133C08831603132207A3002308840077
:1011F4000008A400831203133C088316031320077A
:10120400A6002108A5000318A50A83120313BC1F16
:101214000E2983160313A503831603132508A700B9
:10122400260884008317271C8313240880000130B8
:1012340083120313BC070318BD0A0030BD073C0822
:10124400831603132207A3002308840083130008D2
:10125400031D2D292E29F128831203133C0883161C
:1012640003132007A4002108A3000318A30A831270
:101274000313BC1F402983160313A303831603130C
:101284002308A500240884008317251C83138001E8
:10129400080083160313B801B61F5129522959298E
:1012A400B509B609B50A0319B60AB801B80AB41FD4
:1012B4005C295D296229B309B409B30A0319B40A84
:1012C400330834040319672968299B29B701B70A2D
:1012D4007A2901300310B30DB40DFF3E031D6C29B0
:1012E400013083120313BD003D0883160313B707AF
:1012F400B41F7D297E296B2934083602031D8429F5
:1013040033083502031C872988298E293308B5023E
:101314003408031CB603B60201300310B40CB30C3A
:10132400FF3E031D8F290130B702031D9A299B2913
:101334007E29380803199F29A029A529B509B609CA
:10134400B50A0319B60A3608B4003508B300080014
:101354008312031309118910823083160313A30027
:10136400DD30A200A20BB429A30BB429831203130A
:101374008914BC0138300A168A11C3250A128A1549
:10138400213083160313A3007530A200A20BC829D1
:10139400A30BC829CD2983120313BC0138300A16C4
:1013A4008A11C3250A128A15073083160313A30072
:1013B4007C30A200A20BDC29A30BDC2900008312E1
:1013C4000313BC0138300A168A11C3250A128A1580
:1013D40083120313BC0108300A168A11C3250A12AA
:1013E4008A1583120313BC010F300A168A11C32510
:1013F4000A128A1583120313BC0101300A168A11DA
:10140400C3250A128A1583120313BC010C300A1671
:101414008A11C3250A128A15080083160313A8002B
:10142400280883120313BC000130BD000A168A1178
:10143400F0250A128A15831203133D088316031339
:10144400A700831203133C0883160313A60027087E
:10145400803AFF0080307F02031D322A03302602C7
:101464000318352A362A742A652A2808033E84007C
:1014740083178001280884000008A5002808023E7C
:10148400840025088000280A840030308000280861
:10149400840030308000742A2808033E84008317B7
:1014A4008001280A84000008A5002808023E840060
:1014B40025088000280884000008A500280A840064
:1014C40025088000492A831603132708003A0319C4
:1014D4006C2A742A2608013A0319372A033A031995
:1014E4004E2A742A08008316031325088312031353
:1014F400BC0083160313260883120313BD000A16C7
:101504008A11F0250A128A15831203133C088316E4
:101514000313A800831203133D0883160313A900C1
:10152400270883120313BC000130BD000A168A1178
:10153400F0250A128A15831203133D088316031338
:101544002906031DAB2A831203133C0883160313D5
:1015540028060319AE2AAF2AB12A0030E42AAC01C6
:10156400D22A2C082707A80028088400831700081B
:10157400A9002C082507AA0026080318013EAB0081
:101584002A08840083172B1C8313000829060319D7
:10159400CC2ACD2ACE2AAF2A0130A8002808AC07CD
:1015A4002C082507A80026080318013EA9002808CE
:1015B40084008317291C83130008031DE22AE32AED
:1015C400B32A01300800003083160313DA00013017
:1015D400D900C230D8000030D7000A168A119926E3
:1015E4000A128A150A128A15AA210A128A150A16DB
:1015F4008A114B250A128A150A168A115C250A12C9
:101604008A1500300A128A151C200A128A158316BC
:101614000317CB00CC014B08CD004C08CE004D0A7B
:101624004E04031D162B172B372B7B308316031305
:10163400A2008730A3000A128A153B200A128A15D9
:1016440083120313BC01C0300A168A11C3250A127F
:101654008A159B3083160313A2008730A3000A1255
:101664008A153B200A128A15582B4D08831603133A
:10167400D700831603174E0883160313D8000030CF
:10168400D81BFF30D900DA00C730DB000A128A15F4
:1016940026270A128A15C7300A128A150F220A123F
:1016A4008A1583160317D0019801980A0800831637
:1016B4000313C300C101C201722B41084307C000D8
:1016C4004008840000080A168A113D250A128A156A
:1016D400013083160313C1070318C20A0030C2077E
:1016E40041084307C0004008840083170008031D15
:1016F4007C2B7D2B5F2B3F08031D812B822BCD2B55
:10170400690883120313BD00831603136808831248
:101714000313BC000A168A1126250A128A15003002
:1017240083160313EB000030EA000030E9000030B8
:10173400E8000A30B3000030B4000A128A118F2680
:101744000A128A15831603132D08B6002C08B50057
:101754000A128A154B210A128A15831603133308B9
:10176400053EB90034080318013E003EBA00FA30C1
:10177400BB000030BC000A168A119C250A128A1587
:10178400831603133908E4003A08E5000030E51B2A
:10179400FF30E600E700080083120313B500B6012A
:1017A400B701E72B36083507B40034088400000875
:1017B4000A168A112F250A128A150130831203137F
:1017C400B6070318B70A0030B70736083507B40060
:1017D4003408840083170008031DF12BF22BD42B4B
:1017E4003308031DF62BF72B462C831603136908C5
:1017F400F1006808F0000A168A111D250A128A15DC
:10180400003083160313EB000030EA000030E900D7
:101814000030E8000A3083120313A7000030A80048
:101824000A168A111F270A128A1583120313210824
:10183400AA002008A9000A128A1591200A128A1502
:10184400831203132708053EAD0028080318013E40
:10185400003EAE00FA30AF000030B0000A168A1124
:1018640075250A128A15831203132D088316031390
:10187400E400831203132E0883160313E5000030DB
:10188400E51BFF30E600E700080083160313AC00F5
:10189400AD01AE012C0883120313BC000130BD005E
:1018A4000A168A11F0250A128A15831203133D08B9
:1018B40083160313B000831203133C088316031327
:1018C400AF009A2C831603132D082507A8002608B9
:1018D400A7000318A70AAD1F702CA70383160313D0
:1018E4002708A900290883120313FF008316031392
:1018F40028088400831203130A128A1100270A128B
:101904008A1583160313AA002F082C07AB002B0893
:1019140084002A08831780000130AD070318AE0A3B
:101924000030AE070130AF070318B00A0030B0072B
:101934002D082507A8002608A7000318A70AAD1F2D
:10194400A42CA703831603132708A90029088312CC
:101954000313FF0083160313280884008312031360
:101964000A128A1100270A128A15003A031DBB2C99
:10197400BC2C642C831603133008A6002F08A50082
:1019840008008C1EC62CC72CDC2C3E08103E84009C
:101994001A08831780000130B8003808BE073E08D3
:1019A400103E84008001831603179C019C0A831255
:1019B40003138C120B1DDF2CE02C422D833081008D
:1019C400013083160313E807003003180130E907D8
:1019D400003003180130EA07003003180130EB0728
:1019E40067086604650464040319F92CFA2C412D74
:1019F4006B086702031D082D6A086602031D082D83
:101A040069086502031D082D6808640203180B2D7C
:101A14000C2D412DE8306406033003196506660475
:101A24006704031D162D172D262D83160317980101
:101A3400980A003083160313E7000030E6000030F4
:101A4400E5000030E400412D4C3083160313640696
:101A54001D300319650666046704031D322D332DFA
:101A6400382D831603179401940A1B2D8312031334
:101A7400B301B4300A128A15CE230A128A150B1147
:101A8400831203133B088A003A088400390E83004A
:101A9400FE0E7E0E090083160313A901A71F532D02
:101AA400542D612DA409A509A609A709A40A03199F
:101AB400A50A0319A60A0319A70AA901A90AA31FBB
:101AC400642D652D702DA009A109A209A309A00AFE
:101AD4000319A10A0319A20A0319A30A2308220459
:101AE400210420040319772D782DC32DA801A80AF9
:101AF400902D013083120313BC00031083160313CB
:101B0400A00DA10DA20DA30D83120313BC0B7F2DF9
:101B14000130BC003C0883160313A807A31F932DB0
:101B2400942D7B2D23082702031DA22D22082602B3
:101B3400031DA22D21082502031DA22D2008240225
:101B4400031CA52DA62DB42D2008A4022108031CD6
:101B5400210FA5022208031C220FA6022308031C3E
:101B6400230FA70201300310A30CA20CA10CA00C9C
:101B7400FF3E031DB52D0130A802031DC22DC32D48
:101B8400942D29080319C72DC82DD32DA409A509FF
:101B9400A609A709A40A0319A50A0319A60A031981
:101BA400A70A2708A3002608A2002508A1002408E4
:101BB400A000080083160313D201CB1FE22DE32DEE
:101BC400F02DC809C909CA09CB09C80A0319C90AE9
:101BD4000319CA0A0319CB0AD201D20ACF1FF32D63
:101BE400F42D032ECC09CD09CE09CF09CC0A031953
:101BF400CD0A0319CE0A0319CF0A0130D0005008C8
:101C0400D2060030D6000030D5000030D4000030B9
:101C1400D3004B084A04490448040319122E132E16
:101C2400602ED101D10A232E0130D0000310C80D3B
:101C3400C90DCA0DCB0DD00B182E0130D0005008A1
:101C4400D107CB1F262E272E162E0130D0000310CD
:101C5400D30DD40DD50DD60DD00B292E4B084F0224
:101C6400031D3E2E4A084E02031D3E2E49084D0216
:101C7400031D3E2E48084C02031C412E422E512EB9
:101C84004808CC024908031C490FCD024A08031C2A
:101C94004A0FCE024B08031C4B0FCF0253140130E2
:101CA4000310CB0CCA0CC90CC80CFF3E031D522EEA
:101CB4000130D102031D5F2E602E272E5208031916
:101CC400642E652E702ED309D409D509D609D30AFA
:101CD4000319D40A0319D50A0319D60A5608CB00E6
:101CE4005508CA005408C9005308C80008008316E0
:101CF4000313B600B401B501B201B301360883126F
:101D04000313BC000130BD000A168A11F0250A1223
:101D14008A15831203133D0883160313AC00831240
:101D240003133C0883160313AB00B701B8010F2F4C
:101D34008316031337083607A800280884002F30B9
:101D4400831700060319A72EA82EEC2E3708360792
:101D5400A8002808840000080319B12EB22EEC2E26
:101D640037083607A800280884000008A9003408AA
:101D7400AD3E84002908831380000130B4070318A2
:101D8400B50A0030B5073408AD3E84008001092F40
:101D94002D0883160317A000FF2EC330A0000130C6
:101DA400A100AD30A2000A128A15EC200A128A158D
:101DB400FF2E2D08831603179F00FF2E3F30A0002F
:101DC4000030A100AD30A2000A128A15EC200A12DC
:101DD4008A15FF2E3308003A0319F12EFF2E32081C
:101DE400003A0319CA2E013A0319CF2E033A0319F4
:101DF400DB2E013A0319E02EFF2E01308316031364
:101E0400B2070318B30A0030B307B401B5010130B7
:101E1400B7070318B80A0030B8072B08013EA8001A
:101E24002C080318013E003EA9003808803AAA0095
:101E34002908803A2A02031D212F28083702031C8F
:101E4400242F252F9A2E080083160313E101E201A3
:101E5400DF01E001DA1F2F2F302F582F0130E1006E
:101E64000030E2005B0884002D3083178000FF30CF
:101E7400A300FF30A200FF30A100FF30A0005A08E9
:101E8400A7005908A6005808A5005708A4000A1678
:101E94008A11B0270A128A15831603132308DA005D
:101EA4002208D9002108D8002008D700E301E30A5A
:101EB4005F2F0130DC005C08E3076308BF000A30D1
:101EC4000A168A115D260A128A15831603133F081F
:101ED400C8004008C9000030C91BFF30CA00CB004D
:101EE4005A08CF005908CE005808CD005708CC0036
:101EF4000A128A15DC250A128A15831603134B0865
:101F04004A0449044804031D882F892F5B2FE92FB5
:101F1400831603135F086302FF3EBF000A300A16EC
:101F24008A115D260A128A15831603134008DE00FF
:101F34003F08DD0061085B07DC005C0884005D0885
:101F4400C8005E08C9000030C91BFF30CA00CB00BE
:101F54005A08CF005908CE005808CD005708CC00C5
:101F64000A128A15DC250A128A15831603134808F7
:101F7400303E831780005D08A0005E08A100003099
:101F8400A11BFF30A200A3005A08A7005908A6000D
:101F94005808A5005708A4000A128A154D250A12EC
:101FA4008A15831603132308DA002208D9002108AE
:101FB400D8002008D7000130E1070318E20A0030F6
:101FC400E2070130DF070318E00A0030E007600889
:101FD400803ADC0080305C02031DF22F63085F024C
:101FE400031CF52FF62F8A2F8316031361085B0752
:0C1FF400DC005C088400831780010800FA
:102A2200013400340034003464008001840A040656
:102A3200031900340406162D700883120313D00004
:102A42007108D100D201D3010800831203133C089C
:102A5200D0003D08D100D201D3010800F100831259
:102A620003130C1E352D362D302DEF30F00070087B
:102A72008C0571089900080083120313BD000C1E17
:102A8200432D442D402DEF30BC003C088C053D0801
:102A9200990008000F3083120313BC003C08831610
:102AA20003138804F03083120313BC003C0883161E
:102AB200031386050800A03083120313BC003C08F0
:102AC2008B040630831603138100833083120313B1
:102AD2008100003083160313EB000030EA0000305F
:102AE200E9000030E800080083120313B101B201CB
:102AF2002D1C7C2D7D2D832D2F08B1070318B20AC2
:102B02003008B20701300310AF0DB00DFF3E031DB8
:102B1200842D01300310AE0CAD0CFF3E031D8B2D36
:102B22002D082E04031D962D972D792D3208AE0007
:102B32003108AD00080083160313BD01BE01391C24
:102B4200A32DA42DAA2D3B08BD070318BE0A3C08DD
:102B5200BE0701300310BB0DBC0DFF3E031DAB2DA4
:102B620001300310BA0CB90CFF3E031DB22D390817
:102B72003A04031DBD2DBE2DA02D3E08BA003D080E
:102B8200B900080083120313BD00831603138801E2
:102B9200891009118312031389143D0888003C0C23
:102BA200031C091103180915143083160313A1001D
:102BB2007930A000A00BDB2DA10BDB2D83120313B8
:102BC2008910143083160313A1007930A000A00BE2
:102BD200E82DA10BE82D8312031389140800831634
:102BE2000313A301A401FB2D0130A3070318A40AB8
:102BF2000030A4072308831203133C078316031330
:102C0200A100831203133D0883160313A0000318C7
:102C1200A00AA31F0D2EA003831603132008A200EF
:102C2200210884008317221C83130008031D1A2E17
:102C32001B2EF52D240883120313BD0083160313E4
:102C4200230883120313BC00080083160313A00099
:102C5200831603178C182E2E2F2E292E831603135C
:102C62002008831203178D00831203133C0883127A
:102C720003178C003F3083120313BD003D088316F7
:102C820003178C058312031303108B1F492E4A2E40
:102C92004B2E03148B13831603170C1555308D001E
:102CA200AA308D008C140C1183120313031C5A2EAC
:102CB2005B2E5C2E8B17080083160313C3000130B2
:102CC200C6000030C700C401C501852E8316031358
:102CD2004308C100C2014108B9004208BA004708CE
:102CE200BC004608BB000A168A119C250A168A11E6
:102CF200831603133A08C7003908C6000130C40717
:102D02000318C50A0030C5074508803AC100803063
:102D12004102031D8E2E3F084402031C912E922E67
:102D2200672E831603134708C0004608BF00080039
:102D3200BF3083160313DB005B0887058717243037
:102D4200DB005B0898048312031398171816831686
:102D520003135708DB005808DC005908DD005A0845
:102D6200DE0006300310DB0DDC0DDD0DDE0DFF3E57
:102D7200031DB32E5E08CB005D08CA005C08C900C3
:102D82005B08C8000130CF003130CE002D30CD00BD
:102D92000030CC000A128A15DC250A168A11831625
:102DA20003134808FF3E99008B170B178C16080077
:102DB2000030FC000030FB000030FA000030F90067
:102DC200701CE42EE52EFC2E7408F9077508031119
:102DD2000318013E0319EE2EFA07760803110318B1
:102DE200013E0319F52EFB07770803110318013E74
:102DF2000319FC2EFC070130F8000310F40DF50D49
:102E0200F60DF70DF80BFE2E01300310F30CF20C49
:102E1200F10CF00CFF3E031D062F730872047104BF
:102E22007004031D152F162FE12E7C08F3007B087A
:102E3200F2007A08F1007908F00008008312031307
:102E42005308F3005208F2005108F1005008F00054
:102E52004130F700C630F6004E30F5006D30F40018
:102E62000A168A11D9260A168A11730883120313C5
:102E7200D3007208D2007108D1007008D000393036
:102E8200D007303003183130D10700300318013039
:102E9200D207003003180130D3075008A2005108AE
:102EA200A3005208A4005308A5001030A600250D67
:102EB200A50CA40CA30CA20CA60B582FFF302205C4
:102EC200A0007F302305A100080083160313B7007A
:102ED2003108A5003208A60037080A128A154724CD
:102EE2000A168A11831603132608B6002508B500B0
:102EF2002030330603197E2F7F2F8E2F3508370798
:102F0200B400340884003308831780000130B50709
:102F12000318B60A0030B607A92F35083707B400E0
:102F2200340884000D30831780000130B507031880
:102F3200B60A0030B60735083707B40034088400F3
:102F42000A3080000130B5070318B60A0030B60710
:102F520035083707B40034088400800108000030C7
:102F620083160313AB000030AA000030A900003022
:102F7200A800201CBD2FBE2FD52F2408A807250886
:102F820003110318013E0319C72FA90726080311CD
:102F92000318013E0319CE2FAA07270803110318AD
:102FA200013E0319D52FAB07013083120313BC0076
:102FB200031083160313A40DA50DA60DA70D8312EE
:102FC2000313BC0BD92F0130031083160313A30C78
:102FD200A20CA10CA00CFF3E031DE52F2308220426
:102FE20021042004031DF62FF72FBA2F2B08A3006C
:0E2FF2002A08A2002908A1002808A000080053
:08400000FF3FFF3FFF3FFF3FC0
:02400E00F23F7F
:00000001FF
